{
  "_format": "hh-sol-artifact-1",
  "contractName": "LazyNFT",
  "sourceName": "contracts/StokeLazyMinting.sol",
  "abi": [
    {
      "inputs": [
        {
          "internalType": "address payable",
          "name": "minter",
          "type": "address"
        }
      ],
      "stateMutability": "nonpayable",
      "type": "constructor"
    },
    {
      "anonymous": false,
      "inputs": [
        {
          "indexed": true,
          "internalType": "address",
          "name": "owner",
          "type": "address"
        },
        {
          "indexed": true,
          "internalType": "address",
          "name": "approved",
          "type": "address"
        },
        {
          "indexed": true,
          "internalType": "uint256",
          "name": "tokenId",
          "type": "uint256"
        }
      ],
      "name": "Approval",
      "type": "event"
    },
    {
      "anonymous": false,
      "inputs": [
        {
          "indexed": true,
          "internalType": "address",
          "name": "owner",
          "type": "address"
        },
        {
          "indexed": true,
          "internalType": "address",
          "name": "operator",
          "type": "address"
        },
        {
          "indexed": false,
          "internalType": "bool",
          "name": "approved",
          "type": "bool"
        }
      ],
      "name": "ApprovalForAll",
      "type": "event"
    },
    {
      "anonymous": false,
      "inputs": [
        {
          "indexed": true,
          "internalType": "bytes32",
          "name": "role",
          "type": "bytes32"
        },
        {
          "indexed": true,
          "internalType": "bytes32",
          "name": "previousAdminRole",
          "type": "bytes32"
        },
        {
          "indexed": true,
          "internalType": "bytes32",
          "name": "newAdminRole",
          "type": "bytes32"
        }
      ],
      "name": "RoleAdminChanged",
      "type": "event"
    },
    {
      "anonymous": false,
      "inputs": [
        {
          "indexed": true,
          "internalType": "bytes32",
          "name": "role",
          "type": "bytes32"
        },
        {
          "indexed": true,
          "internalType": "address",
          "name": "account",
          "type": "address"
        },
        {
          "indexed": true,
          "internalType": "address",
          "name": "sender",
          "type": "address"
        }
      ],
      "name": "RoleGranted",
      "type": "event"
    },
    {
      "anonymous": false,
      "inputs": [
        {
          "indexed": true,
          "internalType": "bytes32",
          "name": "role",
          "type": "bytes32"
        },
        {
          "indexed": true,
          "internalType": "address",
          "name": "account",
          "type": "address"
        },
        {
          "indexed": true,
          "internalType": "address",
          "name": "sender",
          "type": "address"
        }
      ],
      "name": "RoleRevoked",
      "type": "event"
    },
    {
      "anonymous": false,
      "inputs": [
        {
          "indexed": true,
          "internalType": "address",
          "name": "from",
          "type": "address"
        },
        {
          "indexed": true,
          "internalType": "address",
          "name": "to",
          "type": "address"
        },
        {
          "indexed": true,
          "internalType": "uint256",
          "name": "tokenId",
          "type": "uint256"
        }
      ],
      "name": "Transfer",
      "type": "event"
    },
    {
      "inputs": [],
      "name": "DEFAULT_ADMIN_ROLE",
      "outputs": [
        {
          "internalType": "bytes32",
          "name": "",
          "type": "bytes32"
        }
      ],
      "stateMutability": "view",
      "type": "function"
    },
    {
      "inputs": [],
      "name": "MINTER_ROLE",
      "outputs": [
        {
          "internalType": "bytes32",
          "name": "",
          "type": "bytes32"
        }
      ],
      "stateMutability": "view",
      "type": "function"
    },
    {
      "inputs": [
        {
          "internalType": "address",
          "name": "to",
          "type": "address"
        },
        {
          "internalType": "uint256",
          "name": "tokenId",
          "type": "uint256"
        }
      ],
      "name": "approve",
      "outputs": [],
      "stateMutability": "nonpayable",
      "type": "function"
    },
    {
      "inputs": [],
      "name": "availableToWithdraw",
      "outputs": [
        {
          "internalType": "uint256",
          "name": "",
          "type": "uint256"
        }
      ],
      "stateMutability": "view",
      "type": "function"
    },
    {
      "inputs": [
        {
          "internalType": "address",
          "name": "owner",
          "type": "address"
        }
      ],
      "name": "balanceOf",
      "outputs": [
        {
          "internalType": "uint256",
          "name": "",
          "type": "uint256"
        }
      ],
      "stateMutability": "view",
      "type": "function"
    },
    {
      "inputs": [
        {
          "internalType": "uint256",
          "name": "tokenId",
          "type": "uint256"
        }
      ],
      "name": "getApproved",
      "outputs": [
        {
          "internalType": "address",
          "name": "",
          "type": "address"
        }
      ],
      "stateMutability": "view",
      "type": "function"
    },
    {
      "inputs": [],
      "name": "getChainID",
      "outputs": [
        {
          "internalType": "uint256",
          "name": "",
          "type": "uint256"
        }
      ],
      "stateMutability": "view",
      "type": "function"
    },
    {
      "inputs": [
        {
          "internalType": "bytes32",
          "name": "role",
          "type": "bytes32"
        }
      ],
      "name": "getRoleAdmin",
      "outputs": [
        {
          "internalType": "bytes32",
          "name": "",
          "type": "bytes32"
        }
      ],
      "stateMutability": "view",
      "type": "function"
    },
    {
      "inputs": [
        {
          "internalType": "bytes32",
          "name": "role",
          "type": "bytes32"
        },
        {
          "internalType": "address",
          "name": "account",
          "type": "address"
        }
      ],
      "name": "grantRole",
      "outputs": [],
      "stateMutability": "nonpayable",
      "type": "function"
    },
    {
      "inputs": [
        {
          "internalType": "bytes32",
          "name": "role",
          "type": "bytes32"
        },
        {
          "internalType": "address",
          "name": "account",
          "type": "address"
        }
      ],
      "name": "hasRole",
      "outputs": [
        {
          "internalType": "bool",
          "name": "",
          "type": "bool"
        }
      ],
      "stateMutability": "view",
      "type": "function"
    },
    {
      "inputs": [
        {
          "internalType": "address",
          "name": "owner",
          "type": "address"
        },
        {
          "internalType": "address",
          "name": "operator",
          "type": "address"
        }
      ],
      "name": "isApprovedForAll",
      "outputs": [
        {
          "internalType": "bool",
          "name": "",
          "type": "bool"
        }
      ],
      "stateMutability": "view",
      "type": "function"
    },
    {
      "inputs": [],
      "name": "name",
      "outputs": [
        {
          "internalType": "string",
          "name": "",
          "type": "string"
        }
      ],
      "stateMutability": "view",
      "type": "function"
    },
    {
      "inputs": [
        {
          "internalType": "uint256",
          "name": "tokenId",
          "type": "uint256"
        }
      ],
      "name": "ownerOf",
      "outputs": [
        {
          "internalType": "address",
          "name": "",
          "type": "address"
        }
      ],
      "stateMutability": "view",
      "type": "function"
    },
    {
      "inputs": [
        {
          "internalType": "address",
          "name": "redeemer",
          "type": "address"
        },
        {
          "components": [
            {
              "internalType": "uint256",
              "name": "tokenId",
              "type": "uint256"
            },
            {
              "internalType": "uint256",
              "name": "minPrice",
              "type": "uint256"
            },
            {
              "internalType": "string",
              "name": "uri",
              "type": "string"
            },
            {
              "internalType": "bytes",
              "name": "signature",
              "type": "bytes"
            }
          ],
          "internalType": "struct LazyNFT.NFTVoucher",
          "name": "voucher",
          "type": "tuple"
        }
      ],
      "name": "redeem",
      "outputs": [
        {
          "internalType": "uint256",
          "name": "",
          "type": "uint256"
        }
      ],
      "stateMutability": "payable",
      "type": "function"
    },
    {
      "inputs": [
        {
          "internalType": "bytes32",
          "name": "role",
          "type": "bytes32"
        },
        {
          "internalType": "address",
          "name": "account",
          "type": "address"
        }
      ],
      "name": "renounceRole",
      "outputs": [],
      "stateMutability": "nonpayable",
      "type": "function"
    },
    {
      "inputs": [
        {
          "internalType": "bytes32",
          "name": "role",
          "type": "bytes32"
        },
        {
          "internalType": "address",
          "name": "account",
          "type": "address"
        }
      ],
      "name": "revokeRole",
      "outputs": [],
      "stateMutability": "nonpayable",
      "type": "function"
    },
    {
      "inputs": [
        {
          "internalType": "address",
          "name": "from",
          "type": "address"
        },
        {
          "internalType": "address",
          "name": "to",
          "type": "address"
        },
        {
          "internalType": "uint256",
          "name": "tokenId",
          "type": "uint256"
        }
      ],
      "name": "safeTransferFrom",
      "outputs": [],
      "stateMutability": "nonpayable",
      "type": "function"
    },
    {
      "inputs": [
        {
          "internalType": "address",
          "name": "from",
          "type": "address"
        },
        {
          "internalType": "address",
          "name": "to",
          "type": "address"
        },
        {
          "internalType": "uint256",
          "name": "tokenId",
          "type": "uint256"
        },
        {
          "internalType": "bytes",
          "name": "_data",
          "type": "bytes"
        }
      ],
      "name": "safeTransferFrom",
      "outputs": [],
      "stateMutability": "nonpayable",
      "type": "function"
    },
    {
      "inputs": [
        {
          "internalType": "address",
          "name": "operator",
          "type": "address"
        },
        {
          "internalType": "bool",
          "name": "approved",
          "type": "bool"
        }
      ],
      "name": "setApprovalForAll",
      "outputs": [],
      "stateMutability": "nonpayable",
      "type": "function"
    },
    {
      "inputs": [
        {
          "internalType": "bytes4",
          "name": "interfaceId",
          "type": "bytes4"
        }
      ],
      "name": "supportsInterface",
      "outputs": [
        {
          "internalType": "bool",
          "name": "",
          "type": "bool"
        }
      ],
      "stateMutability": "view",
      "type": "function"
    },
    {
      "inputs": [],
      "name": "symbol",
      "outputs": [
        {
          "internalType": "string",
          "name": "",
          "type": "string"
        }
      ],
      "stateMutability": "view",
      "type": "function"
    },
    {
      "inputs": [
        {
          "internalType": "uint256",
          "name": "tokenId",
          "type": "uint256"
        }
      ],
      "name": "tokenURI",
      "outputs": [
        {
          "internalType": "string",
          "name": "",
          "type": "string"
        }
      ],
      "stateMutability": "view",
      "type": "function"
    },
    {
      "inputs": [
        {
          "internalType": "address",
          "name": "from",
          "type": "address"
        },
        {
          "internalType": "address",
          "name": "to",
          "type": "address"
        },
        {
          "internalType": "uint256",
          "name": "tokenId",
          "type": "uint256"
        }
      ],
      "name": "transferFrom",
      "outputs": [],
      "stateMutability": "nonpayable",
      "type": "function"
    },
    {
      "inputs": [],
      "name": "withdraw",
      "outputs": [],
      "stateMutability": "nonpayable",
      "type": "function"
    }
  ],
  "bytecode": "0x6101406040523480156200001257600080fd5b5060405162002d8938038062002d89833981016040819052620000359162000308565b6040518060400160405280600f81526020016e2630bd3ca7232a16ab37bab1b432b960891b815250604051806040016040528060018152602001603160f81b8152506040518060400160405280600781526020016613185e9e53919560ca1b815250604051806040016040528060038152602001622620ad60e91b8152508160009080519060200190620000cb92919062000262565b508051620000e190600190602084019062000262565b5050825160208085019190912083518483012060e08290526101008190524660a0818152604080517f8b73c3c69bb8fe3d512ecc4cf759cc79239f7b179b0ffacaa9a75d522b39400f81880181905281830187905260608201869052608082019490945230818401528151808203909301835260c0019052805194019390932091935091906080523060601b60c0526101205250620001a792507f9f2df0fed2c77648de5860a4cc508cd0818c85b8b8a1ab4ceeef8d981c8956a69150839050620001ae565b5062000377565b620001ba8282620001be565b5050565b60008281526007602090815260408083206001600160a01b038516845290915290205460ff16620001ba5760008281526007602090815260408083206001600160a01b03851684529091529020805460ff191660011790556200021e3390565b6001600160a01b0316816001600160a01b0316837f2f8788117e7eff1d82e926ec794901d17c78024a50270940304540a733656f0d60405160405180910390a45050565b82805462000270906200033a565b90600052602060002090601f016020900481019282620002945760008555620002df565b82601f10620002af57805160ff1916838001178555620002df565b82800160010185558215620002df579182015b82811115620002df578251825591602001919060010190620002c2565b50620002ed929150620002f1565b5090565b5b80821115620002ed5760008155600101620002f2565b6000602082840312156200031b57600080fd5b81516001600160a01b03811681146200033357600080fd5b9392505050565b600181811c908216806200034f57607f821691505b602082108114156200037157634e487b7160e01b600052602260045260246000fd5b50919050565b60805160a05160c05160601c60e05161010051610120516129bf620003ca6000396000612157015260006121a601526000612181015260006120da015260006121040152600061212e01526129bf6000f3fe60806040526004361061018b5760003560e01c80636352211e116100d6578063b88d4fde1161007f578063d547741f11610059578063d547741f1461047e578063e322ad2b1461049e578063e985e9c5146104c057600080fd5b8063b88d4fde1461040a578063c87b56dd1461042a578063d53913931461044a57600080fd5b806395d89b41116100b057806395d89b41146103c0578063a217fddf146103d5578063a22cb465146103ea57600080fd5b80636352211e1461033a57806370a082311461035a57806391d148541461037a57600080fd5b8063248a9ca3116101385780633ccfd60b116101125780633ccfd60b146102f257806342842e0e14610307578063564b81ef1461032757600080fd5b8063248a9ca3146102825780632f2ff15d146102b257806336568abe146102d257600080fd5b806308708a781161016957806308708a781461021f578063095ea7b31461024057806323b872dd1461026257600080fd5b806301ffc9a71461019057806306fdde03146101c5578063081812fc146101e7575b600080fd5b34801561019c57600080fd5b506101b06101ab3660046123e2565b610509565b60405190151581526020015b60405180910390f35b3480156101d157600080fd5b506101da610529565b6040516101bc9190612457565b3480156101f357600080fd5b5061020761020236600461246a565b6105bb565b6040516001600160a01b0390911681526020016101bc565b61023261022d36600461249f565b610655565b6040519081526020016101bc565b34801561024c57600080fd5b5061026061025b3660046124f4565b6107fe565b005b34801561026e57600080fd5b5061026061027d36600461251e565b610930565b34801561028e57600080fd5b5061023261029d36600461246a565b60009081526007602052604090206001015490565b3480156102be57600080fd5b506102606102cd36600461255a565b6109b7565b3480156102de57600080fd5b506102606102ed36600461255a565b6109dd565b3480156102fe57600080fd5b50610260610a69565b34801561031357600080fd5b5061026061032236600461251e565b610b4f565b34801561033357600080fd5b5046610232565b34801561034657600080fd5b5061020761035536600461246a565b610b6a565b34801561036657600080fd5b50610232610375366004612586565b610bf5565b34801561038657600080fd5b506101b061039536600461255a565b60009182526007602090815260408084206001600160a01b0393909316845291905290205460ff1690565b3480156103cc57600080fd5b506101da610c8f565b3480156103e157600080fd5b50610232600081565b3480156103f657600080fd5b506102606104053660046125a1565b610c9e565b34801561041657600080fd5b506102606104253660046125e8565b610ca9565b34801561043657600080fd5b506101da61044536600461246a565b610d37565b34801561045657600080fd5b506102327f9f2df0fed2c77648de5860a4cc508cd0818c85b8b8a1ab4ceeef8d981c8956a681565b34801561048a57600080fd5b5061026061049936600461255a565b610eca565b3480156104aa57600080fd5b5033600090815260086020526040902054610232565b3480156104cc57600080fd5b506101b06104db3660046126c4565b6001600160a01b03918216600090815260056020908152604080832093909416825291909152205460ff1690565b600061051482610ef0565b80610523575061052382610f8b565b92915050565b606060008054610538906126ee565b80601f0160208091040260200160405190810160405280929190818152602001828054610564906126ee565b80156105b15780601f10610586576101008083540402835291602001916105b1565b820191906000526020600020905b81548152906001019060200180831161059457829003601f168201915b5050505050905090565b6000818152600260205260408120546001600160a01b03166106395760405162461bcd60e51b815260206004820152602c60248201527f4552433732313a20617070726f76656420717565727920666f72206e6f6e657860448201526b34b9ba32b73a103a37b5b2b760a11b60648201526084015b60405180910390fd5b506000908152600460205260409020546001600160a01b031690565b60008061066183610fc9565b6001600160a01b03811660009081527fa4bfd7afe708e2e87e7f0e2ad9b4d545417e0f795f57b5c5ab5d799c565a04f4602052604090205490915060ff166107115760405162461bcd60e51b815260206004820152602160248201527f5369676e617475726520696e76616c6964206f7220756e617574686f72697a6560448201527f64000000000000000000000000000000000000000000000000000000000000006064820152608401610630565b82602001353410156107655760405162461bcd60e51b815260206004820152601c60248201527f496e73756666696369656e742066756e647320746f2072656465656d000000006044820152606401610630565b610770818435611029565b6107bc83356107826040860186612729565b8080601f01602080910402602001604051908101604052809392919081815260200183838082843760009201919091525061117892505050565b6107c881858535611221565b6001600160a01b038116600090815260086020526040812080543492906107f0908490612786565b909155505091359392505050565b600061080982610b6a565b9050806001600160a01b0316836001600160a01b031614156108935760405162461bcd60e51b815260206004820152602160248201527f4552433732313a20617070726f76616c20746f2063757272656e74206f776e6560448201527f72000000000000000000000000000000000000000000000000000000000000006064820152608401610630565b336001600160a01b03821614806108af57506108af81336104db565b6109215760405162461bcd60e51b815260206004820152603860248201527f4552433732313a20617070726f76652063616c6c6572206973206e6f74206f7760448201527f6e6572206e6f7220617070726f76656420666f7220616c6c00000000000000006064820152608401610630565b61092b83836113fb565b505050565b61093a3382611476565b6109ac5760405162461bcd60e51b815260206004820152603160248201527f4552433732313a207472616e736665722063616c6c6572206973206e6f74206f60448201527f776e6572206e6f7220617070726f7665640000000000000000000000000000006064820152608401610630565b61092b838383611221565b6000828152600760205260409020600101546109d38133611569565b61092b83836115e9565b6001600160a01b0381163314610a5b5760405162461bcd60e51b815260206004820152602f60248201527f416363657373436f6e74726f6c3a2063616e206f6e6c792072656e6f756e636560448201527f20726f6c657320666f722073656c6600000000000000000000000000000000006064820152608401610630565b610a65828261168b565b5050565b3360009081527fa4bfd7afe708e2e87e7f0e2ad9b4d545417e0f795f57b5c5ab5d799c565a04f4602052604090205460ff16610b0c5760405162461bcd60e51b8152602060048201526024808201527f4f6e6c7920617574686f72697a6564206d696e746572732063616e207769746860448201527f64726177000000000000000000000000000000000000000000000000000000006064820152608401610630565b3360008181526008602052604080822080549083905590519091839183156108fc0291849190818181858888f1935050505015801561092b573d6000803e3d6000fd5b61092b83838360405180602001604052806000815250610ca9565b6000818152600260205260408120546001600160a01b0316806105235760405162461bcd60e51b815260206004820152602960248201527f4552433732313a206f776e657220717565727920666f72206e6f6e657869737460448201527f656e7420746f6b656e00000000000000000000000000000000000000000000006064820152608401610630565b60006001600160a01b038216610c735760405162461bcd60e51b815260206004820152602a60248201527f4552433732313a2062616c616e636520717565727920666f7220746865207a6560448201527f726f2061646472657373000000000000000000000000000000000000000000006064820152608401610630565b506001600160a01b031660009081526003602052604090205490565b606060018054610538906126ee565b610a6533838361170e565b610cb33383611476565b610d255760405162461bcd60e51b815260206004820152603160248201527f4552433732313a207472616e736665722063616c6c6572206973206e6f74206f60448201527f776e6572206e6f7220617070726f7665640000000000000000000000000000006064820152608401610630565b610d31848484846117dd565b50505050565b6000818152600260205260409020546060906001600160a01b0316610dc45760405162461bcd60e51b815260206004820152603160248201527f45524337323155524953746f726167653a2055524920717565727920666f722060448201527f6e6f6e6578697374656e7420746f6b656e0000000000000000000000000000006064820152608401610630565b60008281526006602052604081208054610ddd906126ee565b80601f0160208091040260200160405190810160405280929190818152602001828054610e09906126ee565b8015610e565780601f10610e2b57610100808354040283529160200191610e56565b820191906000526020600020905b815481529060010190602001808311610e3957829003601f168201915b505050505090506000610e7460408051602081019091526000815290565b9050805160001415610e87575092915050565b815115610eb9578082604051602001610ea192919061279e565b60405160208183030381529060405292505050919050565b610ec284611866565b949350505050565b600082815260076020526040902060010154610ee68133611569565b61092b838361168b565b60006001600160e01b031982167f80ac58cd000000000000000000000000000000000000000000000000000000001480610f5357506001600160e01b031982167f5b5e139f00000000000000000000000000000000000000000000000000000000145b8061052357507f01ffc9a7000000000000000000000000000000000000000000000000000000006001600160e01b0319831614610523565b60006001600160e01b031982167f7965db0b000000000000000000000000000000000000000000000000000000001480610523575061052382610ef0565b600080610fd58361195b565b905061102281610fe86060860186612729565b8080601f0160208091040260200160405190810160405280939291908181526020018383808284376000920191909152506119ec92505050565b9392505050565b6001600160a01b03821661107f5760405162461bcd60e51b815260206004820181905260248201527f4552433732313a206d696e7420746f20746865207a65726f20616464726573736044820152606401610630565b6000818152600260205260409020546001600160a01b0316156110e45760405162461bcd60e51b815260206004820152601c60248201527f4552433732313a20746f6b656e20616c7265616479206d696e746564000000006044820152606401610630565b6001600160a01b038216600090815260036020526040812080546001929061110d908490612786565b9091555050600081815260026020526040808220805473ffffffffffffffffffffffffffffffffffffffff19166001600160a01b03861690811790915590518392907fddf252ad1be2c89b69c2b068fc378daa952ba7f163c4a11628f55a4df523b3ef908290a45050565b6000828152600260205260409020546001600160a01b03166112025760405162461bcd60e51b815260206004820152602e60248201527f45524337323155524953746f726167653a2055524920736574206f66206e6f6e60448201527f6578697374656e7420746f6b656e0000000000000000000000000000000000006064820152608401610630565b6000828152600660209081526040909120825161092b92840190612333565b826001600160a01b031661123482610b6a565b6001600160a01b0316146112b05760405162461bcd60e51b815260206004820152602560248201527f4552433732313a207472616e736665722066726f6d20696e636f72726563742060448201527f6f776e65720000000000000000000000000000000000000000000000000000006064820152608401610630565b6001600160a01b03821661132b5760405162461bcd60e51b8152602060048201526024808201527f4552433732313a207472616e7366657220746f20746865207a65726f2061646460448201527f72657373000000000000000000000000000000000000000000000000000000006064820152608401610630565b6113366000826113fb565b6001600160a01b038316600090815260036020526040812080546001929061135f9084906127cd565b90915550506001600160a01b038216600090815260036020526040812080546001929061138d908490612786565b9091555050600081815260026020526040808220805473ffffffffffffffffffffffffffffffffffffffff19166001600160a01b0386811691821790925591518493918716917fddf252ad1be2c89b69c2b068fc378daa952ba7f163c4a11628f55a4df523b3ef91a4505050565b6000818152600460205260409020805473ffffffffffffffffffffffffffffffffffffffff19166001600160a01b038416908117909155819061143d82610b6a565b6001600160a01b03167f8c5be1e5ebec7d5bd14f71427d1e84f3dd0314c0f7b2291e5b200ac8c7c3b92560405160405180910390a45050565b6000818152600260205260408120546001600160a01b03166114ef5760405162461bcd60e51b815260206004820152602c60248201527f4552433732313a206f70657261746f7220717565727920666f72206e6f6e657860448201526b34b9ba32b73a103a37b5b2b760a11b6064820152608401610630565b60006114fa83610b6a565b9050806001600160a01b0316846001600160a01b031614806115355750836001600160a01b031661152a846105bb565b6001600160a01b0316145b80610ec257506001600160a01b0380821660009081526005602090815260408083209388168352929052205460ff16610ec2565b60008281526007602090815260408083206001600160a01b038516845290915290205460ff16610a65576115a7816001600160a01b03166014611a10565b6115b2836020611a10565b6040516020016115c39291906127e4565b60408051601f198184030181529082905262461bcd60e51b825261063091600401612457565b60008281526007602090815260408083206001600160a01b038516845290915290205460ff16610a655760008281526007602090815260408083206001600160a01b03851684529091529020805460ff191660011790556116473390565b6001600160a01b0316816001600160a01b0316837f2f8788117e7eff1d82e926ec794901d17c78024a50270940304540a733656f0d60405160405180910390a45050565b60008281526007602090815260408083206001600160a01b038516845290915290205460ff1615610a655760008281526007602090815260408083206001600160a01b0385168085529252808320805460ff1916905551339285917ff6391f5c32d9c69d2a47ea670b442974b53935d1edc7fd64eb21e047a839171b9190a45050565b816001600160a01b0316836001600160a01b031614156117705760405162461bcd60e51b815260206004820152601960248201527f4552433732313a20617070726f766520746f2063616c6c6572000000000000006044820152606401610630565b6001600160a01b03838116600081815260056020908152604080832094871680845294825291829020805460ff191686151590811790915591519182527f17307eab39ab6107e8899845ad3d59bd9653f200f220920489ca2b5937696c31910160405180910390a3505050565b6117e8848484611221565b6117f484848484611bd5565b610d315760405162461bcd60e51b815260206004820152603260248201527f4552433732313a207472616e7366657220746f206e6f6e20455243373231526560448201527f63656976657220696d706c656d656e74657200000000000000000000000000006064820152608401610630565b6000818152600260205260409020546060906001600160a01b03166118f35760405162461bcd60e51b815260206004820152602f60248201527f4552433732314d657461646174613a2055524920717565727920666f72206e6f60448201527f6e6578697374656e7420746f6b656e00000000000000000000000000000000006064820152608401610630565b600061190a60408051602081019091526000815290565b9050600081511161192a5760405180602001604052806000815250611022565b8061193484611d38565b60405160200161194592919061279e565b6040516020818303038152906040529392505050565b60006105237f6316f9ddd4d59a364f3b95c26bab9d392c3380ace0fff15e91ed76f0d8bcd15a833560208501356119956040870187612729565b6040516119a3929190612865565b6040519081900381206119d19493929160200193845260208401929092526040830152606082015260800190565b60405160208183030381529060405280519060200120611e36565b60008060006119fb8585611e9f565b91509150611a0881611f0f565b509392505050565b60606000611a1f836002612875565b611a2a906002612786565b67ffffffffffffffff811115611a4257611a426125d2565b6040519080825280601f01601f191660200182016040528015611a6c576020820181803683370190505b509050600360fc1b81600081518110611a8757611a87612894565b60200101906001600160f81b031916908160001a9053507f780000000000000000000000000000000000000000000000000000000000000081600181518110611ad257611ad2612894565b60200101906001600160f81b031916908160001a9053506000611af6846002612875565b611b01906001612786565b90505b6001811115611b86577f303132333435363738396162636465660000000000000000000000000000000085600f1660108110611b4257611b42612894565b1a60f81b828281518110611b5857611b58612894565b60200101906001600160f81b031916908160001a90535060049490941c93611b7f816128aa565b9050611b04565b5083156110225760405162461bcd60e51b815260206004820181905260248201527f537472696e67733a20686578206c656e67746820696e73756666696369656e746044820152606401610630565b60006001600160a01b0384163b15611d2d57604051630a85bd0160e11b81526001600160a01b0385169063150b7a0290611c199033908990889088906004016128c1565b602060405180830381600087803b158015611c3357600080fd5b505af1925050508015611c63575060408051601f3d908101601f19168201909252611c60918101906128fd565b60015b611d13573d808015611c91576040519150601f19603f3d011682016040523d82523d6000602084013e611c96565b606091505b508051611d0b5760405162461bcd60e51b815260206004820152603260248201527f4552433732313a207472616e7366657220746f206e6f6e20455243373231526560448201527f63656976657220696d706c656d656e74657200000000000000000000000000006064820152608401610630565b805181602001fd5b6001600160e01b031916630a85bd0160e11b149050610ec2565b506001949350505050565b606081611d5c5750506040805180820190915260018152600360fc1b602082015290565b8160005b8115611d865780611d708161291a565b9150611d7f9050600a8361294b565b9150611d60565b60008167ffffffffffffffff811115611da157611da16125d2565b6040519080825280601f01601f191660200182016040528015611dcb576020820181803683370190505b5090505b8415610ec257611de06001836127cd565b9150611ded600a8661295f565b611df8906030612786565b60f81b818381518110611e0d57611e0d612894565b60200101906001600160f81b031916908160001a905350611e2f600a8661294b565b9450611dcf565b6000610523611e436120cd565b836040517f19010000000000000000000000000000000000000000000000000000000000006020820152602281018390526042810182905260009060620160405160208183030381529060405280519060200120905092915050565b600080825160411415611ed65760208301516040840151606085015160001a611eca878285856121f4565b94509450505050611f08565b825160401415611f005760208301516040840151611ef58683836122e1565b935093505050611f08565b506000905060025b9250929050565b6000816004811115611f2357611f23612973565b1415611f2c5750565b6001816004811115611f4057611f40612973565b1415611f8e5760405162461bcd60e51b815260206004820152601860248201527f45434453413a20696e76616c6964207369676e617475726500000000000000006044820152606401610630565b6002816004811115611fa257611fa2612973565b1415611ff05760405162461bcd60e51b815260206004820152601f60248201527f45434453413a20696e76616c6964207369676e6174757265206c656e677468006044820152606401610630565b600381600481111561200457612004612973565b141561205d5760405162461bcd60e51b815260206004820152602260248201527f45434453413a20696e76616c6964207369676e6174757265202773272076616c604482015261756560f01b6064820152608401610630565b600481600481111561207157612071612973565b14156120ca5760405162461bcd60e51b815260206004820152602260248201527f45434453413a20696e76616c6964207369676e6174757265202776272076616c604482015261756560f01b6064820152608401610630565b50565b6000306001600160a01b037f00000000000000000000000000000000000000000000000000000000000000001614801561212657507f000000000000000000000000000000000000000000000000000000000000000046145b1561215057507f000000000000000000000000000000000000000000000000000000000000000090565b50604080517f00000000000000000000000000000000000000000000000000000000000000006020808301919091527f0000000000000000000000000000000000000000000000000000000000000000828401527f000000000000000000000000000000000000000000000000000000000000000060608301524660808301523060a0808401919091528351808403909101815260c0909201909252805191012090565b6000807f7fffffffffffffffffffffffffffffff5d576e7357a4501ddfe92f46681b20a083111561222b57506000905060036122d8565b8460ff16601b1415801561224357508460ff16601c14155b1561225457506000905060046122d8565b6040805160008082526020820180845289905260ff881692820192909252606081018690526080810185905260019060a0016020604051602081039080840390855afa1580156122a8573d6000803e3d6000fd5b5050604051601f1901519150506001600160a01b0381166122d1576000600192509250506122d8565b9150600090505b94509492505050565b6000807f7fffffffffffffffffffffffffffffffffffffffffffffffffffffffffffffff83168161231760ff86901c601b612786565b9050612325878288856121f4565b935093505050935093915050565b82805461233f906126ee565b90600052602060002090601f01602090048101928261236157600085556123a7565b82601f1061237a57805160ff19168380011785556123a7565b828001600101855582156123a7579182015b828111156123a757825182559160200191906001019061238c565b506123b39291506123b7565b5090565b5b808211156123b357600081556001016123b8565b6001600160e01b0319811681146120ca57600080fd5b6000602082840312156123f457600080fd5b8135611022816123cc565b60005b8381101561241a578181015183820152602001612402565b83811115610d315750506000910152565b600081518084526124438160208601602086016123ff565b601f01601f19169290920160200192915050565b602081526000611022602083018461242b565b60006020828403121561247c57600080fd5b5035919050565b80356001600160a01b038116811461249a57600080fd5b919050565b600080604083850312156124b257600080fd5b6124bb83612483565b9150602083013567ffffffffffffffff8111156124d757600080fd5b8301608081860312156124e957600080fd5b809150509250929050565b6000806040838503121561250757600080fd5b61251083612483565b946020939093013593505050565b60008060006060848603121561253357600080fd5b61253c84612483565b925061254a60208501612483565b9150604084013590509250925092565b6000806040838503121561256d57600080fd5b8235915061257d60208401612483565b90509250929050565b60006020828403121561259857600080fd5b61102282612483565b600080604083850312156125b457600080fd5b6125bd83612483565b9150602083013580151581146124e957600080fd5b634e487b7160e01b600052604160045260246000fd5b600080600080608085870312156125fe57600080fd5b61260785612483565b935061261560208601612483565b925060408501359150606085013567ffffffffffffffff8082111561263957600080fd5b818701915087601f83011261264d57600080fd5b81358181111561265f5761265f6125d2565b604051601f8201601f19908116603f01168101908382118183101715612687576126876125d2565b816040528281528a60208487010111156126a057600080fd5b82602086016020830137600060208483010152809550505050505092959194509250565b600080604083850312156126d757600080fd5b6126e083612483565b915061257d60208401612483565b600181811c9082168061270257607f821691505b6020821081141561272357634e487b7160e01b600052602260045260246000fd5b50919050565b6000808335601e1984360301811261274057600080fd5b83018035915067ffffffffffffffff82111561275b57600080fd5b602001915036819003821315611f0857600080fd5b634e487b7160e01b600052601160045260246000fd5b6000821982111561279957612799612770565b500190565b600083516127b08184602088016123ff565b8351908301906127c48183602088016123ff565b01949350505050565b6000828210156127df576127df612770565b500390565b7f416363657373436f6e74726f6c3a206163636f756e742000000000000000000081526000835161281c8160178501602088016123ff565b7f206973206d697373696e6720726f6c652000000000000000000000000000000060179184019182015283516128598160288401602088016123ff565b01602801949350505050565b8183823760009101908152919050565b600081600019048311821515161561288f5761288f612770565b500290565b634e487b7160e01b600052603260045260246000fd5b6000816128b9576128b9612770565b506000190190565b60006001600160a01b038087168352808616602084015250836040830152608060608301526128f3608083018461242b565b9695505050505050565b60006020828403121561290f57600080fd5b8151611022816123cc565b600060001982141561292e5761292e612770565b5060010190565b634e487b7160e01b600052601260045260246000fd5b60008261295a5761295a612935565b500490565b60008261296e5761296e612935565b500690565b634e487b7160e01b600052602160045260246000fdfea264697066735822122056881040f6221ac7f731206d91eb190472b39d49d27b1992db3d69fc596794fd64736f6c63430008080033",
  "linkReferences": {},
  "deployedLinkReferences": {}
}