{
  "_format": "hh-sol-artifact-1",
  "contractName": "ERC721Permit",
  "sourceName": "@soliditylabs/erc721-permit/contracts/ERC721Permit.sol",
  "abi": [
    {
      "inputs": [
        {
          "internalType": "string",
          "name": "name",
          "type": "string"
        },
        {
          "internalType": "string",
          "name": "symbol",
          "type": "string"
        }
      ],
      "stateMutability": "nonpayable",
      "type": "constructor"
    },
    {
      "anonymous": false,
      "inputs": [
        {
          "indexed": true,
          "internalType": "address",
          "name": "owner",
          "type": "address"
        },
        {
          "indexed": true,
          "internalType": "address",
          "name": "approved",
          "type": "address"
        },
        {
          "indexed": true,
          "internalType": "uint256",
          "name": "tokenId",
          "type": "uint256"
        }
      ],
      "name": "Approval",
      "type": "event"
    },
    {
      "anonymous": false,
      "inputs": [
        {
          "indexed": true,
          "internalType": "address",
          "name": "owner",
          "type": "address"
        },
        {
          "indexed": true,
          "internalType": "address",
          "name": "operator",
          "type": "address"
        },
        {
          "indexed": false,
          "internalType": "bool",
          "name": "approved",
          "type": "bool"
        }
      ],
      "name": "ApprovalForAll",
      "type": "event"
    },
    {
      "anonymous": false,
      "inputs": [
        {
          "indexed": true,
          "internalType": "address",
          "name": "from",
          "type": "address"
        },
        {
          "indexed": true,
          "internalType": "address",
          "name": "to",
          "type": "address"
        },
        {
          "indexed": true,
          "internalType": "uint256",
          "name": "tokenId",
          "type": "uint256"
        }
      ],
      "name": "Transfer",
      "type": "event"
    },
    {
      "inputs": [],
      "name": "DOMAIN_SEPARATOR",
      "outputs": [
        {
          "internalType": "bytes32",
          "name": "",
          "type": "bytes32"
        }
      ],
      "stateMutability": "view",
      "type": "function"
    },
    {
      "inputs": [
        {
          "internalType": "address",
          "name": "to",
          "type": "address"
        },
        {
          "internalType": "uint256",
          "name": "tokenId",
          "type": "uint256"
        }
      ],
      "name": "approve",
      "outputs": [],
      "stateMutability": "nonpayable",
      "type": "function"
    },
    {
      "inputs": [
        {
          "internalType": "address",
          "name": "owner",
          "type": "address"
        }
      ],
      "name": "balanceOf",
      "outputs": [
        {
          "internalType": "uint256",
          "name": "",
          "type": "uint256"
        }
      ],
      "stateMutability": "view",
      "type": "function"
    },
    {
      "inputs": [
        {
          "internalType": "uint256",
          "name": "tokenId",
          "type": "uint256"
        }
      ],
      "name": "getApproved",
      "outputs": [
        {
          "internalType": "address",
          "name": "",
          "type": "address"
        }
      ],
      "stateMutability": "view",
      "type": "function"
    },
    {
      "inputs": [
        {
          "internalType": "address",
          "name": "owner",
          "type": "address"
        },
        {
          "internalType": "address",
          "name": "operator",
          "type": "address"
        }
      ],
      "name": "isApprovedForAll",
      "outputs": [
        {
          "internalType": "bool",
          "name": "",
          "type": "bool"
        }
      ],
      "stateMutability": "view",
      "type": "function"
    },
    {
      "inputs": [],
      "name": "name",
      "outputs": [
        {
          "internalType": "string",
          "name": "",
          "type": "string"
        }
      ],
      "stateMutability": "view",
      "type": "function"
    },
    {
      "inputs": [
        {
          "internalType": "uint256",
          "name": "tokenId",
          "type": "uint256"
        }
      ],
      "name": "nonces",
      "outputs": [
        {
          "internalType": "uint256",
          "name": "",
          "type": "uint256"
        }
      ],
      "stateMutability": "view",
      "type": "function"
    },
    {
      "inputs": [
        {
          "internalType": "uint256",
          "name": "tokenId",
          "type": "uint256"
        }
      ],
      "name": "ownerOf",
      "outputs": [
        {
          "internalType": "address",
          "name": "",
          "type": "address"
        }
      ],
      "stateMutability": "view",
      "type": "function"
    },
    {
      "inputs": [
        {
          "internalType": "address",
          "name": "spender",
          "type": "address"
        },
        {
          "internalType": "uint256",
          "name": "tokenId",
          "type": "uint256"
        },
        {
          "internalType": "uint256",
          "name": "deadline",
          "type": "uint256"
        },
        {
          "internalType": "bytes",
          "name": "signature",
          "type": "bytes"
        }
      ],
      "name": "permit",
      "outputs": [],
      "stateMutability": "nonpayable",
      "type": "function"
    },
    {
      "inputs": [
        {
          "internalType": "address",
          "name": "from",
          "type": "address"
        },
        {
          "internalType": "address",
          "name": "to",
          "type": "address"
        },
        {
          "internalType": "uint256",
          "name": "tokenId",
          "type": "uint256"
        }
      ],
      "name": "safeTransferFrom",
      "outputs": [],
      "stateMutability": "nonpayable",
      "type": "function"
    },
    {
      "inputs": [
        {
          "internalType": "address",
          "name": "from",
          "type": "address"
        },
        {
          "internalType": "address",
          "name": "to",
          "type": "address"
        },
        {
          "internalType": "uint256",
          "name": "tokenId",
          "type": "uint256"
        },
        {
          "internalType": "bytes",
          "name": "_data",
          "type": "bytes"
        }
      ],
      "name": "safeTransferFrom",
      "outputs": [],
      "stateMutability": "nonpayable",
      "type": "function"
    },
    {
      "inputs": [
        {
          "internalType": "address",
          "name": "operator",
          "type": "address"
        },
        {
          "internalType": "bool",
          "name": "approved",
          "type": "bool"
        }
      ],
      "name": "setApprovalForAll",
      "outputs": [],
      "stateMutability": "nonpayable",
      "type": "function"
    },
    {
      "inputs": [
        {
          "internalType": "bytes4",
          "name": "interfaceId",
          "type": "bytes4"
        }
      ],
      "name": "supportsInterface",
      "outputs": [
        {
          "internalType": "bool",
          "name": "",
          "type": "bool"
        }
      ],
      "stateMutability": "view",
      "type": "function"
    },
    {
      "inputs": [],
      "name": "symbol",
      "outputs": [
        {
          "internalType": "string",
          "name": "",
          "type": "string"
        }
      ],
      "stateMutability": "view",
      "type": "function"
    },
    {
      "inputs": [
        {
          "internalType": "uint256",
          "name": "tokenId",
          "type": "uint256"
        }
      ],
      "name": "tokenURI",
      "outputs": [
        {
          "internalType": "string",
          "name": "",
          "type": "string"
        }
      ],
      "stateMutability": "view",
      "type": "function"
    },
    {
      "inputs": [
        {
          "internalType": "address",
          "name": "from",
          "type": "address"
        },
        {
          "internalType": "address",
          "name": "to",
          "type": "address"
        },
        {
          "internalType": "uint256",
          "name": "tokenId",
          "type": "uint256"
        }
      ],
      "name": "transferFrom",
      "outputs": [],
      "stateMutability": "nonpayable",
      "type": "function"
    }
  ],
  "bytecode": "0x6101606040527f49ecf333e5b8c95c40fdafc95c1ad136e8914a8fb55e9dc8bb01eaa83a2df9ad610140523480156200003757600080fd5b5060405162001f5438038062001f548339810160408190526200005a91620002b8565b81604051806040016040528060018152602001603160f81b815250838381600090805190602001906200008f92919062000145565b508051620000a590600190602084019062000145565b5050825160208085019190912083518483012060e08290526101008190524660a0818152604080517f8b73c3c69bb8fe3d512ecc4cf759cc79239f7b179b0ffacaa9a75d522b39400f81880181905281830187905260608201869052608082019490945230818401528151808203909301835260c0019052805194019390932091935091906080523060601b60c05261012052506200035f945050505050565b828054620001539062000322565b90600052602060002090601f016020900481019282620001775760008555620001c2565b82601f106200019257805160ff1916838001178555620001c2565b82800160010185558215620001c2579182015b82811115620001c2578251825591602001919060010190620001a5565b50620001d0929150620001d4565b5090565b5b80821115620001d05760008155600101620001d5565b634e487b7160e01b600052604160045260246000fd5b600082601f8301126200021357600080fd5b81516001600160401b0380821115620002305762000230620001eb565b604051601f8301601f19908116603f011681019082821181831017156200025b576200025b620001eb565b816040528381526020925086838588010111156200027857600080fd5b600091505b838210156200029c57858201830151818301840152908201906200027d565b83821115620002ae5760008385830101525b9695505050505050565b60008060408385031215620002cc57600080fd5b82516001600160401b0380821115620002e457600080fd5b620002f28683870162000201565b935060208501519150808211156200030957600080fd5b50620003188582860162000201565b9150509250929050565b600181811c908216806200033757607f821691505b602082108114156200035957634e487b7160e01b600052602260045260246000fd5b50919050565b60805160a05160c05160601c60e051610100516101205161014051611b97620003bd6000396000610c7b01526000610b7801526000610bc701526000610ba201526000610afb01526000610b2501526000610b4f0152611b976000f3fe608060405234801561001057600080fd5b50600436106101005760003560e01c80636352211e11610097578063a22cb46511610066578063a22cb46514610212578063b88d4fde14610225578063c87b56dd14610238578063e985e9c51461024b57600080fd5b80636352211e146101d157806370a08231146101e4578063745a41bc146101f757806395d89b411461020a57600080fd5b8063141a468c116100d3578063141a468c1461018257806323b872dd146101a35780633644e515146101b657806342842e0e146101be57600080fd5b806301ffc9a71461010557806306fdde031461012d578063081812fc14610142578063095ea7b31461016d575b600080fd5b6101186101133660046116be565b610287565b60405190151581526020015b60405180910390f35b6101356102cb565b6040516101249190611733565b610155610150366004611746565b61035d565b6040516001600160a01b039091168152602001610124565b61018061017b36600461177b565b6103f7565b005b610195610190366004611746565b610529565b604051908152602001610124565b6101806101b13660046117a5565b61053d565b6101956105c4565b6101806101cc3660046117a5565b6105d3565b6101556101df366004611746565b6105ee565b6101956101f23660046117e1565b610679565b61018061020536600461189f565b610713565b610135610725565b610180610220366004611900565b610734565b61018061023336600461193c565b610743565b610135610246366004611746565b6107cb565b61011861025936600461198c565b6001600160a01b03918216600090815260056020908152604080832093909416825291909152205460ff1690565b60006001600160e01b031982167f5604e2250000000000000000000000000000000000000000000000000000000014806102c557506102c5826108c1565b92915050565b6060600080546102da906119bf565b80601f0160208091040260200160405190810160405280929190818152602001828054610306906119bf565b80156103535780601f1061032857610100808354040283529160200191610353565b820191906000526020600020905b81548152906001019060200180831161033657829003601f168201915b5050505050905090565b6000818152600260205260408120546001600160a01b03166103db5760405162461bcd60e51b815260206004820152602c60248201527f4552433732313a20617070726f76656420717565727920666f72206e6f6e657860448201526b34b9ba32b73a103a37b5b2b760a11b60648201526084015b60405180910390fd5b506000908152600460205260409020546001600160a01b031690565b6000610402826105ee565b9050806001600160a01b0316836001600160a01b0316141561048c5760405162461bcd60e51b815260206004820152602160248201527f4552433732313a20617070726f76616c20746f2063757272656e74206f776e6560448201527f720000000000000000000000000000000000000000000000000000000000000060648201526084016103d2565b336001600160a01b03821614806104a857506104a88133610259565b61051a5760405162461bcd60e51b815260206004820152603860248201527f4552433732313a20617070726f76652063616c6c6572206973206e6f74206f7760448201527f6e6572206e6f7220617070726f76656420666f7220616c6c000000000000000060648201526084016103d2565b610524838361095c565b505050565b6000818152600660205260408120546102c5565b61054733826109d7565b6105b95760405162461bcd60e51b815260206004820152603160248201527f4552433732313a207472616e736665722063616c6c6572206973206e6f74206f60448201527f776e6572206e6f7220617070726f76656400000000000000000000000000000060648201526084016103d2565b610524838383610ace565b60006105ce610aee565b905090565b61052483838360405180602001604052806000815250610743565b6000818152600260205260408120546001600160a01b0316806102c55760405162461bcd60e51b815260206004820152602960248201527f4552433732313a206f776e657220717565727920666f72206e6f6e657869737460448201527f656e7420746f6b656e000000000000000000000000000000000000000000000060648201526084016103d2565b60006001600160a01b0382166106f75760405162461bcd60e51b815260206004820152602a60248201527f4552433732313a2062616c616e636520717565727920666f7220746865207a6560448201527f726f20616464726573730000000000000000000000000000000000000000000060648201526084016103d2565b506001600160a01b031660009081526003602052604090205490565b61071f84848484610c15565b50505050565b6060600180546102da906119bf565b61073f338383610da2565b5050565b61074d33836109d7565b6107bf5760405162461bcd60e51b815260206004820152603160248201527f4552433732313a207472616e736665722063616c6c6572206973206e6f74206f60448201527f776e6572206e6f7220617070726f76656400000000000000000000000000000060648201526084016103d2565b61071f84848484610e71565b6000818152600260205260409020546060906001600160a01b03166108585760405162461bcd60e51b815260206004820152602f60248201527f4552433732314d657461646174613a2055524920717565727920666f72206e6f60448201527f6e6578697374656e7420746f6b656e000000000000000000000000000000000060648201526084016103d2565b600061086f60408051602081019091526000815290565b9050600081511161088f57604051806020016040528060008152506108ba565b8061089984610efa565b6040516020016108aa9291906119fa565b6040516020818303038152906040525b9392505050565b60006001600160e01b031982167f80ac58cd00000000000000000000000000000000000000000000000000000000148061092457506001600160e01b031982167f5b5e139f00000000000000000000000000000000000000000000000000000000145b806102c557507f01ffc9a7000000000000000000000000000000000000000000000000000000006001600160e01b03198316146102c5565b6000818152600460205260409020805473ffffffffffffffffffffffffffffffffffffffff19166001600160a01b038416908117909155819061099e826105ee565b6001600160a01b03167f8c5be1e5ebec7d5bd14f71427d1e84f3dd0314c0f7b2291e5b200ac8c7c3b92560405160405180910390a45050565b6000818152600260205260408120546001600160a01b0316610a505760405162461bcd60e51b815260206004820152602c60248201527f4552433732313a206f70657261746f7220717565727920666f72206e6f6e657860448201526b34b9ba32b73a103a37b5b2b760a11b60648201526084016103d2565b6000610a5b836105ee565b9050806001600160a01b0316846001600160a01b03161480610a965750836001600160a01b0316610a8b8461035d565b6001600160a01b0316145b80610ac657506001600160a01b0380821660009081526005602090815260408083209388168352929052205460ff165b949350505050565b60008181526006602052604090208054600101905561052483838361102c565b6000306001600160a01b037f000000000000000000000000000000000000000000000000000000000000000016148015610b4757507f000000000000000000000000000000000000000000000000000000000000000046145b15610b7157507f000000000000000000000000000000000000000000000000000000000000000090565b50604080517f00000000000000000000000000000000000000000000000000000000000000006020808301919091527f0000000000000000000000000000000000000000000000000000000000000000828401527f000000000000000000000000000000000000000000000000000000000000000060608301524660808301523060a0808401919091528351808403909101815260c0909201909252805191012090565b81421115610c655760405162461bcd60e51b815260206004820152601e60248201527f4552433732315065726d69743a206578706972656420646561646c696e65000060448201526064016103d2565b60008381526006602090815260408083205481517f0000000000000000000000000000000000000000000000000000000000000000818501526001600160a01b0389168184015260608101889052608081019190915260a08082018790528251808303909101815260c0909101909152805191012090610ce482611206565b90506000610cf2828561126f565b50905060006001600160a01b03821615801590610d145750610d1482886109d7565b90508080610d305750610d30610d29886105ee565b84876112df565b80610d425750610d42610d298861035d565b610d8e5760405162461bcd60e51b815260206004820152601f60248201527f4552433732315065726d69743a20696e76616c6964207369676e61747572650060448201526064016103d2565b610d98888861095c565b5050505050505050565b816001600160a01b0316836001600160a01b03161415610e045760405162461bcd60e51b815260206004820152601960248201527f4552433732313a20617070726f766520746f2063616c6c65720000000000000060448201526064016103d2565b6001600160a01b03838116600081815260056020908152604080832094871680845294825291829020805460ff191686151590811790915591519182527f17307eab39ab6107e8899845ad3d59bd9653f200f220920489ca2b5937696c31910160405180910390a3505050565b610e7c848484610ace565b610e8884848484611403565b61071f5760405162461bcd60e51b815260206004820152603260248201527f4552433732313a207472616e7366657220746f206e6f6e20455243373231526560448201527f63656976657220696d706c656d656e746572000000000000000000000000000060648201526084016103d2565b606081610f3a57505060408051808201909152600181527f3000000000000000000000000000000000000000000000000000000000000000602082015290565b8160005b8115610f645780610f4e81611a3f565b9150610f5d9050600a83611a70565b9150610f3e565b60008167ffffffffffffffff811115610f7f57610f7f6117fc565b6040519080825280601f01601f191660200182016040528015610fa9576020820181803683370190505b5090505b8415610ac657610fbe600183611a84565b9150610fcb600a86611a9b565b610fd6906030611aaf565b60f81b818381518110610feb57610feb611ac7565b60200101907effffffffffffffffffffffffffffffffffffffffffffffffffffffffffffff1916908160001a905350611025600a86611a70565b9450610fad565b826001600160a01b031661103f826105ee565b6001600160a01b0316146110bb5760405162461bcd60e51b815260206004820152602560248201527f4552433732313a207472616e736665722066726f6d20696e636f72726563742060448201527f6f776e657200000000000000000000000000000000000000000000000000000060648201526084016103d2565b6001600160a01b0382166111365760405162461bcd60e51b8152602060048201526024808201527f4552433732313a207472616e7366657220746f20746865207a65726f2061646460448201527f726573730000000000000000000000000000000000000000000000000000000060648201526084016103d2565b61114160008261095c565b6001600160a01b038316600090815260036020526040812080546001929061116a908490611a84565b90915550506001600160a01b0382166000908152600360205260408120805460019290611198908490611aaf565b9091555050600081815260026020526040808220805473ffffffffffffffffffffffffffffffffffffffff19166001600160a01b0386811691821790925591518493918716917fddf252ad1be2c89b69c2b068fc378daa952ba7f163c4a11628f55a4df523b3ef91a4505050565b60006102c5611213610aee565b836040517f19010000000000000000000000000000000000000000000000000000000000006020820152602281018390526042810182905260009060620160405160208183030381529060405280519060200120905092915050565b6000808251604114156112a65760208301516040840151606085015160001a61129a87828585611566565b945094505050506112d8565b8251604014156112d057602083015160408401516112c5868383611653565b9350935050506112d8565b506000905060025b9250929050565b6000806000856001600160a01b0316631626ba7e60e01b8686604051602401611309929190611add565b60408051601f198184030181529181526020820180517bffffffffffffffffffffffffffffffffffffffffffffffffffffffff166001600160e01b031990941693909317909252905161135c9190611af6565b600060405180830381855afa9150503d8060008114611397576040519150601f19603f3d011682016040523d82523d6000602084013e61139c565b606091505b50915091508180156113af575080516020145b80156113f9575080517f1626ba7e00000000000000000000000000000000000000000000000000000000906113ed9083016020908101908401611b12565b6001600160e01b031916145b9695505050505050565b60006001600160a01b0384163b1561155b57604051630a85bd0160e11b81526001600160a01b0385169063150b7a0290611447903390899088908890600401611b2f565b602060405180830381600087803b15801561146157600080fd5b505af1925050508015611491575060408051601f3d908101601f1916820190925261148e91810190611b12565b60015b611541573d8080156114bf576040519150601f19603f3d011682016040523d82523d6000602084013e6114c4565b606091505b5080516115395760405162461bcd60e51b815260206004820152603260248201527f4552433732313a207472616e7366657220746f206e6f6e20455243373231526560448201527f63656976657220696d706c656d656e746572000000000000000000000000000060648201526084016103d2565b805181602001fd5b6001600160e01b031916630a85bd0160e11b149050610ac6565b506001949350505050565b6000807f7fffffffffffffffffffffffffffffff5d576e7357a4501ddfe92f46681b20a083111561159d575060009050600361164a565b8460ff16601b141580156115b557508460ff16601c14155b156115c6575060009050600461164a565b6040805160008082526020820180845289905260ff881692820192909252606081018690526080810185905260019060a0016020604051602081039080840390855afa15801561161a573d6000803e3d6000fd5b5050604051601f1901519150506001600160a01b0381166116435760006001925092505061164a565b9150600090505b94509492505050565b6000807f7fffffffffffffffffffffffffffffffffffffffffffffffffffffffffffffff83168161168960ff86901c601b611aaf565b905061169787828885611566565b935093505050935093915050565b6001600160e01b0319811681146116bb57600080fd5b50565b6000602082840312156116d057600080fd5b81356108ba816116a5565b60005b838110156116f65781810151838201526020016116de565b8381111561071f5750506000910152565b6000815180845261171f8160208601602086016116db565b601f01601f19169290920160200192915050565b6020815260006108ba6020830184611707565b60006020828403121561175857600080fd5b5035919050565b80356001600160a01b038116811461177657600080fd5b919050565b6000806040838503121561178e57600080fd5b6117978361175f565b946020939093013593505050565b6000806000606084860312156117ba57600080fd5b6117c38461175f565b92506117d16020850161175f565b9150604084013590509250925092565b6000602082840312156117f357600080fd5b6108ba8261175f565b634e487b7160e01b600052604160045260246000fd5b600082601f83011261182357600080fd5b813567ffffffffffffffff8082111561183e5761183e6117fc565b604051601f8301601f19908116603f01168101908282118183101715611866576118666117fc565b8160405283815286602085880101111561187f57600080fd5b836020870160208301376000602085830101528094505050505092915050565b600080600080608085870312156118b557600080fd5b6118be8561175f565b93506020850135925060408501359150606085013567ffffffffffffffff8111156118e857600080fd5b6118f487828801611812565b91505092959194509250565b6000806040838503121561191357600080fd5b61191c8361175f565b91506020830135801515811461193157600080fd5b809150509250929050565b6000806000806080858703121561195257600080fd5b61195b8561175f565b93506119696020860161175f565b925060408501359150606085013567ffffffffffffffff8111156118e857600080fd5b6000806040838503121561199f57600080fd5b6119a88361175f565b91506119b66020840161175f565b90509250929050565b600181811c908216806119d357607f821691505b602082108114156119f457634e487b7160e01b600052602260045260246000fd5b50919050565b60008351611a0c8184602088016116db565b835190830190611a208183602088016116db565b01949350505050565b634e487b7160e01b600052601160045260246000fd5b6000600019821415611a5357611a53611a29565b5060010190565b634e487b7160e01b600052601260045260246000fd5b600082611a7f57611a7f611a5a565b500490565b600082821015611a9657611a96611a29565b500390565b600082611aaa57611aaa611a5a565b500690565b60008219821115611ac257611ac2611a29565b500190565b634e487b7160e01b600052603260045260246000fd5b828152604060208201526000610ac66040830184611707565b60008251611b088184602087016116db565b9190910192915050565b600060208284031215611b2457600080fd5b81516108ba816116a5565b60006001600160a01b038087168352808616602084015250836040830152608060608301526113f9608083018461170756fea264697066735822122066d261eb54af49dd5deb99606bca61d75e47fdfeae6cd2efd775cef77fc8a19064736f6c63430008080033",
  "linkReferences": {},
  "deployedLinkReferences": {}
}