{
  "_format": "hh-sol-artifact-1",
  "contractName": "StokeMarketplace",
  "sourceName": "contracts/StokeMarketPlace.sol",
  "abi": [
    {
      "inputs": [],
      "stateMutability": "nonpayable",
      "type": "constructor"
    },
    {
      "inputs": [
        {
          "components": [
            {
              "internalType": "address",
              "name": "sender",
              "type": "address"
            },
            {
              "internalType": "uint256",
              "name": "amount",
              "type": "uint256"
            },
            {
              "internalType": "uint256",
              "name": "expiresAt",
              "type": "uint256"
            }
          ],
          "internalType": "struct StokeMarketplace.Offer",
          "name": "offer",
          "type": "tuple"
        },
        {
          "internalType": "address",
          "name": "WETH",
          "type": "address"
        },
        {
          "internalType": "address",
          "name": "_nftContract",
          "type": "address"
        },
        {
          "components": [
            {
              "internalType": "uint256",
              "name": "tokenId",
              "type": "uint256"
            },
            {
              "internalType": "string",
              "name": "tokenURI",
              "type": "string"
            }
          ],
          "internalType": "struct StokeMarketplace.Token",
          "name": "token",
          "type": "tuple"
        }
      ],
      "name": "accept",
      "outputs": [],
      "stateMutability": "nonpayable",
      "type": "function"
    },
    {
      "inputs": [
        {
          "internalType": "address payable",
          "name": "_recipient",
          "type": "address"
        },
        {
          "internalType": "uint256",
          "name": "_tokenId",
          "type": "uint256"
        },
        {
          "internalType": "address",
          "name": "_nftContract",
          "type": "address"
        }
      ],
      "name": "buyOrder",
      "outputs": [],
      "stateMutability": "payable",
      "type": "function"
    },
    {
      "inputs": [],
      "name": "marketowner",
      "outputs": [
        {
          "internalType": "address payable",
          "name": "",
          "type": "address"
        }
      ],
      "stateMutability": "view",
      "type": "function"
    }
  ],
  "bytecode": "0x608060405234801561001057600080fd5b506001600055600280546001600160a01b03191633179055610c23806100376000396000f3fe6080604052600436106100345760003560e01c806321c0320d14610039578063586351621461004e5780635e385b921461006e575b600080fd5b61004c61004736600461086d565b6100aa565b005b34801561005a57600080fd5b5061004c6100693660046109c7565b610262565b34801561007a57600080fd5b5060025461008e906001600160a01b031681565b6040516001600160a01b03909116815260200160405180910390f35b6040517f081812fc0000000000000000000000000000000000000000000000000000000081526004810183905230906001600160a01b0383169063081812fc9060240160206040518083038186803b15801561010557600080fd5b505afa158015610119573d6000803e3d6000fd5b505050506040513d601f19601f8201168201806040525081019061013d9190610a8e565b6001600160a01b0316146101be5760405162461bcd60e51b815260206004820152603660248201527f4d61726b6574506c6163653a2054686520746f6b656e206d757374206265206160448201527f7070726f76656420746f206d61726b6574706c6163650000000000000000000060648201526084015b60405180910390fd5b6040516323b872dd60e01b81526001600160a01b038481166004830152336024830152604482018490528216906323b872dd90606401600060405180830381600087803b15801561020e57600080fd5b505af1158015610222573d6000803e3d6000fd5b50506040516001600160a01b03861692503480156108fc029250906000818181858888f1935050505015801561025c573d6000803e3d6000fd5b50505050565b42846040015110156102b65760405162461bcd60e51b815260206004820152601e60248201527f4d61726b6574506c6163653a20746865206f666665722065787069726564000060448201526064016101b5565b60208401516019906103e89060009082906102d2908590610ac8565b6102dc9190610ae7565b87516040517f70a082310000000000000000000000000000000000000000000000000000000081526001600160a01b039182166004820152919250600091908816906370a082319060240160206040518083038186803b15801561033f57600080fd5b505afa158015610353573d6000803e3d6000fd5b505050506040513d601f19601f820116820180604052508101906103779190610b09565b905087602001518110156103f35760405162461bcd60e51b815260206004820152602e60248201527f4d61726b6574506c6163653a204f666665722073656e64657220686173206e6f60448201527f20656e6f7567687420746f6b656e00000000000000000000000000000000000060648201526084016101b5565b875160208901516040516001600160a01b039283166024820152306044820152606481019190915260009189169060840160408051601f198184030181529181526020820180516001600160e01b03167f104e81ff00000000000000000000000000000000000000000000000000000000179052516104729190610b4e565b6000604051808303816000865af19150503d80600081146104af576040519150601f19603f3d011682016040523d82523d6000602084013e6104b4565b606091505b505090506104c1816107da565b6000876001600160a01b031687600001518b6000015189602001516040516024016104ee93929190610b6a565b60408051601f198184030181529181526020820180516001600160e01b03167fd9b38c51000000000000000000000000000000000000000000000000000000001790525161053c9190610b4e565b6000604051808303816000865af19150503d8060008114610579576040519150601f19603f3d011682016040523d82523d6000602084013e61057e565b606091505b5050905061058b816107da565b60208a01518a516040517fdd62ed3e0000000000000000000000000000000000000000000000000000000081526001600160a01b039182166004820152306024820152908b169063dd62ed3e9060440160206040518083038186803b1580156105f357600080fd5b505afa158015610607573d6000803e3d6000fd5b505050506040513d601f19601f8201168201806040525081019061062b9190610b09565b146106785760405162461bcd60e51b815260206004820152601360248201527f696e73756666696369656e7420616d6f756e740000000000000000000000000060448201526064016101b5565b886001600160a01b03166323b872dd8b6000015133878e6020015161069d9190610bb4565b6040517fffffffff0000000000000000000000000000000000000000000000000000000060e086901b1681526001600160a01b0393841660048201529290911660248301526044820152606401602060405180830381600087803b15801561070457600080fd5b505af1158015610718573d6000803e3d6000fd5b505050506040513d601f19601f8201168201806040525081019061073c9190610bcb565b5089516002546040516323b872dd60e01b81526001600160a01b039283166004820152908216602482015260448101869052908a16906323b872dd90606401602060405180830381600087803b15801561079557600080fd5b505af11580156107a9573d6000803e3d6000fd5b505050506040513d601f19601f820116820180604052508101906107cd9190610bcb565b5050505050505050505050565b60405181151560248201526108349060440160408051601f198184030181529190526020810180516001600160e01b03167f32458eed00000000000000000000000000000000000000000000000000000000179052610837565b50565b80516a636f6e736f6c652e6c6f67602083016000808483855afa5050505050565b6001600160a01b038116811461083457600080fd5b60008060006060848603121561088257600080fd5b833561088d81610858565b92506020840135915060408401356108a481610858565b809150509250925092565b634e487b7160e01b600052604160045260246000fd5b6040805190810167ffffffffffffffff811182821017156108e8576108e86108af565b60405290565b604051601f8201601f1916810167ffffffffffffffff81118282101715610917576109176108af565b604052919050565b60006040828403121561093157600080fd5b6109396108c5565b90508135815260208083013567ffffffffffffffff8082111561095b57600080fd5b818501915085601f83011261096f57600080fd5b813581811115610981576109816108af565b610993601f8201601f191685016108ee565b915080825286848285010111156109a957600080fd5b80848401858401376000908201840152918301919091525092915050565b60008060008084860360c08112156109de57600080fd5b60608112156109ec57600080fd5b506040516060810167ffffffffffffffff8282108183111715610a1157610a116108af565b8160405287359150610a2282610858565b818352602088013560208401526040880135604084015282965060608801359250610a4c83610858565b919450608087013591610a5e83610858565b91935060a08701359180831115610a7457600080fd5b5050610a828782880161091f565b91505092959194509250565b600060208284031215610aa057600080fd5b8151610aab81610858565b9392505050565b634e487b7160e01b600052601160045260246000fd5b6000816000190483118215151615610ae257610ae2610ab2565b500290565b600082610b0457634e487b7160e01b600052601260045260246000fd5b500490565b600060208284031215610b1b57600080fd5b5051919050565b60005b83811015610b3d578181015183820152602001610b25565b8381111561025c5750506000910152565b60008251610b60818460208701610b22565b9190910192915050565b8381526001600160a01b03831660208201526060604082015260008251806060840152610b9e816080850160208701610b22565b601f01601f191691909101608001949350505050565b600082821015610bc657610bc6610ab2565b500390565b600060208284031215610bdd57600080fd5b81518015158114610aab57600080fdfea2646970667358221220862b6febbf62ace06a3df6d3e1d3817144046a4ffe26c1d0d49cc14877895bcb64736f6c63430008080033",
  "linkReferences": {},
  "deployedLinkReferences": {}
}