{
  "_format": "hh-sol-artifact-1",
  "contractName": "StokeMarketplace",
  "sourceName": "contracts/StokeMarketPlace.sol",
  "abi": [
    {
      "inputs": [],
      "stateMutability": "nonpayable",
      "type": "constructor"
    },
    {
      "anonymous": false,
      "inputs": [
        {
          "indexed": true,
          "internalType": "address",
          "name": "previousOwner",
          "type": "address"
        },
        {
          "indexed": true,
          "internalType": "address",
          "name": "newOwner",
          "type": "address"
        }
      ],
      "name": "OwnershipTransferred",
      "type": "event"
    },
    {
      "inputs": [
        {
          "components": [
            {
              "internalType": "address",
              "name": "sender",
              "type": "address"
            },
            {
              "internalType": "uint256",
              "name": "amount",
              "type": "uint256"
            },
            {
              "internalType": "uint256",
              "name": "expiresAt",
              "type": "uint256"
            }
          ],
          "internalType": "struct StokeMarketplace.Offer",
          "name": "offer",
          "type": "tuple"
        },
        {
          "internalType": "address",
          "name": "WETH",
          "type": "address"
        },
        {
          "internalType": "address",
          "name": "_nftContract",
          "type": "address"
        },
        {
          "components": [
            {
              "internalType": "uint256",
              "name": "tokenId",
              "type": "uint256"
            },
            {
              "internalType": "string",
              "name": "tokenURI",
              "type": "string"
            }
          ],
          "internalType": "struct StokeMarketplace.Token",
          "name": "token",
          "type": "tuple"
        }
      ],
      "name": "accept",
      "outputs": [],
      "stateMutability": "nonpayable",
      "type": "function"
    },
    {
      "inputs": [
        {
          "internalType": "uint256",
          "name": "_tokenId",
          "type": "uint256"
        }
      ],
      "name": "auctionDetail",
      "outputs": [
        {
          "internalType": "uint256",
          "name": "",
          "type": "uint256"
        },
        {
          "internalType": "address",
          "name": "",
          "type": "address"
        }
      ],
      "stateMutability": "view",
      "type": "function"
    },
    {
      "inputs": [],
      "name": "auctionFee",
      "outputs": [
        {
          "internalType": "uint256",
          "name": "",
          "type": "uint256"
        }
      ],
      "stateMutability": "view",
      "type": "function"
    },
    {
      "inputs": [
        {
          "internalType": "uint256",
          "name": "",
          "type": "uint256"
        }
      ],
      "name": "auctionSaleNftList",
      "outputs": [
        {
          "internalType": "uint256",
          "name": "",
          "type": "uint256"
        }
      ],
      "stateMutability": "view",
      "type": "function"
    },
    {
      "inputs": [
        {
          "internalType": "uint256",
          "name": "_tokenId",
          "type": "uint256"
        }
      ],
      "name": "buyAuction",
      "outputs": [],
      "stateMutability": "payable",
      "type": "function"
    },
    {
      "inputs": [
        {
          "internalType": "uint256",
          "name": "_tokenId",
          "type": "uint256"
        },
        {
          "internalType": "address",
          "name": "_nftContract",
          "type": "address"
        }
      ],
      "name": "buyNft",
      "outputs": [],
      "stateMutability": "payable",
      "type": "function"
    },
    {
      "inputs": [
        {
          "internalType": "address payable",
          "name": "_recipient",
          "type": "address"
        },
        {
          "internalType": "uint256",
          "name": "_tokenId",
          "type": "uint256"
        },
        {
          "internalType": "address",
          "name": "_nftContract",
          "type": "address"
        }
      ],
      "name": "buyOrder",
      "outputs": [],
      "stateMutability": "payable",
      "type": "function"
    },
    {
      "inputs": [
        {
          "internalType": "uint256",
          "name": "_tokenId",
          "type": "uint256"
        },
        {
          "internalType": "address",
          "name": "_nftContract",
          "type": "address"
        }
      ],
      "name": "cancelFixedSale",
      "outputs": [],
      "stateMutability": "nonpayable",
      "type": "function"
    },
    {
      "inputs": [
        {
          "internalType": "uint256",
          "name": "",
          "type": "uint256"
        },
        {
          "internalType": "uint256",
          "name": "",
          "type": "uint256"
        }
      ],
      "name": "collectionStored",
      "outputs": [
        {
          "internalType": "uint256",
          "name": "",
          "type": "uint256"
        }
      ],
      "stateMutability": "view",
      "type": "function"
    },
    {
      "inputs": [],
      "name": "fixedFee",
      "outputs": [
        {
          "internalType": "uint256",
          "name": "",
          "type": "uint256"
        }
      ],
      "stateMutability": "view",
      "type": "function"
    },
    {
      "inputs": [
        {
          "internalType": "uint256",
          "name": "",
          "type": "uint256"
        }
      ],
      "name": "fixedSaleNftList",
      "outputs": [
        {
          "internalType": "uint256",
          "name": "",
          "type": "uint256"
        }
      ],
      "stateMutability": "view",
      "type": "function"
    },
    {
      "inputs": [
        {
          "internalType": "uint256[]",
          "name": "_tokenIds",
          "type": "uint256[]"
        },
        {
          "internalType": "uint256[]",
          "name": "_prices",
          "type": "uint256[]"
        },
        {
          "internalType": "uint256[]",
          "name": "_startTimes",
          "type": "uint256[]"
        },
        {
          "internalType": "uint256[]",
          "name": "_endTimes",
          "type": "uint256[]"
        },
        {
          "internalType": "address[]",
          "name": "_nftContracts",
          "type": "address[]"
        }
      ],
      "name": "fixedSales",
      "outputs": [],
      "stateMutability": "nonpayable",
      "type": "function"
    },
    {
      "inputs": [
        {
          "internalType": "uint256",
          "name": "_tokenId",
          "type": "uint256"
        }
      ],
      "name": "listfixedSaleNfts",
      "outputs": [
        {
          "internalType": "uint256[]",
          "name": "",
          "type": "uint256[]"
        },
        {
          "internalType": "uint256[]",
          "name": "",
          "type": "uint256[]"
        },
        {
          "internalType": "uint256",
          "name": "",
          "type": "uint256"
        },
        {
          "internalType": "uint256",
          "name": "",
          "type": "uint256"
        }
      ],
      "stateMutability": "view",
      "type": "function"
    },
    {
      "inputs": [],
      "name": "marketOwner",
      "outputs": [
        {
          "internalType": "address payable",
          "name": "",
          "type": "address"
        }
      ],
      "stateMutability": "view",
      "type": "function"
    },
    {
      "inputs": [
        {
          "internalType": "uint256",
          "name": "",
          "type": "uint256"
        }
      ],
      "name": "nftCollectionId",
      "outputs": [
        {
          "internalType": "uint256",
          "name": "",
          "type": "uint256"
        }
      ],
      "stateMutability": "view",
      "type": "function"
    },
    {
      "inputs": [
        {
          "internalType": "uint256",
          "name": "",
          "type": "uint256"
        }
      ],
      "name": "nftStakeState",
      "outputs": [
        {
          "internalType": "bool",
          "name": "",
          "type": "bool"
        }
      ],
      "stateMutability": "view",
      "type": "function"
    },
    {
      "inputs": [
        {
          "internalType": "uint256",
          "name": "",
          "type": "uint256"
        }
      ],
      "name": "originalOwner",
      "outputs": [
        {
          "internalType": "address",
          "name": "",
          "type": "address"
        }
      ],
      "stateMutability": "view",
      "type": "function"
    },
    {
      "inputs": [],
      "name": "owner",
      "outputs": [
        {
          "internalType": "address",
          "name": "",
          "type": "address"
        }
      ],
      "stateMutability": "view",
      "type": "function"
    },
    {
      "inputs": [
        {
          "internalType": "uint256",
          "name": "_tokenId",
          "type": "uint256"
        },
        {
          "internalType": "address",
          "name": "_nftContract",
          "type": "address"
        }
      ],
      "name": "removeFromAuction",
      "outputs": [],
      "stateMutability": "nonpayable",
      "type": "function"
    },
    {
      "inputs": [],
      "name": "renounceOwnership",
      "outputs": [],
      "stateMutability": "nonpayable",
      "type": "function"
    },
    {
      "inputs": [
        {
          "internalType": "uint256",
          "name": "_auctionFee",
          "type": "uint256"
        }
      ],
      "name": "setAuctionFee",
      "outputs": [
        {
          "internalType": "uint256",
          "name": "",
          "type": "uint256"
        }
      ],
      "stateMutability": "nonpayable",
      "type": "function"
    },
    {
      "inputs": [
        {
          "internalType": "uint256",
          "name": "_fixedFee",
          "type": "uint256"
        }
      ],
      "name": "setFixedFee",
      "outputs": [],
      "stateMutability": "nonpayable",
      "type": "function"
    },
    {
      "inputs": [
        {
          "internalType": "uint256[]",
          "name": "_tokenIds",
          "type": "uint256[]"
        },
        {
          "internalType": "bool[]",
          "name": "_methods",
          "type": "bool[]"
        },
        {
          "internalType": "uint256[]",
          "name": "_startPrices",
          "type": "uint256[]"
        },
        {
          "internalType": "uint256[]",
          "name": "_endPrices",
          "type": "uint256[]"
        },
        {
          "internalType": "uint256[]",
          "name": "_startTimes",
          "type": "uint256[]"
        },
        {
          "internalType": "uint256[]",
          "name": "_endTimes",
          "type": "uint256[]"
        },
        {
          "internalType": "address[]",
          "name": "_nftContracts",
          "type": "address[]"
        }
      ],
      "name": "startAuction",
      "outputs": [],
      "stateMutability": "nonpayable",
      "type": "function"
    },
    {
      "inputs": [
        {
          "internalType": "uint256",
          "name": "_tokenId",
          "type": "uint256"
        }
      ],
      "name": "timing",
      "outputs": [
        {
          "internalType": "uint256",
          "name": "",
          "type": "uint256"
        }
      ],
      "stateMutability": "view",
      "type": "function"
    },
    {
      "inputs": [],
      "name": "tokenIdMint",
      "outputs": [
        {
          "internalType": "uint256",
          "name": "",
          "type": "uint256"
        }
      ],
      "stateMutability": "view",
      "type": "function"
    },
    {
      "inputs": [
        {
          "internalType": "address",
          "name": "",
          "type": "address"
        }
      ],
      "name": "totalCollection",
      "outputs": [
        {
          "internalType": "uint256",
          "name": "",
          "type": "uint256"
        }
      ],
      "stateMutability": "view",
      "type": "function"
    },
    {
      "inputs": [
        {
          "internalType": "uint256",
          "name": "",
          "type": "uint256"
        }
      ],
      "name": "totalNft",
      "outputs": [
        {
          "internalType": "uint256",
          "name": "",
          "type": "uint256"
        }
      ],
      "stateMutability": "view",
      "type": "function"
    },
    {
      "inputs": [
        {
          "internalType": "address",
          "name": "newOwner",
          "type": "address"
        }
      ],
      "name": "transferOwnership",
      "outputs": [],
      "stateMutability": "nonpayable",
      "type": "function"
    },
    {
      "inputs": [
        {
          "internalType": "uint256",
          "name": "_tokenId",
          "type": "uint256"
        },
        {
          "internalType": "bool",
          "name": "choice",
          "type": "bool"
        }
      ],
      "name": "upgradeAuction",
      "outputs": [],
      "stateMutability": "payable",
      "type": "function"
    },
    {
      "inputs": [
        {
          "internalType": "address",
          "name": "",
          "type": "address"
        },
        {
          "internalType": "uint256",
          "name": "",
          "type": "uint256"
        }
      ],
      "name": "userInfo",
      "outputs": [
        {
          "internalType": "uint256",
          "name": "",
          "type": "uint256"
        }
      ],
      "stateMutability": "view",
      "type": "function"
    }
  ],
  "bytecode": "0x60806040526002600555600260065534801561001a57600080fd5b50600160005561002933610040565b600380546001600160a01b03191633179055610092565b600180546001600160a01b038381166001600160a01b0319831681179093556040519116919082907f8be0079c531659141344cd1fd0a4f28419497f9722a3daafe3b4186f6b6457e090600090a35050565b61300680620000a26000396000f3fe6080604052600436106101cd5760003560e01c80637e362135116100f7578063bc3ad14511610095578063f2fde38b11610064578063f2fde38b146105ba578063f59e754c146105da578063fbb286ec146105fd578063fd8acc421461061d57600080fd5b8063bc3ad1451461052a578063c2f5c0ef1461053d578063d14aa3651461055d578063e771e36b1461058d57600080fd5b8063913f5fca116100d1578063913f5fca146104a757806391792d5b146104d4578063ab066ed9146104ea578063b9d2ddc51461050a57600080fd5b80637e362135146104465780638da5cb5b1461045c5780638faba53e1461047a57600080fd5b806340bb154d1161016f5780636b94143a1161013e5780636b94143a1461039857806370bf164d146103ab578063715018a6146103cb5780637d84cb99146103e057600080fd5b806340bb154d146102ca57806347d90b5c146103185780635863516214610338578063615b397c1461035857600080fd5b80631b5777a2116101ab5780631b5777a21461024a57806321c0320d1461027757806321ce919d1461028a57806337de8106146102aa57600080fd5b80630d69cb40146101d257806314525b6b146101f45780631b01dcd91461021d575b600080fd5b3480156101de57600080fd5b506101f26101ed3660046128d0565b610630565b005b34801561020057600080fd5b5061020a60065481565b6040519081526020015b60405180910390f35b34801561022957600080fd5b5061020a6102383660046129a2565b600f6020526000908152604090205481565b34801561025657600080fd5b5061020a6102653660046129a2565b600c6020526000908152604090205481565b6101f26102853660046129bb565b610aaa565b34801561029657600080fd5b5061020a6102a53660046129fd565b610c5d565b3480156102b657600080fd5b506101f26102c53660046129a2565b600555565b3480156102d657600080fd5b506103006102e53660046129a2565b6018602052600090815260409020546001600160a01b031681565b6040516001600160a01b039091168152602001610214565b34801561032457600080fd5b50600354610300906001600160a01b031681565b34801561034457600080fd5b506101f2610353366004612ad1565b610c8e565b34801561036457600080fd5b506103886103733660046129a2565b60176020526000908152604090205460ff1681565b6040519015158152602001610214565b6101f26103a6366004612ba6565b611206565b3480156103b757600080fd5b5061020a6103c63660046129a2565b6115e3565b3480156103d757600080fd5b506101f2611626565b3480156103ec57600080fd5b506104296103fb3660046129a2565b60009081526013602090815260408083206006015460169092529091205490916001600160a01b0390911690565b604080519283526001600160a01b03909116602083015201610214565b34801561045257600080fd5b5061020a60045481565b34801561046857600080fd5b506001546001600160a01b0316610300565b34801561048657600080fd5b5061020a6104953660046129a2565b60106020526000908152604090205481565b3480156104b357600080fd5b5061020a6104c23660046129a2565b60156020526000908152604090205481565b3480156104e057600080fd5b5061020a60055481565b3480156104f657600080fd5b506101f2610505366004612bd6565b61168c565b34801561051657600080fd5b5061020a610525366004612bfb565b6117bf565b6101f2610538366004612bd6565b6117db565b34801561054957600080fd5b506101f2610558366004612c81565b611b6a565b34801561056957600080fd5b5061057d6105783660046129a2565b612036565b6040516102149493929190612dd7565b34801561059957600080fd5b5061020a6105a8366004612e10565b600b6020526000908152604090205481565b3480156105c657600080fd5b506101f26105d5366004612e10565b612114565b3480156105e657600080fd5b5061020a6105f53660046129a2565b600681905590565b34801561060957600080fd5b506101f2610618366004612bd6565b6121f6565b6101f261062b3660046129a2565b61231e565b60005b8551811015610aa257600086828151811061065057610650612e34565b6020908102919091018101516000818152601390925260409091206005015490915060ff16156106b95760405162461bcd60e51b815260206004820152600f60248201526e616c726561647920696e2073616c6560881b60448201526064015b60405180910390fd5b60008181526007602052604090206003015460ff161561070d5760405162461bcd60e51b815260206004820152600f60248201526e616c726561647920696e2073616c6560881b60448201526064016106b0565b336001600160a01b031683838151811061072957610729612e34565b60200260200101516001600160a01b0316636352211e836040518263ffffffff1660e01b815260040161075e91815260200190565b60206040518083038186803b15801561077657600080fd5b505afa15801561078a573d6000803e3d6000fd5b505050506040513d601f19601f820116820180604052508101906107ae9190612e4a565b6001600160a01b0316146108045760405162461bcd60e51b815260206004820152601160248201527f596f7520617265206e6f74206f776e657200000000000000000000000000000060448201526064016106b0565b84828151811061081657610816612e34565b6020026020010151601260008381526020019081526020016000206000018190555083828151811061084a5761084a612e34565b6020026020010151601260008381526020019081526020016000206001018190555085828151811061087e5761087e612e34565b6020908102919091018101516000838152601290925260409091206002810191909155600301805460ff1916600117905585518690839081106108c3576108c3612e34565b602090810291909101810151600083815260078352604080822060028101939093556003909201805460ff19166001908117909155600d8054600f909552928220849055830182559081527fd7b6990105719101dabeb77144f2a3385c8033acd3af97e9423a695e81ad1eb5909101829055835184908490811061094957610949612e34565b60200260200101516001600160a01b0316636352211e836040518263ffffffff1660e01b815260040161097e91815260200190565b60206040518083038186803b15801561099657600080fd5b505afa1580156109aa573d6000803e3d6000fd5b505050506040513d601f19601f820116820180604052508101906109ce9190612e4a565b6000838152601860205260409020805473ffffffffffffffffffffffffffffffffffffffff19166001600160a01b0383161790558451909150849084908110610a1957610a19612e34565b60209081029190910101516040516323b872dd60e01b81526001600160a01b03838116600483015230602483015260448201859052909116906323b872dd90606401600060405180830381600087803b158015610a7557600080fd5b505af1158015610a89573d6000803e3d6000fd5b5050505050508080610a9a90612e7d565b915050610633565b505050505050565b6040517f081812fc0000000000000000000000000000000000000000000000000000000081526004810183905230906001600160a01b0383169063081812fc9060240160206040518083038186803b158015610b0557600080fd5b505afa158015610b19573d6000803e3d6000fd5b505050506040513d601f19601f82011682018060405250810190610b3d9190612e4a565b6001600160a01b031614610bb95760405162461bcd60e51b815260206004820152603660248201527f4d61726b6574506c6163653a2054686520746f6b656e206d757374206265206160448201527f7070726f76656420746f206d61726b6574706c6163650000000000000000000060648201526084016106b0565b6040516323b872dd60e01b81526001600160a01b038481166004830152336024830152604482018490528216906323b872dd90606401600060405180830381600087803b158015610c0957600080fd5b505af1158015610c1d573d6000803e3d6000fd5b50506040516001600160a01b03861692503480156108fc029250906000818181858888f19350505050158015610c57573d6000803e3d6000fd5b50505050565b600a6020528160005260406000208181548110610c7957600080fd5b90600052602060002001600091509150505481565b4284604001511015610ce25760405162461bcd60e51b815260206004820152601e60248201527f4d61726b6574506c6163653a20746865206f666665722065787069726564000060448201526064016106b0565b60208401516019906103e8906000908290610cfe908590612e98565b610d089190612eb7565b87516040517f70a082310000000000000000000000000000000000000000000000000000000081526001600160a01b039182166004820152919250600091908816906370a082319060240160206040518083038186803b158015610d6b57600080fd5b505afa158015610d7f573d6000803e3d6000fd5b505050506040513d601f19601f82011682018060405250810190610da39190612ed9565b90508760200151811015610e1f5760405162461bcd60e51b815260206004820152602e60248201527f4d61726b6574506c6163653a204f666665722073656e64657220686173206e6f60448201527f20656e6f7567687420746f6b656e00000000000000000000000000000000000060648201526084016106b0565b875160208901516040516001600160a01b039283166024820152306044820152606481019190915260009189169060840160408051601f198184030181529181526020820180516001600160e01b03167f104e81ff0000000000000000000000000000000000000000000000000000000017905251610e9e9190612f1e565b6000604051808303816000865af19150503d8060008114610edb576040519150601f19603f3d011682016040523d82523d6000602084013e610ee0565b606091505b50509050610eed8161267e565b6000876001600160a01b031687600001518b600001518960200151604051602401610f1a93929190612f3a565b60408051601f198184030181529181526020820180516001600160e01b03167fd9b38c510000000000000000000000000000000000000000000000000000000017905251610f689190612f1e565b6000604051808303816000865af19150503d8060008114610fa5576040519150601f19603f3d011682016040523d82523d6000602084013e610faa565b606091505b50509050610fb78161267e565b60208a01518a516040517fdd62ed3e0000000000000000000000000000000000000000000000000000000081526001600160a01b039182166004820152306024820152908b169063dd62ed3e9060440160206040518083038186803b15801561101f57600080fd5b505afa158015611033573d6000803e3d6000fd5b505050506040513d601f19601f820116820180604052508101906110579190612ed9565b146110a45760405162461bcd60e51b815260206004820152601360248201527f696e73756666696369656e7420616d6f756e740000000000000000000000000060448201526064016106b0565b886001600160a01b03166323b872dd8b6000015133878e602001516110c99190612f84565b6040517fffffffff0000000000000000000000000000000000000000000000000000000060e086901b1681526001600160a01b0393841660048201529290911660248301526044820152606401602060405180830381600087803b15801561113057600080fd5b505af1158015611144573d6000803e3d6000fd5b505050506040513d601f19601f820116820180604052508101906111689190612f9b565b5089516003546040516323b872dd60e01b81526001600160a01b039283166004820152908216602482015260448101869052908a16906323b872dd90606401602060405180830381600087803b1580156111c157600080fd5b505af11580156111d5573d6000803e3d6000fd5b505050506040513d601f19601f820116820180604052508101906111f99190612f9b565b5050505050505050505050565b600082815260136020526040902060010154421080159061123857506000828152601360205260409020600201544211155b61128e5760405162461bcd60e51b815260206004820152602160248201527f61756374696f6e2073616c65206e6f742073746172746564206f7220656e64656044820152601960fa1b60648201526084016106b0565b6000600654606461129f9190612f84565b905081156113ce576000838152601460209081526040808320338452909152812080543492906112d0908490612fb8565b9091555050600083815260136020908152604080832060060154601483528184203385529092529091205411156113c95760008381526013602090815260408083203460069091018190556016909252808320805473ffffffffffffffffffffffffffffffffffffffff19163317905551909190309083908381818185875af1925050503d8060008114611380576040519150601f19603f3d011682016040523d82523d6000602084013e611385565b606091505b50509050806113c65760405162461bcd60e51b815260206004820152600d60248201526c1c99599d5b990819985a5b1959609a1b60448201526064016106b0565b50505b505050565b6000838152601660205260409020546001600160a01b031633146113c95760008381526014602090815260408083203384529091529020546114525760405162461bcd60e51b815260206004820152600e60248201527f596f7520646f6e7420616c6c6f7700000000000000000000000000000000000060448201526064016106b0565b60008381526014602090815260408083203384529091528120549060646114798484612e98565b6114839190612eb7565b905060006064600654846114979190612e98565b6114a19190612eb7565b604051909150600090339084908381818185875af1925050503d80600081146114e6576040519150601f19603f3d011682016040523d82523d6000602084013e6114eb565b606091505b505090508061152c5760405162461bcd60e51b815260206004820152600d60248201526c1c99599d5b990819985a5b1959609a1b60448201526064016106b0565b6003546040516000916001600160a01b03169084908381818185875af1925050503d8060008114611579576040519150601f19603f3d011682016040523d82523d6000602084013e61157e565b606091505b50509050806115bf5760405162461bcd60e51b815260206004820152600d60248201526c1c99599d5b990819985a5b1959609a1b60448201526064016106b0565b50505060008581526014602090815260408083203384529091528120555050505050565b600081815260136020526040812060020154421161161e57600082815260136020526040902060020154611618904290612f84565b92915050565b506000919050565b6001546001600160a01b031633146116805760405162461bcd60e51b815260206004820181905260248201527f4f776e61626c653a2063616c6c6572206973206e6f7420746865206f776e657260448201526064016106b0565b61168a60006126d8565b565b6000828152601860205260409020546001600160a01b031633146116f25760405162461bcd60e51b815260206004820152601960248201527f596f7520617265206e6f74206f726967696e616c4f776e65720000000000000060448201526064016106b0565b600082815260136020526040808220600381018390556006810183905560058101805460ff191690556001810183905560020191909155516323b872dd60e01b8152306004820152336024820152604481018390526001600160a01b038216906323b872dd90606401600060405180830381600087803b15801561177557600080fd5b505af1158015611789573d6000803e3d6000fd5b505050600083815260106020526040902054600e805490925081106117b0576117b0612e34565b60009182526020822001555050565b60086020528160005260406000208181548110610c7957600080fd5b60008281526012602052604090206003015460ff1661183c5760405162461bcd60e51b815260206004820152601360248201527f696e707574206475726174696f6e2074696d650000000000000000000000000060448201526064016106b0565b60008281526007602052604090206003015460ff1661189d5760405162461bcd60e51b815260206004820152600f60248201527f6e6674206e6f7420696e2073616c65000000000000000000000000000000000060448201526064016106b0565b60008281526012602052604090205442108015906118cc57506000828152601260205260409020600101544211155b6119185760405162461bcd60e51b815260206004820152601f60248201527f66697865642073616c65206e6f742073746172746564206f7220656e6465640060448201526064016106b0565b600060055460646119299190612f84565b600084815260076020526040902060020154909150349081101561198f5760405162461bcd60e51b815260206004820152601760248201527f70726963652073686f756c64206265206772656174657200000000000000000060448201526064016106b0565b6000606461199d8484612e98565b6119a79190612eb7565b905060006064600554846119bb9190612e98565b6119c59190612eb7565b6000878152601860205260408082205490519293506001600160a01b031691829085908381818185875af1925050503d8060008114611a20576040519150601f19603f3d011682016040523d82523d6000602084013e611a25565b606091505b5050905080611a665760405162461bcd60e51b815260206004820152600d60248201526c1c99599d5b990819985a5b1959609a1b60448201526064016106b0565b6003546040516000916001600160a01b03169085908381818185875af1925050503d8060008114611ab3576040519150601f19603f3d011682016040523d82523d6000602084013e611ab8565b606091505b5050905080611af95760405162461bcd60e51b815260206004820152600d60248201526c1c99599d5b990819985a5b1959609a1b60448201526064016106b0565b6040516323b872dd60e01b8152306004820152336024820152604481018a90526001600160a01b038916906323b872dd90606401600060405180830381600087803b158015611b4757600080fd5b505af1158015611b5b573d6000803e3d6000fd5b50505050505050505050505050565b60005b875181101561202c576000888281518110611b8a57611b8a612e34565b6020908102919091018101516000818152601790925260409091205490915060ff1615611bf95760405162461bcd60e51b815260206004820152600c60248201527f6e6674206973207374616b65000000000000000000000000000000000000000060448201526064016106b0565b60008181526013602052604090206005015460ff1615611c4d5760405162461bcd60e51b815260206004820152600f60248201526e616c726561647920696e2073616c6560881b60448201526064016106b0565b60008181526007602052604090206003015460ff1615611ca15760405162461bcd60e51b815260206004820152600f60248201526e616c726561647920696e2073616c6560881b60448201526064016106b0565b336001600160a01b0316838381518110611cbd57611cbd612e34565b60200260200101516001600160a01b0316636352211e836040518263ffffffff1660e01b8152600401611cf291815260200190565b60206040518083038186803b158015611d0a57600080fd5b505afa158015611d1e573d6000803e3d6000fd5b505050506040513d601f19601f82011682018060405250810190611d429190612e4a565b6001600160a01b031614611d985760405162461bcd60e51b815260206004820152601160248201527f596f7520617265206e6f74206f776e657200000000000000000000000000000060448201526064016106b0565b878281518110611daa57611daa612e34565b602090810291909101810151600083815260139092526040909120805460ff19169115159190911790558451859083908110611de857611de8612e34565b60200260200101516013600083815260200190815260200160002060010181905550858281518110611e1c57611e1c612e34565b60200260200101516013600083815260200190815260200160002060020181905550838281518110611e5057611e50612e34565b60200260200101516013600083815260200190815260200160002060020181905550868281518110611e8457611e84612e34565b602090810291909101810151600083815260138352604080822060038101939093556005909201805460ff19166001908117909155600e80546010909552928220849055830182559081527fbb7b4a454dc3493923482f07822329ed19e8244eff582cc204f8554c3620c3fd9091018290558351849084908110611f0a57611f0a612e34565b60200260200101516001600160a01b0316636352211e836040518263ffffffff1660e01b8152600401611f3f91815260200190565b60206040518083038186803b158015611f5757600080fd5b505afa158015611f6b573d6000803e3d6000fd5b505050506040513d601f19601f82011682018060405250810190611f8f9190612e4a565b9050838381518110611fa357611fa3612e34565b60209081029190910101516040516323b872dd60e01b81526001600160a01b03838116600483015230602483015260448201859052909116906323b872dd90606401600060405180830381600087803b158015611fff57600080fd5b505af1158015612013573d6000803e3d6000fd5b505050505050808061202490612e7d565b915050611b6d565b5050505050505050565b6000818152601360209081526040808320600301546007835281842060020154600d80548451818702810187019095528085526060968796909586959394600e949390928691908301828280156120ac57602002820191906000526020600020905b815481526020019060010190808311612098575b50505050509350828054806020026020016040519081016040528092919081815260200182805480156120fe57602002820191906000526020600020905b8154815260200190600101908083116120ea575b5050505050925093509350935093509193509193565b6001546001600160a01b0316331461216e5760405162461bcd60e51b815260206004820181905260248201527f4f776e61626c653a2063616c6c6572206973206e6f7420746865206f776e657260448201526064016106b0565b6001600160a01b0381166121ea5760405162461bcd60e51b815260206004820152602660248201527f4f776e61626c653a206e6577206f776e657220697320746865207a65726f206160448201527f646472657373000000000000000000000000000000000000000000000000000060648201526084016106b0565b6121f3816126d8565b50565b6000828152601860205260409020546001600160a01b0316331461225c5760405162461bcd60e51b815260206004820152601a60248201527f796f7520617265206e6f74206f726967696e616c206f776e657200000000000060448201526064016106b0565b6000828152600760209081526040808320600281018490556003908101805460ff1990811690915560129093529281902090920180549091169055516323b872dd60e01b8152306004820152336024820152604481018390526001600160a01b038216906323b872dd90606401600060405180830381600087803b1580156122e357600080fd5b505af11580156122f7573d6000803e3d6000fd5b5050506000838152600f6020526040902054600d805490925081106117b0576117b0612e34565b60008181526013602052604090206005015460ff1661237f5760405162461bcd60e51b815260206004820152600f60248201527f6e6674206e6f7420696e2073616c65000000000000000000000000000000000060448201526064016106b0565b60008181526013602052604090206001015442108015906123b157506000818152601360205260409020600201544211155b6124075760405162461bcd60e51b815260206004820152602160248201527f61756374696f6e2073616c65206e6f742073746172746564206f7220656e64656044820152601960fa1b60648201526084016106b0565b60008181526013602052604090205460ff16156125bd5760008181526013602052604090206003015434101561247f5760405162461bcd60e51b815260206004820152601860248201527f616d6f756e742073686f756c642062652067726561746572000000000000000060448201526064016106b0565b60008181526013602052604090206006015434116124df5760405162461bcd60e51b815260206004820152601760248201527f70726576696f75732062696464696e6720616d6f756e7400000000000000000060448201526064016106b0565b600081815260136020908152604080832034600690910181905560148352818420338086529084528285208290558585526016909352818420805473ffffffffffffffffffffffffffffffffffffffff191690931790925551909190309083908381818185875af1925050503d8060008114612577576040519150601f19603f3d011682016040523d82523d6000602084013e61257c565b606091505b50509050806113c95760405162461bcd60e51b815260206004820152600d60248201526c1c99599d5b990819985a5b1959609a1b60448201526064016106b0565b60008181526013602052604090206003015434111561261e5760405162461bcd60e51b815260206004820152601560248201527f616d6f756e742073686f756c64206265206c657373000000000000000000000060448201526064016106b0565b60008181526013602052604090206006015434106124df5760405162461bcd60e51b815260206004820152601760248201527f70726576696f75732062696464696e6720616d6f756e7400000000000000000060448201526064016106b0565b60405181151560248201526121f39060440160408051601f198184030181529190526020810180516001600160e01b03167f32458eed00000000000000000000000000000000000000000000000000000000179052612737565b600180546001600160a01b0383811673ffffffffffffffffffffffffffffffffffffffff19831681179093556040519116919082907f8be0079c531659141344cd1fd0a4f28419497f9722a3daafe3b4186f6b6457e090600090a35050565b80516a636f6e736f6c652e6c6f67602083016000808483855afa5050505050565b634e487b7160e01b600052604160045260246000fd5b6040805190810167ffffffffffffffff8111828210171561279157612791612758565b60405290565b604051601f8201601f1916810167ffffffffffffffff811182821017156127c0576127c0612758565b604052919050565b600067ffffffffffffffff8211156127e2576127e2612758565b5060051b60200190565b600082601f8301126127fd57600080fd5b8135602061281261280d836127c8565b612797565b82815260059290921b8401810191818101908684111561283157600080fd5b8286015b8481101561284c5780358352918301918301612835565b509695505050505050565b6001600160a01b03811681146121f357600080fd5b600082601f83011261287d57600080fd5b8135602061288d61280d836127c8565b82815260059290921b840181019181810190868411156128ac57600080fd5b8286015b8481101561284c5780356128c381612857565b83529183019183016128b0565b600080600080600060a086880312156128e857600080fd5b853567ffffffffffffffff8082111561290057600080fd5b61290c89838a016127ec565b9650602088013591508082111561292257600080fd5b61292e89838a016127ec565b9550604088013591508082111561294457600080fd5b61295089838a016127ec565b9450606088013591508082111561296657600080fd5b61297289838a016127ec565b9350608088013591508082111561298857600080fd5b506129958882890161286c565b9150509295509295909350565b6000602082840312156129b457600080fd5b5035919050565b6000806000606084860312156129d057600080fd5b83356129db81612857565b92506020840135915060408401356129f281612857565b809150509250925092565b60008060408385031215612a1057600080fd5b8235612a1b81612857565b946020939093013593505050565b600060408284031215612a3b57600080fd5b612a4361276e565b90508135815260208083013567ffffffffffffffff80821115612a6557600080fd5b818501915085601f830112612a7957600080fd5b813581811115612a8b57612a8b612758565b612a9d601f8201601f19168501612797565b91508082528684828501011115612ab357600080fd5b80848401858401376000908201840152918301919091525092915050565b60008060008084860360c0811215612ae857600080fd5b6060811215612af657600080fd5b506040516060810167ffffffffffffffff8282108183111715612b1b57612b1b612758565b8160405287359150612b2c82612857565b818352602088013560208401526040880135604084015282965060608801359250612b5683612857565b919450608087013591612b6883612857565b91935060a08701359180831115612b7e57600080fd5b5050612b8c87828801612a29565b91505092959194509250565b80151581146121f357600080fd5b60008060408385031215612bb957600080fd5b823591506020830135612bcb81612b98565b809150509250929050565b60008060408385031215612be957600080fd5b823591506020830135612bcb81612857565b60008060408385031215612c0e57600080fd5b50508035926020909101359150565b600082601f830112612c2e57600080fd5b81356020612c3e61280d836127c8565b82815260059290921b84018101918181019086841115612c5d57600080fd5b8286015b8481101561284c578035612c7481612b98565b8352918301918301612c61565b600080600080600080600060e0888a031215612c9c57600080fd5b873567ffffffffffffffff80821115612cb457600080fd5b612cc08b838c016127ec565b985060208a0135915080821115612cd657600080fd5b612ce28b838c01612c1d565b975060408a0135915080821115612cf857600080fd5b612d048b838c016127ec565b965060608a0135915080821115612d1a57600080fd5b612d268b838c016127ec565b955060808a0135915080821115612d3c57600080fd5b612d488b838c016127ec565b945060a08a0135915080821115612d5e57600080fd5b612d6a8b838c016127ec565b935060c08a0135915080821115612d8057600080fd5b50612d8d8a828b0161286c565b91505092959891949750929550565b600081518084526020808501945080840160005b83811015612dcc57815187529582019590820190600101612db0565b509495945050505050565b608081526000612dea6080830187612d9c565b8281036020840152612dfc8187612d9c565b604084019590955250506060015292915050565b600060208284031215612e2257600080fd5b8135612e2d81612857565b9392505050565b634e487b7160e01b600052603260045260246000fd5b600060208284031215612e5c57600080fd5b8151612e2d81612857565b634e487b7160e01b600052601160045260246000fd5b6000600019821415612e9157612e91612e67565b5060010190565b6000816000190483118215151615612eb257612eb2612e67565b500290565b600082612ed457634e487b7160e01b600052601260045260246000fd5b500490565b600060208284031215612eeb57600080fd5b5051919050565b60005b83811015612f0d578181015183820152602001612ef5565b83811115610c575750506000910152565b60008251612f30818460208701612ef2565b9190910192915050565b8381526001600160a01b03831660208201526060604082015260008251806060840152612f6e816080850160208701612ef2565b601f01601f191691909101608001949350505050565b600082821015612f9657612f96612e67565b500390565b600060208284031215612fad57600080fd5b8151612e2d81612b98565b60008219821115612fcb57612fcb612e67565b50019056fea2646970667358221220c02abea5cbeb78a9bfea32a7ed00187acc5cdcec5993f3a499a9b97f5d58dc4764736f6c63430008080033",
  "linkReferences": {},
  "deployedLinkReferences": {}
}