{
  "_format": "hh-sol-artifact-1",
  "contractName": "StokeMarketplace",
  "sourceName": "contracts/StokeMarketPlace.sol",
  "abi": [
    {
      "inputs": [],
      "stateMutability": "nonpayable",
      "type": "constructor"
    },
    {
      "inputs": [
        {
          "components": [
            {
              "internalType": "address",
              "name": "sender",
              "type": "address"
            },
            {
              "internalType": "uint256",
              "name": "amount",
              "type": "uint256"
            },
            {
              "internalType": "uint256",
              "name": "expiresAt",
              "type": "uint256"
            }
          ],
          "internalType": "struct StokeMarketplace.Offer",
          "name": "offer",
          "type": "tuple"
        },
        {
          "internalType": "address",
          "name": "WETH",
          "type": "address"
        },
        {
          "internalType": "address",
          "name": "_nftContract",
          "type": "address"
        },
        {
          "components": [
            {
              "internalType": "uint256",
              "name": "tokenId",
              "type": "uint256"
            },
            {
              "internalType": "string",
              "name": "tokenURI",
              "type": "string"
            }
          ],
          "internalType": "struct StokeMarketplace.Token",
          "name": "token",
          "type": "tuple"
        }
      ],
      "name": "accept",
      "outputs": [],
      "stateMutability": "nonpayable",
      "type": "function"
    },
    {
      "inputs": [
        {
          "internalType": "address payable",
          "name": "_recipient",
          "type": "address"
        },
        {
          "internalType": "uint256",
          "name": "_tokenId",
          "type": "uint256"
        },
        {
          "internalType": "address",
          "name": "_nftContract",
          "type": "address"
        }
      ],
      "name": "buyOrder",
      "outputs": [],
      "stateMutability": "payable",
      "type": "function"
    },
    {
      "inputs": [],
      "name": "marketowner",
      "outputs": [
        {
          "internalType": "address payable",
          "name": "",
          "type": "address"
        }
      ],
      "stateMutability": "view",
      "type": "function"
    },
    {
      "inputs": [
        {
          "internalType": "address payable",
          "name": "_recipient",
          "type": "address"
        }
      ],
      "name": "transferAmount",
      "outputs": [],
      "stateMutability": "payable",
      "type": "function"
    }
  ],
  "bytecode": "0x608060405234801561001057600080fd5b506001600055600280546001600160a01b03191633179055610c97806100376000396000f3fe60806040526004361061003f5760003560e01c806321c0320d1461004457806358635162146100595780635e385b92146100795780639717552f146100b5575b600080fd5b6100576100523660046108c4565b6100c8565b005b34801561006557600080fd5b50610057610074366004610a1e565b610280565b34801561008557600080fd5b50600254610099906001600160a01b031681565b6040516001600160a01b03909116815260200160405180910390f35b6100576100c3366004610ae5565b6107f8565b6040517f081812fc0000000000000000000000000000000000000000000000000000000081526004810183905230906001600160a01b0383169063081812fc9060240160206040518083038186803b15801561012357600080fd5b505afa158015610137573d6000803e3d6000fd5b505050506040513d601f19601f8201168201806040525081019061015b9190610b09565b6001600160a01b0316146101dc5760405162461bcd60e51b815260206004820152603660248201527f4d61726b6574506c6163653a2054686520746f6b656e206d757374206265206160448201527f7070726f76656420746f206d61726b6574706c6163650000000000000000000060648201526084015b60405180910390fd5b6040516323b872dd60e01b81526001600160a01b038481166004830152336024830152604482018490528216906323b872dd90606401600060405180830381600087803b15801561022c57600080fd5b505af1158015610240573d6000803e3d6000fd5b50506040516001600160a01b03861692503480156108fc029250906000818181858888f1935050505015801561027a573d6000803e3d6000fd5b50505050565b42846040015110156102d45760405162461bcd60e51b815260206004820152601e60248201527f4d61726b6574506c6163653a20746865206f666665722065787069726564000060448201526064016101d3565b60208401516019906103e89060009082906102f0908590610b3c565b6102fa9190610b5b565b87516040517f70a082310000000000000000000000000000000000000000000000000000000081526001600160a01b039182166004820152919250600091908816906370a082319060240160206040518083038186803b15801561035d57600080fd5b505afa158015610371573d6000803e3d6000fd5b505050506040513d601f19601f820116820180604052508101906103959190610b7d565b905087602001518110156104115760405162461bcd60e51b815260206004820152602e60248201527f4d61726b6574506c6163653a204f666665722073656e64657220686173206e6f60448201527f20656e6f7567687420746f6b656e00000000000000000000000000000000000060648201526084016101d3565b875160208901516040516001600160a01b039283166024820152306044820152606481019190915260009189169060840160408051601f198184030181529181526020820180516001600160e01b03167f104e81ff00000000000000000000000000000000000000000000000000000000179052516104909190610bc2565b6000604051808303816000865af19150503d80600081146104cd576040519150601f19603f3d011682016040523d82523d6000602084013e6104d2565b606091505b505090506104df81610831565b6000876001600160a01b031687600001518b60000151896020015160405160240161050c93929190610bde565b60408051601f198184030181529181526020820180516001600160e01b03167fd9b38c51000000000000000000000000000000000000000000000000000000001790525161055a9190610bc2565b6000604051808303816000865af19150503d8060008114610597576040519150601f19603f3d011682016040523d82523d6000602084013e61059c565b606091505b505090506105a981610831565b60208a01518a516040517fdd62ed3e0000000000000000000000000000000000000000000000000000000081526001600160a01b039182166004820152306024820152908b169063dd62ed3e9060440160206040518083038186803b15801561061157600080fd5b505afa158015610625573d6000803e3d6000fd5b505050506040513d601f19601f820116820180604052508101906106499190610b7d565b146106965760405162461bcd60e51b815260206004820152601360248201527f696e73756666696369656e7420616d6f756e740000000000000000000000000060448201526064016101d3565b886001600160a01b03166323b872dd8b6000015133878e602001516106bb9190610c28565b6040517fffffffff0000000000000000000000000000000000000000000000000000000060e086901b1681526001600160a01b0393841660048201529290911660248301526044820152606401602060405180830381600087803b15801561072257600080fd5b505af1158015610736573d6000803e3d6000fd5b505050506040513d601f19601f8201168201806040525081019061075a9190610c3f565b5089516002546040516323b872dd60e01b81526001600160a01b039283166004820152908216602482015260448101869052908a16906323b872dd90606401602060405180830381600087803b1580156107b357600080fd5b505af11580156107c7573d6000803e3d6000fd5b505050506040513d601f19601f820116820180604052508101906107eb9190610c3f565b5050505050505050505050565b6040516001600160a01b038216903480156108fc02916000818181858888f1935050505015801561082d573d6000803e3d6000fd5b5050565b604051811515602482015261088b9060440160408051601f198184030181529190526020810180516001600160e01b03167f32458eed0000000000000000000000000000000000000000000000000000000017905261088e565b50565b80516a636f6e736f6c652e6c6f67602083016000808483855afa5050505050565b6001600160a01b038116811461088b57600080fd5b6000806000606084860312156108d957600080fd5b83356108e4816108af565b92506020840135915060408401356108fb816108af565b809150509250925092565b634e487b7160e01b600052604160045260246000fd5b6040805190810167ffffffffffffffff8111828210171561093f5761093f610906565b60405290565b604051601f8201601f1916810167ffffffffffffffff8111828210171561096e5761096e610906565b604052919050565b60006040828403121561098857600080fd5b61099061091c565b90508135815260208083013567ffffffffffffffff808211156109b257600080fd5b818501915085601f8301126109c657600080fd5b8135818111156109d8576109d8610906565b6109ea601f8201601f19168501610945565b91508082528684828501011115610a0057600080fd5b80848401858401376000908201840152918301919091525092915050565b60008060008084860360c0811215610a3557600080fd5b6060811215610a4357600080fd5b506040516060810167ffffffffffffffff8282108183111715610a6857610a68610906565b8160405287359150610a79826108af565b818352602088013560208401526040880135604084015282965060608801359250610aa3836108af565b919450608087013591610ab5836108af565b91935060a08701359180831115610acb57600080fd5b5050610ad987828801610976565b91505092959194509250565b600060208284031215610af757600080fd5b8135610b02816108af565b9392505050565b600060208284031215610b1b57600080fd5b8151610b02816108af565b634e487b7160e01b600052601160045260246000fd5b6000816000190483118215151615610b5657610b56610b26565b500290565b600082610b7857634e487b7160e01b600052601260045260246000fd5b500490565b600060208284031215610b8f57600080fd5b5051919050565b60005b83811015610bb1578181015183820152602001610b99565b8381111561027a5750506000910152565b60008251610bd4818460208701610b96565b9190910192915050565b8381526001600160a01b03831660208201526060604082015260008251806060840152610c12816080850160208701610b96565b601f01601f191691909101608001949350505050565b600082821015610c3a57610c3a610b26565b500390565b600060208284031215610c5157600080fd5b81518015158114610b0257600080fdfea26469706673582212209af02c3e7bcfdc92a90ac457b5f51458d4b1fc06c169e77423006316d4a6fc5d64736f6c63430008080033",
  "linkReferences": {},
  "deployedLinkReferences": {}
}