{
  "_format": "hh-sol-artifact-1",
  "contractName": "StokeMarketplace",
  "sourceName": "contracts/StokeMarketPlace.sol",
  "abi": [
    {
      "inputs": [],
      "stateMutability": "nonpayable",
      "type": "constructor"
    },
    {
      "anonymous": false,
      "inputs": [
        {
          "indexed": true,
          "internalType": "address",
          "name": "previousOwner",
          "type": "address"
        },
        {
          "indexed": true,
          "internalType": "address",
          "name": "newOwner",
          "type": "address"
        }
      ],
      "name": "OwnershipTransferred",
      "type": "event"
    },
    {
      "inputs": [
        {
          "components": [
            {
              "internalType": "address",
              "name": "sender",
              "type": "address"
            },
            {
              "internalType": "uint256",
              "name": "amount",
              "type": "uint256"
            },
            {
              "internalType": "uint256",
              "name": "expiresAt",
              "type": "uint256"
            }
          ],
          "internalType": "struct StokeMarketplace.Offer",
          "name": "offer",
          "type": "tuple"
        },
        {
          "internalType": "address",
          "name": "WETH",
          "type": "address"
        },
        {
          "internalType": "address",
          "name": "_nftContract",
          "type": "address"
        },
        {
          "components": [
            {
              "internalType": "uint256",
              "name": "tokenId",
              "type": "uint256"
            },
            {
              "internalType": "string",
              "name": "tokenURI",
              "type": "string"
            }
          ],
          "internalType": "struct StokeMarketplace.Token",
          "name": "token",
          "type": "tuple"
        }
      ],
      "name": "accept",
      "outputs": [],
      "stateMutability": "nonpayable",
      "type": "function"
    },
    {
      "inputs": [
        {
          "internalType": "uint256",
          "name": "_tokenId",
          "type": "uint256"
        }
      ],
      "name": "auctionDetail",
      "outputs": [
        {
          "internalType": "uint256",
          "name": "",
          "type": "uint256"
        },
        {
          "internalType": "address",
          "name": "",
          "type": "address"
        }
      ],
      "stateMutability": "view",
      "type": "function"
    },
    {
      "inputs": [],
      "name": "auctionFees",
      "outputs": [
        {
          "internalType": "uint256",
          "name": "",
          "type": "uint256"
        }
      ],
      "stateMutability": "view",
      "type": "function"
    },
    {
      "inputs": [
        {
          "internalType": "uint256",
          "name": "",
          "type": "uint256"
        }
      ],
      "name": "auctionNftList",
      "outputs": [
        {
          "internalType": "uint256",
          "name": "",
          "type": "uint256"
        }
      ],
      "stateMutability": "view",
      "type": "function"
    },
    {
      "inputs": [
        {
          "internalType": "uint256",
          "name": "_tokenId",
          "type": "uint256"
        }
      ],
      "name": "buyAuction",
      "outputs": [],
      "stateMutability": "payable",
      "type": "function"
    },
    {
      "inputs": [
        {
          "internalType": "address payable",
          "name": "_recipient",
          "type": "address"
        },
        {
          "internalType": "uint256",
          "name": "_tokenId",
          "type": "uint256"
        },
        {
          "internalType": "address",
          "name": "_nftContract",
          "type": "address"
        }
      ],
      "name": "buyOrder",
      "outputs": [],
      "stateMutability": "payable",
      "type": "function"
    },
    {
      "inputs": [
        {
          "internalType": "uint256",
          "name": "",
          "type": "uint256"
        },
        {
          "internalType": "uint256",
          "name": "",
          "type": "uint256"
        }
      ],
      "name": "collectionStored",
      "outputs": [
        {
          "internalType": "uint256",
          "name": "",
          "type": "uint256"
        }
      ],
      "stateMutability": "view",
      "type": "function"
    },
    {
      "inputs": [
        {
          "internalType": "uint256",
          "name": "_tokenId",
          "type": "uint256"
        }
      ],
      "name": "listSaleNft",
      "outputs": [
        {
          "internalType": "uint256[]",
          "name": "",
          "type": "uint256[]"
        },
        {
          "internalType": "uint256[]",
          "name": "",
          "type": "uint256[]"
        },
        {
          "internalType": "uint256",
          "name": "",
          "type": "uint256"
        },
        {
          "internalType": "uint256",
          "name": "",
          "type": "uint256"
        }
      ],
      "stateMutability": "view",
      "type": "function"
    },
    {
      "inputs": [],
      "name": "marketOwner",
      "outputs": [
        {
          "internalType": "address payable",
          "name": "",
          "type": "address"
        }
      ],
      "stateMutability": "view",
      "type": "function"
    },
    {
      "inputs": [
        {
          "internalType": "uint256",
          "name": "",
          "type": "uint256"
        }
      ],
      "name": "nftCollectionId",
      "outputs": [
        {
          "internalType": "uint256",
          "name": "",
          "type": "uint256"
        }
      ],
      "stateMutability": "view",
      "type": "function"
    },
    {
      "inputs": [
        {
          "internalType": "uint256",
          "name": "",
          "type": "uint256"
        }
      ],
      "name": "nftStakeState",
      "outputs": [
        {
          "internalType": "bool",
          "name": "",
          "type": "bool"
        }
      ],
      "stateMutability": "view",
      "type": "function"
    },
    {
      "inputs": [
        {
          "internalType": "uint256",
          "name": "",
          "type": "uint256"
        }
      ],
      "name": "originalOwner",
      "outputs": [
        {
          "internalType": "address",
          "name": "",
          "type": "address"
        }
      ],
      "stateMutability": "view",
      "type": "function"
    },
    {
      "inputs": [],
      "name": "owner",
      "outputs": [
        {
          "internalType": "address",
          "name": "",
          "type": "address"
        }
      ],
      "stateMutability": "view",
      "type": "function"
    },
    {
      "inputs": [
        {
          "internalType": "uint256",
          "name": "_tokenId",
          "type": "uint256"
        },
        {
          "internalType": "address",
          "name": "_nftContract",
          "type": "address"
        }
      ],
      "name": "removeFromAuction",
      "outputs": [],
      "stateMutability": "nonpayable",
      "type": "function"
    },
    {
      "inputs": [],
      "name": "renounceOwnership",
      "outputs": [],
      "stateMutability": "nonpayable",
      "type": "function"
    },
    {
      "inputs": [
        {
          "internalType": "uint256",
          "name": "",
          "type": "uint256"
        }
      ],
      "name": "saleNftList",
      "outputs": [
        {
          "internalType": "uint256",
          "name": "",
          "type": "uint256"
        }
      ],
      "stateMutability": "view",
      "type": "function"
    },
    {
      "inputs": [
        {
          "internalType": "uint256",
          "name": "_tokenId",
          "type": "uint256"
        },
        {
          "internalType": "uint256",
          "name": "_price",
          "type": "uint256"
        },
        {
          "internalType": "uint256",
          "name": "_endDay",
          "type": "uint256"
        },
        {
          "internalType": "uint256",
          "name": "_endHours",
          "type": "uint256"
        },
        {
          "internalType": "uint256",
          "name": "_endMins",
          "type": "uint256"
        },
        {
          "internalType": "address",
          "name": "_nftContract",
          "type": "address"
        }
      ],
      "name": "startAuction",
      "outputs": [],
      "stateMutability": "nonpayable",
      "type": "function"
    },
    {
      "inputs": [
        {
          "internalType": "uint256",
          "name": "_tokenId",
          "type": "uint256"
        }
      ],
      "name": "timing",
      "outputs": [
        {
          "internalType": "uint256",
          "name": "",
          "type": "uint256"
        }
      ],
      "stateMutability": "view",
      "type": "function"
    },
    {
      "inputs": [],
      "name": "tokenIdMint",
      "outputs": [
        {
          "internalType": "uint256",
          "name": "",
          "type": "uint256"
        }
      ],
      "stateMutability": "view",
      "type": "function"
    },
    {
      "inputs": [
        {
          "internalType": "address",
          "name": "",
          "type": "address"
        }
      ],
      "name": "totalCollection",
      "outputs": [
        {
          "internalType": "uint256",
          "name": "",
          "type": "uint256"
        }
      ],
      "stateMutability": "view",
      "type": "function"
    },
    {
      "inputs": [
        {
          "internalType": "uint256",
          "name": "",
          "type": "uint256"
        }
      ],
      "name": "totalNft",
      "outputs": [
        {
          "internalType": "uint256",
          "name": "",
          "type": "uint256"
        }
      ],
      "stateMutability": "view",
      "type": "function"
    },
    {
      "inputs": [
        {
          "internalType": "address",
          "name": "newOwner",
          "type": "address"
        }
      ],
      "name": "transferOwnership",
      "outputs": [],
      "stateMutability": "nonpayable",
      "type": "function"
    },
    {
      "inputs": [
        {
          "internalType": "uint256",
          "name": "_tokenId",
          "type": "uint256"
        },
        {
          "internalType": "bool",
          "name": "choice",
          "type": "bool"
        }
      ],
      "name": "upgradeAuction",
      "outputs": [],
      "stateMutability": "payable",
      "type": "function"
    },
    {
      "inputs": [
        {
          "internalType": "address",
          "name": "",
          "type": "address"
        },
        {
          "internalType": "uint256",
          "name": "",
          "type": "uint256"
        }
      ],
      "name": "userInfo",
      "outputs": [
        {
          "internalType": "uint256",
          "name": "",
          "type": "uint256"
        }
      ],
      "stateMutability": "view",
      "type": "function"
    }
  ],
  "bytecode": "0x6080604052601460055534801561001557600080fd5b5060016000556100243361003b565b600380546001600160a01b0319163317905561008d565b600180546001600160a01b038381166001600160a01b0319831681179093556040519116919082907f8be0079c531659141344cd1fd0a4f28419497f9722a3daafe3b4186f6b6457e090600090a35050565b61202e8061009c6000396000f3fe60806040526004361061018b5760003560e01c806379cda53a116100d6578063ab066ed91161007f578063e771e36b11610059578063e771e36b146104e2578063f2fde38b1461050f578063fd8acc421461052f57600080fd5b8063ab066ed914610472578063af8e33a814610492578063b9d2ddc5146104c257600080fd5b80638da5cb5b116100b05780638da5cb5b146103fa5780638de7520014610418578063913f5fca1461044557600080fd5b806379cda53a1461035e5780637d84cb991461037e5780637e362135146103e457600080fd5b806347d90b5c116101385780636b94143a116101125780636b94143a1461031657806370bf164d14610329578063715018a61461034957600080fd5b806347d90b5c1461029657806358635162146102b6578063615b397c146102d657600080fd5b806321ce919d1161016957806321ce919d146101fb5780634083c37a1461021b57806340bb154d1461024857600080fd5b806306469432146101905780631b5777a2146101b957806321c0320d146101e6575b600080fd5b34801561019c57600080fd5b506101a660055481565b6040519081526020015b60405180910390f35b3480156101c557600080fd5b506101a66101d4366004611a8a565b600b6020526000908152604090205481565b6101f96101f4366004611ab8565b610542565b005b34801561020757600080fd5b506101a6610216366004611afa565b6106fa565b34801561022757600080fd5b506101a6610236366004611a8a565b600f6020526000908152604090205481565b34801561025457600080fd5b5061027e610263366004611a8a565b6016602052600090815260409020546001600160a01b031681565b6040516001600160a01b0390911681526020016101b0565b3480156102a257600080fd5b5060035461027e906001600160a01b031681565b3480156102c257600080fd5b506101f96102d1366004611c3e565b61072b565b3480156102e257600080fd5b506103066102f1366004611a8a565b60156020526000908152604090205460ff1681565b60405190151581526020016101b0565b6101f9610324366004611d13565b610ca3565b34801561033557600080fd5b506101a6610344366004611a8a565b611044565b34801561035557600080fd5b506101f9611081565b34801561036a57600080fd5b506101f9610379366004611d43565b6110e7565b34801561038a57600080fd5b506103c7610399366004611a8a565b60009081526011602090815260408083206003015460149092529091205490916001600160a01b0390911690565b604080519283526001600160a01b039091166020830152016101b0565b3480156103f057600080fd5b506101a660045481565b34801561040657600080fd5b506001546001600160a01b031661027e565b34801561042457600080fd5b506101a6610433366004611a8a565b600e6020526000908152604090205481565b34801561045157600080fd5b506101a6610460366004611a8a565b60136020526000908152604090205481565b34801561047e57600080fd5b506101f961048d366004611d98565b611462565b34801561049e57600080fd5b506104b26104ad366004611a8a565b61158b565b6040516101b09493929190611df8565b3480156104ce57600080fd5b506101a66104dd366004611e31565b611666565b3480156104ee57600080fd5b506101a66104fd366004611e53565b600a6020526000908152604090205481565b34801561051b57600080fd5b506101f961052a366004611e53565b611682565b6101f961053d366004611a8a565b611764565b6040517f081812fc0000000000000000000000000000000000000000000000000000000081526004810183905230906001600160a01b0383169063081812fc9060240160206040518083038186803b15801561059d57600080fd5b505afa1580156105b1573d6000803e3d6000fd5b505050506040513d601f19601f820116820180604052508101906105d59190611e77565b6001600160a01b0316146106565760405162461bcd60e51b815260206004820152603660248201527f4d61726b6574506c6163653a2054686520746f6b656e206d757374206265206160448201527f7070726f76656420746f206d61726b6574706c6163650000000000000000000060648201526084015b60405180910390fd5b6040516323b872dd60e01b81526001600160a01b038481166004830152336024830152604482018490528216906323b872dd90606401600060405180830381600087803b1580156106a657600080fd5b505af11580156106ba573d6000803e3d6000fd5b50506040516001600160a01b03861692503480156108fc029250906000818181858888f193505050501580156106f4573d6000803e3d6000fd5b50505050565b6009602052816000526040600020818154811061071657600080fd5b90600052602060002001600091509150505481565b428460400151101561077f5760405162461bcd60e51b815260206004820152601e60248201527f4d61726b6574506c6163653a20746865206f6666657220657870697265640000604482015260640161064d565b60208401516019906103e890600090829061079b908590611eaa565b6107a59190611ec9565b87516040517f70a082310000000000000000000000000000000000000000000000000000000081526001600160a01b039182166004820152919250600091908816906370a082319060240160206040518083038186803b15801561080857600080fd5b505afa15801561081c573d6000803e3d6000fd5b505050506040513d601f19601f820116820180604052508101906108409190611eeb565b905087602001518110156108bc5760405162461bcd60e51b815260206004820152602e60248201527f4d61726b6574506c6163653a204f666665722073656e64657220686173206e6f60448201527f20656e6f7567687420746f6b656e000000000000000000000000000000000000606482015260840161064d565b875160208901516040516001600160a01b039283166024820152306044820152606481019190915260009189169060840160408051601f198184030181529181526020820180516001600160e01b03167f104e81ff000000000000000000000000000000000000000000000000000000001790525161093b9190611f30565b6000604051808303816000865af19150503d8060008114610978576040519150601f19603f3d011682016040523d82523d6000602084013e61097d565b606091505b5050905061098a816119b0565b6000876001600160a01b031687600001518b6000015189602001516040516024016109b793929190611f4c565b60408051601f198184030181529181526020820180516001600160e01b03167fd9b38c510000000000000000000000000000000000000000000000000000000017905251610a059190611f30565b6000604051808303816000865af19150503d8060008114610a42576040519150601f19603f3d011682016040523d82523d6000602084013e610a47565b606091505b50509050610a54816119b0565b60208a01518a516040517fdd62ed3e0000000000000000000000000000000000000000000000000000000081526001600160a01b039182166004820152306024820152908b169063dd62ed3e9060440160206040518083038186803b158015610abc57600080fd5b505afa158015610ad0573d6000803e3d6000fd5b505050506040513d601f19601f82011682018060405250810190610af49190611eeb565b14610b415760405162461bcd60e51b815260206004820152601360248201527f696e73756666696369656e7420616d6f756e7400000000000000000000000000604482015260640161064d565b886001600160a01b03166323b872dd8b6000015133878e60200151610b669190611f96565b6040517fffffffff0000000000000000000000000000000000000000000000000000000060e086901b1681526001600160a01b0393841660048201529290911660248301526044820152606401602060405180830381600087803b158015610bcd57600080fd5b505af1158015610be1573d6000803e3d6000fd5b505050506040513d601f19601f82011682018060405250810190610c059190611fad565b5089516003546040516323b872dd60e01b81526001600160a01b039283166004820152908216602482015260448101869052908a16906323b872dd90606401602060405180830381600087803b158015610c5e57600080fd5b505af1158015610c72573d6000803e3d6000fd5b505050506040513d601f19601f82011682018060405250810190610c969190611fad565b5050505050505050505050565b600082815260116020526040902054421115610cef5760405162461bcd60e51b815260206004820152600b60248201526a185d58dd1a5bdb88195b9960aa1b604482015260640161064d565b60006005546064610d009190611f96565b90508115610e2f57600083815260126020908152604080832033845290915281208054349290610d31908490611fca565b909155505060008381526011602090815260408083206003015460128352818420338552909252909120541115610e2a5760008381526011602090815260408083203460039091018190556014909252808320805473ffffffffffffffffffffffffffffffffffffffff19163317905551909190309083908381818185875af1925050503d8060008114610de1576040519150601f19603f3d011682016040523d82523d6000602084013e610de6565b606091505b5050905080610e275760405162461bcd60e51b815260206004820152600d60248201526c1c99599d5b990819985a5b1959609a1b604482015260640161064d565b50505b505050565b6000838152601460205260409020546001600160a01b03163314610e2a576000838152601260209081526040808320338452909152902054610eb35760405162461bcd60e51b815260206004820152600e60248201527f596f7520646f6e7420616c6c6f77000000000000000000000000000000000000604482015260640161064d565b6000838152601260209081526040808320338452909152812054906064610eda8484611eaa565b610ee49190611ec9565b90506000606460055484610ef89190611eaa565b610f029190611ec9565b604051909150600090339084908381818185875af1925050503d8060008114610f47576040519150601f19603f3d011682016040523d82523d6000602084013e610f4c565b606091505b5050905080610f8d5760405162461bcd60e51b815260206004820152600d60248201526c1c99599d5b990819985a5b1959609a1b604482015260640161064d565b6003546040516000916001600160a01b03169084908381818185875af1925050503d8060008114610fda576040519150601f19603f3d011682016040523d82523d6000602084013e610fdf565b606091505b50509050806110205760405162461bcd60e51b815260206004820152600d60248201526c1c99599d5b990819985a5b1959609a1b604482015260640161064d565b50505060008581526012602090815260408083203384529091528120555050505050565b600081815260116020526040812054421161107957600082815260116020526040902054611073904290611f96565b92915050565b506000919050565b6001546001600160a01b031633146110db5760405162461bcd60e51b815260206004820181905260248201527f4f776e61626c653a2063616c6c6572206973206e6f7420746865206f776e6572604482015260640161064d565b6110e56000611a0a565b565b60008681526015602052604090205460ff16156111465760405162461bcd60e51b815260206004820152600c60248201527f6e6674206973207374616b650000000000000000000000000000000000000000604482015260640161064d565b60008681526011602052604090206002015460ff16156111a85760405162461bcd60e51b815260206004820152600f60248201527f616c726561647920696e2073616c650000000000000000000000000000000000604482015260640161064d565b60008681526006602052604090206001015460ff161561120a5760405162461bcd60e51b815260206004820152600f60248201527f616c726561647920696e2073616c650000000000000000000000000000000000604482015260640161064d565b6040516331a9108f60e11b81526004810187905233906001600160a01b03831690636352211e9060240160206040518083038186803b15801561124c57600080fd5b505afa158015611260573d6000803e3d6000fd5b505050506040513d601f19601f820116820180604052508101906112849190611e77565b6001600160a01b0316146112da5760405162461bcd60e51b815260206004820152601160248201527f596f7520617265206e6f74206f776e6572000000000000000000000000000000604482015260640161064d565b6112e5603c83611eaa565b6112f1610e1085611eaa565b6112fe6201518087611eaa565b6113089042611fca565b6113129190611fca565b61131c9190611fca565b600087815260116020908152604080832093845560018085018a90556002909401805460ff191685179055600d8054600f90935281842083905593820184559282527fd7b6990105719101dabeb77144f2a3385c8033acd3af97e9423a695e81ad1eb50188905590516331a9108f60e11b8152600481018890526001600160a01b03831690636352211e9060240160206040518083038186803b1580156113c257600080fd5b505afa1580156113d6573d6000803e3d6000fd5b505050506040513d601f19601f820116820180604052508101906113fa9190611e77565b6040516323b872dd60e01b81526001600160a01b038083166004830152306024830152604482018a9052919250908316906323b872dd90606401600060405180830381600087803b15801561144e57600080fd5b505af1158015610c96573d6000803e3d6000fd5b6000828152601660205260409020546001600160a01b031633146114c85760405162461bcd60e51b815260206004820152601960248201527f596f7520617265206e6f74206f726967696e616c4f776e657200000000000000604482015260640161064d565b600082815260116020526040808220600181018390556003810183905560028101805460ff1916905591909155516323b872dd60e01b8152306004820152336024820152604481018390526001600160a01b038216906323b872dd90606401600060405180830381600087803b15801561154157600080fd5b505af1158015611555573d6000803e3d6000fd5b5050506000838152600f6020526040902054600d8054909250811061157c5761157c611fe2565b60009182526020822001555050565b6000818152601160209081526040808320600101546006835281842054600c80548451818702810187019095528085526060968796909586959394600d949390928691908301828280156115fe57602002820191906000526020600020905b8154815260200190600101908083116115ea575b505050505093508280548060200260200160405190810160405280929190818152602001828054801561165057602002820191906000526020600020905b81548152602001906001019080831161163c575b5050505050925093509350935093509193509193565b6007602052816000526040600020818154811061071657600080fd5b6001546001600160a01b031633146116dc5760405162461bcd60e51b815260206004820181905260248201527f4f776e61626c653a2063616c6c6572206973206e6f7420746865206f776e6572604482015260640161064d565b6001600160a01b0381166117585760405162461bcd60e51b815260206004820152602660248201527f4f776e61626c653a206e6577206f776e657220697320746865207a65726f206160448201527f6464726573730000000000000000000000000000000000000000000000000000606482015260840161064d565b61176181611a0a565b50565b60008181526011602052604090206002015460ff166117c55760405162461bcd60e51b815260206004820152600f60248201527f6e6674206e6f7420696e2073616c650000000000000000000000000000000000604482015260640161064d565b6000818152601160205260409020600101543410156118265760405162461bcd60e51b815260206004820152601860248201527f616d6f756e742073686f756c6420626520677265617465720000000000000000604482015260640161064d565b60008181526011602052604090206003015434116118865760405162461bcd60e51b815260206004820152601760248201527f70726576696f75732062696464696e6720616d6f756e74000000000000000000604482015260640161064d565b6000818152601160205260409020544211156118d25760405162461bcd60e51b815260206004820152600b60248201526a185d58dd1a5bdb88195b9960aa1b604482015260640161064d565b600081815260116020908152604080832034600390910181905560128352818420338086529084528285208290558585526014909352818420805473ffffffffffffffffffffffffffffffffffffffff191690931790925551909190309083908381818185875af1925050503d806000811461196a576040519150601f19603f3d011682016040523d82523d6000602084013e61196f565b606091505b5050905080610e2a5760405162461bcd60e51b815260206004820152600d60248201526c1c99599d5b990819985a5b1959609a1b604482015260640161064d565b60405181151560248201526117619060440160408051601f198184030181529190526020810180516001600160e01b03167f32458eed00000000000000000000000000000000000000000000000000000000179052611a69565b600180546001600160a01b0383811673ffffffffffffffffffffffffffffffffffffffff19831681179093556040519116919082907f8be0079c531659141344cd1fd0a4f28419497f9722a3daafe3b4186f6b6457e090600090a35050565b80516a636f6e736f6c652e6c6f67602083016000808483855afa5050505050565b600060208284031215611a9c57600080fd5b5035919050565b6001600160a01b038116811461176157600080fd5b600080600060608486031215611acd57600080fd5b8335611ad881611aa3565b9250602084013591506040840135611aef81611aa3565b809150509250925092565b60008060408385031215611b0d57600080fd5b8235611b1881611aa3565b946020939093013593505050565b634e487b7160e01b600052604160045260246000fd5b6040805190810167ffffffffffffffff81118282101715611b5f57611b5f611b26565b60405290565b604051601f8201601f1916810167ffffffffffffffff81118282101715611b8e57611b8e611b26565b604052919050565b600060408284031215611ba857600080fd5b611bb0611b3c565b90508135815260208083013567ffffffffffffffff80821115611bd257600080fd5b818501915085601f830112611be657600080fd5b813581811115611bf857611bf8611b26565b611c0a601f8201601f19168501611b65565b91508082528684828501011115611c2057600080fd5b80848401858401376000908201840152918301919091525092915050565b60008060008084860360c0811215611c5557600080fd5b6060811215611c6357600080fd5b506040516060810167ffffffffffffffff8282108183111715611c8857611c88611b26565b8160405287359150611c9982611aa3565b818352602088013560208401526040880135604084015282965060608801359250611cc383611aa3565b919450608087013591611cd583611aa3565b91935060a08701359180831115611ceb57600080fd5b5050611cf987828801611b96565b91505092959194509250565b801515811461176157600080fd5b60008060408385031215611d2657600080fd5b823591506020830135611d3881611d05565b809150509250929050565b60008060008060008060c08789031215611d5c57600080fd5b863595506020870135945060408701359350606087013592506080870135915060a0870135611d8a81611aa3565b809150509295509295509295565b60008060408385031215611dab57600080fd5b823591506020830135611d3881611aa3565b600081518084526020808501945080840160005b83811015611ded57815187529582019590820190600101611dd1565b509495945050505050565b608081526000611e0b6080830187611dbd565b8281036020840152611e1d8187611dbd565b604084019590955250506060015292915050565b60008060408385031215611e4457600080fd5b50508035926020909101359150565b600060208284031215611e6557600080fd5b8135611e7081611aa3565b9392505050565b600060208284031215611e8957600080fd5b8151611e7081611aa3565b634e487b7160e01b600052601160045260246000fd5b6000816000190483118215151615611ec457611ec4611e94565b500290565b600082611ee657634e487b7160e01b600052601260045260246000fd5b500490565b600060208284031215611efd57600080fd5b5051919050565b60005b83811015611f1f578181015183820152602001611f07565b838111156106f45750506000910152565b60008251611f42818460208701611f04565b9190910192915050565b8381526001600160a01b03831660208201526060604082015260008251806060840152611f80816080850160208701611f04565b601f01601f191691909101608001949350505050565b600082821015611fa857611fa8611e94565b500390565b600060208284031215611fbf57600080fd5b8151611e7081611d05565b60008219821115611fdd57611fdd611e94565b500190565b634e487b7160e01b600052603260045260246000fdfea2646970667358221220edbb2ccada13ee2021f650be2973757a2dfa0d1879eeb520e72eeceb2769f75c64736f6c63430008080033",
  "linkReferences": {},
  "deployedLinkReferences": {}
}