{
  "_format": "hh-sol-artifact-1",
  "contractName": "StokeMarketplace",
  "sourceName": "contracts/StokeMarketPlace.sol",
  "abi": [
    {
      "inputs": [],
      "stateMutability": "nonpayable",
      "type": "constructor"
    },
    {
      "anonymous": false,
      "inputs": [
        {
          "indexed": true,
          "internalType": "address",
          "name": "previousOwner",
          "type": "address"
        },
        {
          "indexed": true,
          "internalType": "address",
          "name": "newOwner",
          "type": "address"
        }
      ],
      "name": "OwnershipTransferred",
      "type": "event"
    },
    {
      "inputs": [
        {
          "components": [
            {
              "internalType": "address",
              "name": "sender",
              "type": "address"
            },
            {
              "internalType": "uint256",
              "name": "amount",
              "type": "uint256"
            },
            {
              "internalType": "uint256",
              "name": "expiresAt",
              "type": "uint256"
            }
          ],
          "internalType": "struct StokeMarketplace.Offer",
          "name": "offer",
          "type": "tuple"
        },
        {
          "internalType": "address",
          "name": "WETH",
          "type": "address"
        },
        {
          "internalType": "address",
          "name": "_nftContract",
          "type": "address"
        },
        {
          "components": [
            {
              "internalType": "uint256",
              "name": "tokenId",
              "type": "uint256"
            },
            {
              "internalType": "string",
              "name": "tokenURI",
              "type": "string"
            }
          ],
          "internalType": "struct StokeMarketplace.Token",
          "name": "token",
          "type": "tuple"
        }
      ],
      "name": "accept",
      "outputs": [],
      "stateMutability": "nonpayable",
      "type": "function"
    },
    {
      "inputs": [
        {
          "internalType": "uint256",
          "name": "_tokenId",
          "type": "uint256"
        }
      ],
      "name": "auctionDetail",
      "outputs": [
        {
          "internalType": "uint256",
          "name": "",
          "type": "uint256"
        },
        {
          "internalType": "address",
          "name": "",
          "type": "address"
        }
      ],
      "stateMutability": "view",
      "type": "function"
    },
    {
      "inputs": [],
      "name": "auctionFee",
      "outputs": [
        {
          "internalType": "uint256",
          "name": "",
          "type": "uint256"
        }
      ],
      "stateMutability": "view",
      "type": "function"
    },
    {
      "inputs": [
        {
          "internalType": "uint256",
          "name": "",
          "type": "uint256"
        }
      ],
      "name": "auctionNftList",
      "outputs": [
        {
          "internalType": "uint256",
          "name": "",
          "type": "uint256"
        }
      ],
      "stateMutability": "view",
      "type": "function"
    },
    {
      "inputs": [
        {
          "internalType": "uint256",
          "name": "_tokenId",
          "type": "uint256"
        }
      ],
      "name": "buyAuction",
      "outputs": [],
      "stateMutability": "payable",
      "type": "function"
    },
    {
      "inputs": [
        {
          "internalType": "uint256",
          "name": "_tokenId",
          "type": "uint256"
        },
        {
          "internalType": "address",
          "name": "_nftContract",
          "type": "address"
        }
      ],
      "name": "buyNft",
      "outputs": [],
      "stateMutability": "payable",
      "type": "function"
    },
    {
      "inputs": [
        {
          "internalType": "address payable",
          "name": "_recipient",
          "type": "address"
        },
        {
          "internalType": "uint256",
          "name": "_tokenId",
          "type": "uint256"
        },
        {
          "internalType": "address",
          "name": "_nftContract",
          "type": "address"
        }
      ],
      "name": "buyOrder",
      "outputs": [],
      "stateMutability": "payable",
      "type": "function"
    },
    {
      "inputs": [
        {
          "internalType": "uint256",
          "name": "_tokenId",
          "type": "uint256"
        },
        {
          "internalType": "address",
          "name": "_nftContract",
          "type": "address"
        }
      ],
      "name": "cancelFixedSale",
      "outputs": [],
      "stateMutability": "nonpayable",
      "type": "function"
    },
    {
      "inputs": [
        {
          "internalType": "uint256",
          "name": "",
          "type": "uint256"
        },
        {
          "internalType": "uint256",
          "name": "",
          "type": "uint256"
        }
      ],
      "name": "collectionStored",
      "outputs": [
        {
          "internalType": "uint256",
          "name": "",
          "type": "uint256"
        }
      ],
      "stateMutability": "view",
      "type": "function"
    },
    {
      "inputs": [],
      "name": "fixedFee",
      "outputs": [
        {
          "internalType": "uint256",
          "name": "",
          "type": "uint256"
        }
      ],
      "stateMutability": "view",
      "type": "function"
    },
    {
      "inputs": [
        {
          "internalType": "uint256[]",
          "name": "_tokenIds",
          "type": "uint256[]"
        },
        {
          "internalType": "uint256[]",
          "name": "_prices",
          "type": "uint256[]"
        },
        {
          "internalType": "uint256[]",
          "name": "_startTimes",
          "type": "uint256[]"
        },
        {
          "internalType": "uint256[]",
          "name": "_endTimes",
          "type": "uint256[]"
        },
        {
          "internalType": "address[]",
          "name": "_nftContracts",
          "type": "address[]"
        }
      ],
      "name": "fixedSales",
      "outputs": [],
      "stateMutability": "nonpayable",
      "type": "function"
    },
    {
      "inputs": [
        {
          "internalType": "uint256",
          "name": "_tokenId",
          "type": "uint256"
        }
      ],
      "name": "listSaleNft",
      "outputs": [
        {
          "internalType": "uint256[]",
          "name": "",
          "type": "uint256[]"
        },
        {
          "internalType": "uint256[]",
          "name": "",
          "type": "uint256[]"
        },
        {
          "internalType": "uint256",
          "name": "",
          "type": "uint256"
        },
        {
          "internalType": "uint256",
          "name": "",
          "type": "uint256"
        }
      ],
      "stateMutability": "view",
      "type": "function"
    },
    {
      "inputs": [],
      "name": "marketOwner",
      "outputs": [
        {
          "internalType": "address payable",
          "name": "",
          "type": "address"
        }
      ],
      "stateMutability": "view",
      "type": "function"
    },
    {
      "inputs": [
        {
          "internalType": "uint256",
          "name": "",
          "type": "uint256"
        }
      ],
      "name": "nftCollectionId",
      "outputs": [
        {
          "internalType": "uint256",
          "name": "",
          "type": "uint256"
        }
      ],
      "stateMutability": "view",
      "type": "function"
    },
    {
      "inputs": [
        {
          "internalType": "uint256",
          "name": "",
          "type": "uint256"
        }
      ],
      "name": "nftStakeState",
      "outputs": [
        {
          "internalType": "bool",
          "name": "",
          "type": "bool"
        }
      ],
      "stateMutability": "view",
      "type": "function"
    },
    {
      "inputs": [
        {
          "internalType": "uint256",
          "name": "",
          "type": "uint256"
        }
      ],
      "name": "originalOwner",
      "outputs": [
        {
          "internalType": "address",
          "name": "",
          "type": "address"
        }
      ],
      "stateMutability": "view",
      "type": "function"
    },
    {
      "inputs": [],
      "name": "owner",
      "outputs": [
        {
          "internalType": "address",
          "name": "",
          "type": "address"
        }
      ],
      "stateMutability": "view",
      "type": "function"
    },
    {
      "inputs": [
        {
          "internalType": "uint256",
          "name": "_tokenId",
          "type": "uint256"
        },
        {
          "internalType": "address",
          "name": "_nftContract",
          "type": "address"
        }
      ],
      "name": "removeFromAuction",
      "outputs": [],
      "stateMutability": "nonpayable",
      "type": "function"
    },
    {
      "inputs": [],
      "name": "renounceOwnership",
      "outputs": [],
      "stateMutability": "nonpayable",
      "type": "function"
    },
    {
      "inputs": [
        {
          "internalType": "uint256",
          "name": "",
          "type": "uint256"
        }
      ],
      "name": "saleNftList",
      "outputs": [
        {
          "internalType": "uint256",
          "name": "",
          "type": "uint256"
        }
      ],
      "stateMutability": "view",
      "type": "function"
    },
    {
      "inputs": [
        {
          "internalType": "uint256",
          "name": "_auctionFee",
          "type": "uint256"
        }
      ],
      "name": "setAuctionFee",
      "outputs": [
        {
          "internalType": "uint256",
          "name": "",
          "type": "uint256"
        }
      ],
      "stateMutability": "nonpayable",
      "type": "function"
    },
    {
      "inputs": [
        {
          "internalType": "uint256",
          "name": "_fixedFee",
          "type": "uint256"
        }
      ],
      "name": "setFixedFee",
      "outputs": [],
      "stateMutability": "nonpayable",
      "type": "function"
    },
    {
      "inputs": [
        {
          "internalType": "uint256[]",
          "name": "_tokenIds",
          "type": "uint256[]"
        },
        {
          "internalType": "bool[]",
          "name": "_methods",
          "type": "bool[]"
        },
        {
          "internalType": "uint256[]",
          "name": "_prices",
          "type": "uint256[]"
        },
        {
          "internalType": "uint256[]",
          "name": "_startTimes",
          "type": "uint256[]"
        },
        {
          "internalType": "uint256[]",
          "name": "_endTimes",
          "type": "uint256[]"
        },
        {
          "internalType": "address[]",
          "name": "_nftContracts",
          "type": "address[]"
        }
      ],
      "name": "startAuction",
      "outputs": [],
      "stateMutability": "nonpayable",
      "type": "function"
    },
    {
      "inputs": [
        {
          "internalType": "uint256",
          "name": "_tokenId",
          "type": "uint256"
        }
      ],
      "name": "timing",
      "outputs": [
        {
          "internalType": "uint256",
          "name": "",
          "type": "uint256"
        }
      ],
      "stateMutability": "view",
      "type": "function"
    },
    {
      "inputs": [],
      "name": "tokenIdMint",
      "outputs": [
        {
          "internalType": "uint256",
          "name": "",
          "type": "uint256"
        }
      ],
      "stateMutability": "view",
      "type": "function"
    },
    {
      "inputs": [
        {
          "internalType": "address",
          "name": "",
          "type": "address"
        }
      ],
      "name": "totalCollection",
      "outputs": [
        {
          "internalType": "uint256",
          "name": "",
          "type": "uint256"
        }
      ],
      "stateMutability": "view",
      "type": "function"
    },
    {
      "inputs": [
        {
          "internalType": "uint256",
          "name": "",
          "type": "uint256"
        }
      ],
      "name": "totalNft",
      "outputs": [
        {
          "internalType": "uint256",
          "name": "",
          "type": "uint256"
        }
      ],
      "stateMutability": "view",
      "type": "function"
    },
    {
      "inputs": [
        {
          "internalType": "address",
          "name": "newOwner",
          "type": "address"
        }
      ],
      "name": "transferOwnership",
      "outputs": [],
      "stateMutability": "nonpayable",
      "type": "function"
    },
    {
      "inputs": [
        {
          "internalType": "uint256",
          "name": "_tokenId",
          "type": "uint256"
        },
        {
          "internalType": "bool",
          "name": "choice",
          "type": "bool"
        }
      ],
      "name": "upgradeAuction",
      "outputs": [],
      "stateMutability": "payable",
      "type": "function"
    },
    {
      "inputs": [
        {
          "internalType": "address",
          "name": "",
          "type": "address"
        },
        {
          "internalType": "uint256",
          "name": "",
          "type": "uint256"
        }
      ],
      "name": "userInfo",
      "outputs": [
        {
          "internalType": "uint256",
          "name": "",
          "type": "uint256"
        }
      ],
      "stateMutability": "view",
      "type": "function"
    }
  ],
  "bytecode": "0x60806040526002600555600260065534801561001a57600080fd5b50600160005561002933610040565b600380546001600160a01b03191633179055610092565b600180546001600160a01b038381166001600160a01b0319831681179093556040519116919082907f8be0079c531659141344cd1fd0a4f28419497f9722a3daafe3b4186f6b6457e090600090a35050565b612f6280620000a26000396000f3fe6080604052600436106101cd5760003560e01c80637e362135116100f7578063af8e33a811610095578063f2fde38b11610064578063f2fde38b146105ba578063f59e754c146105da578063fbb286ec146105fd578063fd8acc421461061d57600080fd5b8063af8e33a81461052a578063b9d2ddc51461055a578063bc3ad1451461057a578063e771e36b1461058d57600080fd5b80638de75200116100d15780638de752001461049a578063913f5fca146104c757806391792d5b146104f4578063ab066ed91461050a57600080fd5b80637e362135146104465780638462c4901461045c5780638da5cb5b1461047c57600080fd5b806340bb154d1161016f5780636b94143a1161013e5780636b94143a1461039857806370bf164d146103ab578063715018a6146103cb5780637d84cb99146103e057600080fd5b806340bb154d146102ca57806347d90b5c146103185780635863516214610338578063615b397c1461035857600080fd5b806321c0320d116101ab57806321c0320d1461024a57806321ce919d1461025d57806337de81061461027d5780634083c37a1461029d57600080fd5b80630d69cb40146101d257806314525b6b146101f45780631b5777a21461021d575b600080fd5b3480156101de57600080fd5b506101f26101ed366004612852565b610630565b005b34801561020057600080fd5b5061020a60065481565b6040519081526020015b60405180910390f35b34801561022957600080fd5b5061020a610238366004612924565b600c6020526000908152604090205481565b6101f261025836600461293d565b610a74565b34801561026957600080fd5b5061020a61027836600461297f565b610c27565b34801561028957600080fd5b506101f2610298366004612924565b600555565b3480156102a957600080fd5b5061020a6102b8366004612924565b60106020526000908152604090205481565b3480156102d657600080fd5b506103006102e5366004612924565b6018602052600090815260409020546001600160a01b031681565b6040516001600160a01b039091168152602001610214565b34801561032457600080fd5b50600354610300906001600160a01b031681565b34801561034457600080fd5b506101f2610353366004612a53565b610c58565b34801561036457600080fd5b50610388610373366004612924565b60176020526000908152604090205460ff1681565b6040519015158152602001610214565b6101f26103a6366004612b28565b6111d0565b3480156103b757600080fd5b5061020a6103c6366004612924565b6115ad565b3480156103d757600080fd5b506101f26115f0565b3480156103ec57600080fd5b506104296103fb366004612924565b60009081526013602090815260408083206005015460169092529091205490916001600160a01b0390911690565b604080519283526001600160a01b03909116602083015201610214565b34801561045257600080fd5b5061020a60045481565b34801561046857600080fd5b506101f2610477366004612bbc565b611656565b34801561048857600080fd5b506001546001600160a01b0316610300565b3480156104a657600080fd5b5061020a6104b5366004612924565b600f6020526000908152604090205481565b3480156104d357600080fd5b5061020a6104e2366004612924565b60156020526000908152604090205481565b34801561050057600080fd5b5061020a60055481565b34801561051657600080fd5b506101f2610525366004612cb1565b611aec565b34801561053657600080fd5b5061054a610545366004612924565b611c24565b6040516102149493929190612d11565b34801561056657600080fd5b5061020a610575366004612d4a565b611d02565b6101f2610588366004612cb1565b611d1e565b34801561059957600080fd5b5061020a6105a8366004612d6c565b600b6020526000908152604090205481565b3480156105c657600080fd5b506101f26105d5366004612d6c565b6120ad565b3480156105e657600080fd5b5061020a6105f5366004612924565b600681905590565b34801561060957600080fd5b506101f2610618366004612cb1565b61218f565b6101f261062b366004612924565b6122a0565b60015b85518111610a6c57600086828151811061064f5761064f612d90565b6020908102919091018101516000818152601390925260409091206004015490915060ff16156106b85760405162461bcd60e51b815260206004820152600f60248201526e616c726561647920696e2073616c6560881b60448201526064015b60405180910390fd5b60008181526007602052604090206003015460ff161561070c5760405162461bcd60e51b815260206004820152600f60248201526e616c726561647920696e2073616c6560881b60448201526064016106af565b336001600160a01b031683838151811061072857610728612d90565b60200260200101516001600160a01b0316636352211e836040518263ffffffff1660e01b815260040161075d91815260200190565b60206040518083038186803b15801561077557600080fd5b505afa158015610789573d6000803e3d6000fd5b505050506040513d601f19601f820116820180604052508101906107ad9190612da6565b6001600160a01b0316146108035760405162461bcd60e51b815260206004820152601160248201527f596f7520617265206e6f74206f776e657200000000000000000000000000000060448201526064016106af565b84828151811061081557610815612d90565b6020026020010151601260008381526020019081526020016000206000018190555083828151811061084957610849612d90565b6020026020010151601260008381526020019081526020016000206001018190555085828151811061087d5761087d612d90565b602090810291909101810151600083815260128352604090206002810191909155600301805460ff191660011790556018905285518690839081106108c4576108c4612d90565b602090810291909101810151600083815260078352604080822060028101939093556003909201805460ff19166001908117909155600d8054600f909552928220849055830182559081527fd7b6990105719101dabeb77144f2a3385c8033acd3af97e9423a695e81ad1eb5909101829055835184908490811061094a5761094a612d90565b60200260200101516001600160a01b0316636352211e836040518263ffffffff1660e01b815260040161097f91815260200190565b60206040518083038186803b15801561099757600080fd5b505afa1580156109ab573d6000803e3d6000fd5b505050506040513d601f19601f820116820180604052508101906109cf9190612da6565b90508383815181106109e3576109e3612d90565b60209081029190910101516040516323b872dd60e01b81526001600160a01b03838116600483015230602483015260448201859052909116906323b872dd90606401600060405180830381600087803b158015610a3f57600080fd5b505af1158015610a53573d6000803e3d6000fd5b5050505050508080610a6490612dd9565b915050610633565b505050505050565b6040517f081812fc0000000000000000000000000000000000000000000000000000000081526004810183905230906001600160a01b0383169063081812fc9060240160206040518083038186803b158015610acf57600080fd5b505afa158015610ae3573d6000803e3d6000fd5b505050506040513d601f19601f82011682018060405250810190610b079190612da6565b6001600160a01b031614610b835760405162461bcd60e51b815260206004820152603660248201527f4d61726b6574506c6163653a2054686520746f6b656e206d757374206265206160448201527f7070726f76656420746f206d61726b6574706c6163650000000000000000000060648201526084016106af565b6040516323b872dd60e01b81526001600160a01b038481166004830152336024830152604482018490528216906323b872dd90606401600060405180830381600087803b158015610bd357600080fd5b505af1158015610be7573d6000803e3d6000fd5b50506040516001600160a01b03861692503480156108fc029250906000818181858888f19350505050158015610c21573d6000803e3d6000fd5b50505050565b600a6020528160005260406000208181548110610c4357600080fd5b90600052602060002001600091509150505481565b4284604001511015610cac5760405162461bcd60e51b815260206004820152601e60248201527f4d61726b6574506c6163653a20746865206f666665722065787069726564000060448201526064016106af565b60208401516019906103e8906000908290610cc8908590612df4565b610cd29190612e13565b87516040517f70a082310000000000000000000000000000000000000000000000000000000081526001600160a01b039182166004820152919250600091908816906370a082319060240160206040518083038186803b158015610d3557600080fd5b505afa158015610d49573d6000803e3d6000fd5b505050506040513d601f19601f82011682018060405250810190610d6d9190612e35565b90508760200151811015610de95760405162461bcd60e51b815260206004820152602e60248201527f4d61726b6574506c6163653a204f666665722073656e64657220686173206e6f60448201527f20656e6f7567687420746f6b656e00000000000000000000000000000000000060648201526084016106af565b875160208901516040516001600160a01b039283166024820152306044820152606481019190915260009189169060840160408051601f198184030181529181526020820180516001600160e01b03167f104e81ff0000000000000000000000000000000000000000000000000000000017905251610e689190612e7a565b6000604051808303816000865af19150503d8060008114610ea5576040519150601f19603f3d011682016040523d82523d6000602084013e610eaa565b606091505b50509050610eb781612600565b6000876001600160a01b031687600001518b600001518960200151604051602401610ee493929190612e96565b60408051601f198184030181529181526020820180516001600160e01b03167fd9b38c510000000000000000000000000000000000000000000000000000000017905251610f329190612e7a565b6000604051808303816000865af19150503d8060008114610f6f576040519150601f19603f3d011682016040523d82523d6000602084013e610f74565b606091505b50509050610f8181612600565b60208a01518a516040517fdd62ed3e0000000000000000000000000000000000000000000000000000000081526001600160a01b039182166004820152306024820152908b169063dd62ed3e9060440160206040518083038186803b158015610fe957600080fd5b505afa158015610ffd573d6000803e3d6000fd5b505050506040513d601f19601f820116820180604052508101906110219190612e35565b1461106e5760405162461bcd60e51b815260206004820152601360248201527f696e73756666696369656e7420616d6f756e740000000000000000000000000060448201526064016106af565b886001600160a01b03166323b872dd8b6000015133878e602001516110939190612ee0565b6040517fffffffff0000000000000000000000000000000000000000000000000000000060e086901b1681526001600160a01b0393841660048201529290911660248301526044820152606401602060405180830381600087803b1580156110fa57600080fd5b505af115801561110e573d6000803e3d6000fd5b505050506040513d601f19601f820116820180604052508101906111329190612ef7565b5089516003546040516323b872dd60e01b81526001600160a01b039283166004820152908216602482015260448101869052908a16906323b872dd90606401602060405180830381600087803b15801561118b57600080fd5b505af115801561119f573d6000803e3d6000fd5b505050506040513d601f19601f820116820180604052508101906111c39190612ef7565b5050505050505050505050565b600082815260136020526040902060010154421080159061120257506000828152601360205260409020600201544211155b6112585760405162461bcd60e51b815260206004820152602160248201527f61756374696f6e2073616c65206e6f742073746172746564206f7220656e64656044820152601960fa1b60648201526084016106af565b600060065460646112699190612ee0565b905081156113985760008381526014602090815260408083203384529091528120805434929061129a908490612f14565b9091555050600083815260136020908152604080832060050154601483528184203385529092529091205411156113935760008381526013602090815260408083203460059091018190556016909252808320805473ffffffffffffffffffffffffffffffffffffffff19163317905551909190309083908381818185875af1925050503d806000811461134a576040519150601f19603f3d011682016040523d82523d6000602084013e61134f565b606091505b50509050806113905760405162461bcd60e51b815260206004820152600d60248201526c1c99599d5b990819985a5b1959609a1b60448201526064016106af565b50505b505050565b6000838152601660205260409020546001600160a01b0316331461139357600083815260146020908152604080832033845290915290205461141c5760405162461bcd60e51b815260206004820152600e60248201527f596f7520646f6e7420616c6c6f7700000000000000000000000000000000000060448201526064016106af565b60008381526014602090815260408083203384529091528120549060646114438484612df4565b61144d9190612e13565b905060006064600654846114619190612df4565b61146b9190612e13565b604051909150600090339084908381818185875af1925050503d80600081146114b0576040519150601f19603f3d011682016040523d82523d6000602084013e6114b5565b606091505b50509050806114f65760405162461bcd60e51b815260206004820152600d60248201526c1c99599d5b990819985a5b1959609a1b60448201526064016106af565b6003546040516000916001600160a01b03169084908381818185875af1925050503d8060008114611543576040519150601f19603f3d011682016040523d82523d6000602084013e611548565b606091505b50509050806115895760405162461bcd60e51b815260206004820152600d60248201526c1c99599d5b990819985a5b1959609a1b60448201526064016106af565b50505060008581526014602090815260408083203384529091528120555050505050565b60008181526013602052604081206002015442116115e8576000828152601360205260409020600201546115e2904290612ee0565b92915050565b506000919050565b6001546001600160a01b0316331461164a5760405162461bcd60e51b815260206004820181905260248201527f4f776e61626c653a2063616c6c6572206973206e6f7420746865206f776e657260448201526064016106af565b611654600061265a565b565b60015b86518111611ae357600087828151811061167557611675612d90565b6020908102919091018101516000818152601790925260409091205490915060ff16156116e45760405162461bcd60e51b815260206004820152600c60248201527f6e6674206973207374616b65000000000000000000000000000000000000000060448201526064016106af565b60008181526013602052604090206004015460ff16156117385760405162461bcd60e51b815260206004820152600f60248201526e616c726561647920696e2073616c6560881b60448201526064016106af565b60008181526007602052604090206003015460ff161561178c5760405162461bcd60e51b815260206004820152600f60248201526e616c726561647920696e2073616c6560881b60448201526064016106af565b336001600160a01b03168383815181106117a8576117a8612d90565b60200260200101516001600160a01b0316636352211e836040518263ffffffff1660e01b81526004016117dd91815260200190565b60206040518083038186803b1580156117f557600080fd5b505afa158015611809573d6000803e3d6000fd5b505050506040513d601f19601f8201168201806040525081019061182d9190612da6565b6001600160a01b0316146118835760405162461bcd60e51b815260206004820152601160248201527f596f7520617265206e6f74206f776e657200000000000000000000000000000060448201526064016106af565b86828151811061189557611895612d90565b602090810291909101810151600083815260139092526040909120805460ff191691151591909117905584518590839081106118d3576118d3612d90565b6020026020010151601360008381526020019081526020016000206001018190555083828151811061190757611907612d90565b6020026020010151601360008381526020019081526020016000206002018190555085828151811061193b5761193b612d90565b602090810291909101810151600083815260138352604080822060038101939093556004909201805460ff19166001908117909155600e80546010909552928220849055830182559081527fbb7b4a454dc3493923482f07822329ed19e8244eff582cc204f8554c3620c3fd90910182905583518490849081106119c1576119c1612d90565b60200260200101516001600160a01b0316636352211e836040518263ffffffff1660e01b81526004016119f691815260200190565b60206040518083038186803b158015611a0e57600080fd5b505afa158015611a22573d6000803e3d6000fd5b505050506040513d601f19601f82011682018060405250810190611a469190612da6565b9050838381518110611a5a57611a5a612d90565b60209081029190910101516040516323b872dd60e01b81526001600160a01b03838116600483015230602483015260448201859052909116906323b872dd90606401600060405180830381600087803b158015611ab657600080fd5b505af1158015611aca573d6000803e3d6000fd5b5050505050508080611adb90612dd9565b915050611659565b50505050505050565b6000828152601860205260409020546001600160a01b03163314611b525760405162461bcd60e51b815260206004820152601960248201527f596f7520617265206e6f74206f726967696e616c4f776e65720000000000000060448201526064016106af565b60008281526013602052604080822060038101839055600581018390556004808201805460ff1916905560018201849055600290910192909255516323b872dd60e01b81523091810191909152336024820152604481018390526001600160a01b038216906323b872dd90606401600060405180830381600087803b158015611bda57600080fd5b505af1158015611bee573d6000803e3d6000fd5b505050600083815260106020526040902054600e80549092508110611c1557611c15612d90565b60009182526020822001555050565b6000818152601360209081526040808320600301546007835281842060020154600d80548451818702810187019095528085526060968796909586959394600e94939092869190830182828015611c9a57602002820191906000526020600020905b815481526020019060010190808311611c86575b5050505050935082805480602002602001604051908101604052809291908181526020018280548015611cec57602002820191906000526020600020905b815481526020019060010190808311611cd8575b5050505050925093509350935093509193509193565b60086020528160005260406000208181548110610c4357600080fd5b60008281526012602052604090206003015460ff16611d7f5760405162461bcd60e51b815260206004820152601360248201527f696e707574206475726174696f6e2074696d650000000000000000000000000060448201526064016106af565b60008281526007602052604090206003015460ff16611de05760405162461bcd60e51b815260206004820152600f60248201527f6e6674206e6f7420696e2073616c65000000000000000000000000000000000060448201526064016106af565b6000828152601260205260409020544210801590611e0f57506000828152601260205260409020600101544211155b611e5b5760405162461bcd60e51b815260206004820152601f60248201527f66697865642073616c65206e6f742073746172746564206f7220656e6465640060448201526064016106af565b60006005546064611e6c9190612ee0565b6000848152600760205260409020600201549091503490811015611ed25760405162461bcd60e51b815260206004820152601760248201527f70726963652073686f756c64206265206772656174657200000000000000000060448201526064016106af565b60006064611ee08484612df4565b611eea9190612e13565b90506000606460055484611efe9190612df4565b611f089190612e13565b6000878152601860205260408082205490519293506001600160a01b031691829085908381818185875af1925050503d8060008114611f63576040519150601f19603f3d011682016040523d82523d6000602084013e611f68565b606091505b5050905080611fa95760405162461bcd60e51b815260206004820152600d60248201526c1c99599d5b990819985a5b1959609a1b60448201526064016106af565b6003546040516000916001600160a01b03169085908381818185875af1925050503d8060008114611ff6576040519150601f19603f3d011682016040523d82523d6000602084013e611ffb565b606091505b505090508061203c5760405162461bcd60e51b815260206004820152600d60248201526c1c99599d5b990819985a5b1959609a1b60448201526064016106af565b6040516323b872dd60e01b8152306004820152336024820152604481018a90526001600160a01b038916906323b872dd90606401600060405180830381600087803b15801561208a57600080fd5b505af115801561209e573d6000803e3d6000fd5b50505050505050505050505050565b6001546001600160a01b031633146121075760405162461bcd60e51b815260206004820181905260248201527f4f776e61626c653a2063616c6c6572206973206e6f7420746865206f776e657260448201526064016106af565b6001600160a01b0381166121835760405162461bcd60e51b815260206004820152602660248201527f4f776e61626c653a206e6577206f776e657220697320746865207a65726f206160448201527f646472657373000000000000000000000000000000000000000000000000000060648201526084016106af565b61218c8161265a565b50565b6000828152601860205260409020546001600160a01b031633146121f55760405162461bcd60e51b815260206004820152601a60248201527f796f7520617265206e6f74206f726967696e616c206f776e657200000000000060448201526064016106af565b60008281526007602052604080822060028101929092556003909101805460ff19169055516323b872dd60e01b8152306004820152336024820152604481018390526001600160a01b038216906323b872dd90606401600060405180830381600087803b15801561226557600080fd5b505af1158015612279573d6000803e3d6000fd5b5050506000838152600f6020526040902054600d80549092508110611c1557611c15612d90565b60008181526013602052604090206004015460ff166123015760405162461bcd60e51b815260206004820152600f60248201527f6e6674206e6f7420696e2073616c65000000000000000000000000000000000060448201526064016106af565b600081815260136020526040902060010154421080159061233357506000818152601360205260409020600201544211155b6123895760405162461bcd60e51b815260206004820152602160248201527f61756374696f6e2073616c65206e6f742073746172746564206f7220656e64656044820152601960fa1b60648201526084016106af565b60008181526013602052604090205460ff161561253f576000818152601360205260409020600301543410156124015760405162461bcd60e51b815260206004820152601860248201527f616d6f756e742073686f756c642062652067726561746572000000000000000060448201526064016106af565b60008181526013602052604090206005015434116124615760405162461bcd60e51b815260206004820152601760248201527f70726576696f75732062696464696e6720616d6f756e7400000000000000000060448201526064016106af565b600081815260136020908152604080832034600590910181905560148352818420338086529084528285208290558585526016909352818420805473ffffffffffffffffffffffffffffffffffffffff191690931790925551909190309083908381818185875af1925050503d80600081146124f9576040519150601f19603f3d011682016040523d82523d6000602084013e6124fe565b606091505b50509050806113935760405162461bcd60e51b815260206004820152600d60248201526c1c99599d5b990819985a5b1959609a1b60448201526064016106af565b6000818152601360205260409020600301543411156125a05760405162461bcd60e51b815260206004820152601560248201527f616d6f756e742073686f756c64206265206c657373000000000000000000000060448201526064016106af565b60008181526013602052604090206005015434106124615760405162461bcd60e51b815260206004820152601760248201527f70726576696f75732062696464696e6720616d6f756e7400000000000000000060448201526064016106af565b604051811515602482015261218c9060440160408051601f198184030181529190526020810180516001600160e01b03167f32458eed000000000000000000000000000000000000000000000000000000001790526126b9565b600180546001600160a01b0383811673ffffffffffffffffffffffffffffffffffffffff19831681179093556040519116919082907f8be0079c531659141344cd1fd0a4f28419497f9722a3daafe3b4186f6b6457e090600090a35050565b80516a636f6e736f6c652e6c6f67602083016000808483855afa5050505050565b634e487b7160e01b600052604160045260246000fd5b6040805190810167ffffffffffffffff81118282101715612713576127136126da565b60405290565b604051601f8201601f1916810167ffffffffffffffff81118282101715612742576127426126da565b604052919050565b600067ffffffffffffffff821115612764576127646126da565b5060051b60200190565b600082601f83011261277f57600080fd5b8135602061279461278f8361274a565b612719565b82815260059290921b840181019181810190868411156127b357600080fd5b8286015b848110156127ce57803583529183019183016127b7565b509695505050505050565b6001600160a01b038116811461218c57600080fd5b600082601f8301126127ff57600080fd5b8135602061280f61278f8361274a565b82815260059290921b8401810191818101908684111561282e57600080fd5b8286015b848110156127ce578035612845816127d9565b8352918301918301612832565b600080600080600060a0868803121561286a57600080fd5b853567ffffffffffffffff8082111561288257600080fd5b61288e89838a0161276e565b965060208801359150808211156128a457600080fd5b6128b089838a0161276e565b955060408801359150808211156128c657600080fd5b6128d289838a0161276e565b945060608801359150808211156128e857600080fd5b6128f489838a0161276e565b9350608088013591508082111561290a57600080fd5b50612917888289016127ee565b9150509295509295909350565b60006020828403121561293657600080fd5b5035919050565b60008060006060848603121561295257600080fd5b833561295d816127d9565b9250602084013591506040840135612974816127d9565b809150509250925092565b6000806040838503121561299257600080fd5b823561299d816127d9565b946020939093013593505050565b6000604082840312156129bd57600080fd5b6129c56126f0565b90508135815260208083013567ffffffffffffffff808211156129e757600080fd5b818501915085601f8301126129fb57600080fd5b813581811115612a0d57612a0d6126da565b612a1f601f8201601f19168501612719565b91508082528684828501011115612a3557600080fd5b80848401858401376000908201840152918301919091525092915050565b60008060008084860360c0811215612a6a57600080fd5b6060811215612a7857600080fd5b506040516060810167ffffffffffffffff8282108183111715612a9d57612a9d6126da565b8160405287359150612aae826127d9565b818352602088013560208401526040880135604084015282965060608801359250612ad8836127d9565b919450608087013591612aea836127d9565b91935060a08701359180831115612b0057600080fd5b5050612b0e878288016129ab565b91505092959194509250565b801515811461218c57600080fd5b60008060408385031215612b3b57600080fd5b823591506020830135612b4d81612b1a565b809150509250929050565b600082601f830112612b6957600080fd5b81356020612b7961278f8361274a565b82815260059290921b84018101918181019086841115612b9857600080fd5b8286015b848110156127ce578035612baf81612b1a565b8352918301918301612b9c565b60008060008060008060c08789031215612bd557600080fd5b863567ffffffffffffffff80821115612bed57600080fd5b612bf98a838b0161276e565b97506020890135915080821115612c0f57600080fd5b612c1b8a838b01612b58565b96506040890135915080821115612c3157600080fd5b612c3d8a838b0161276e565b95506060890135915080821115612c5357600080fd5b612c5f8a838b0161276e565b94506080890135915080821115612c7557600080fd5b612c818a838b0161276e565b935060a0890135915080821115612c9757600080fd5b50612ca489828a016127ee565b9150509295509295509295565b60008060408385031215612cc457600080fd5b823591506020830135612b4d816127d9565b600081518084526020808501945080840160005b83811015612d0657815187529582019590820190600101612cea565b509495945050505050565b608081526000612d246080830187612cd6565b8281036020840152612d368187612cd6565b604084019590955250506060015292915050565b60008060408385031215612d5d57600080fd5b50508035926020909101359150565b600060208284031215612d7e57600080fd5b8135612d89816127d9565b9392505050565b634e487b7160e01b600052603260045260246000fd5b600060208284031215612db857600080fd5b8151612d89816127d9565b634e487b7160e01b600052601160045260246000fd5b6000600019821415612ded57612ded612dc3565b5060010190565b6000816000190483118215151615612e0e57612e0e612dc3565b500290565b600082612e3057634e487b7160e01b600052601260045260246000fd5b500490565b600060208284031215612e4757600080fd5b5051919050565b60005b83811015612e69578181015183820152602001612e51565b83811115610c215750506000910152565b60008251612e8c818460208701612e4e565b9190910192915050565b8381526001600160a01b03831660208201526060604082015260008251806060840152612eca816080850160208701612e4e565b601f01601f191691909101608001949350505050565b600082821015612ef257612ef2612dc3565b500390565b600060208284031215612f0957600080fd5b8151612d8981612b1a565b60008219821115612f2757612f27612dc3565b50019056fea2646970667358221220f70c8bd4250a37ca0bfc4e4e9daefa164f8b866e604a5e4af1e4a8c14376b9f864736f6c63430008080033",
  "linkReferences": {},
  "deployedLinkReferences": {}
}