{
  "_format": "hh-sol-artifact-1",
  "contractName": "StokeMarketplace",
  "sourceName": "contracts/StokeMarketPlace.sol",
  "abi": [
    {
      "inputs": [],
      "stateMutability": "nonpayable",
      "type": "constructor"
    },
    {
      "anonymous": false,
      "inputs": [
        {
          "indexed": false,
          "internalType": "uint256",
          "name": "id",
          "type": "uint256"
        },
        {
          "indexed": false,
          "internalType": "address",
          "name": "token",
          "type": "address"
        },
        {
          "indexed": false,
          "internalType": "uint256",
          "name": "tokenId",
          "type": "uint256"
        },
        {
          "indexed": false,
          "internalType": "uint256",
          "name": "price",
          "type": "uint256"
        },
        {
          "indexed": false,
          "internalType": "address payable",
          "name": "sender",
          "type": "address"
        },
        {
          "indexed": false,
          "internalType": "address",
          "name": "nftContract",
          "type": "address"
        },
        {
          "indexed": false,
          "internalType": "uint256",
          "name": "expiresAt",
          "type": "uint256"
        },
        {
          "indexed": false,
          "internalType": "uint256",
          "name": "startedAt",
          "type": "uint256"
        }
      ],
      "name": "offerItemCreated",
      "type": "event"
    },
    {
      "inputs": [
        {
          "internalType": "uint256",
          "name": "_id",
          "type": "uint256"
        }
      ],
      "name": "acceptOffer",
      "outputs": [],
      "stateMutability": "nonpayable",
      "type": "function"
    },
    {
      "inputs": [
        {
          "internalType": "uint256",
          "name": "tokenId",
          "type": "uint256"
        }
      ],
      "name": "getOffersByTokenId",
      "outputs": [
        {
          "components": [
            {
              "internalType": "uint256",
              "name": "id",
              "type": "uint256"
            },
            {
              "internalType": "address",
              "name": "token",
              "type": "address"
            },
            {
              "internalType": "uint256",
              "name": "tokenId",
              "type": "uint256"
            },
            {
              "internalType": "uint256",
              "name": "price",
              "type": "uint256"
            },
            {
              "internalType": "address payable",
              "name": "sender",
              "type": "address"
            },
            {
              "internalType": "address",
              "name": "nftContract",
              "type": "address"
            },
            {
              "internalType": "uint256",
              "name": "expiresAt",
              "type": "uint256"
            },
            {
              "internalType": "uint256",
              "name": "startedAt",
              "type": "uint256"
            }
          ],
          "internalType": "struct StokeMarketplace.OfferItem[]",
          "name": "",
          "type": "tuple[]"
        }
      ],
      "stateMutability": "view",
      "type": "function"
    },
    {
      "inputs": [
        {
          "internalType": "address",
          "name": "_token",
          "type": "address"
        },
        {
          "internalType": "uint256",
          "name": "amount",
          "type": "uint256"
        },
        {
          "internalType": "uint256",
          "name": "_tokenId",
          "type": "uint256"
        },
        {
          "internalType": "address",
          "name": "_nftContract",
          "type": "address"
        },
        {
          "internalType": "uint256",
          "name": "_expiresAt",
          "type": "uint256"
        }
      ],
      "name": "makeOffer",
      "outputs": [],
      "stateMutability": "nonpayable",
      "type": "function"
    },
    {
      "inputs": [],
      "name": "marketowner",
      "outputs": [
        {
          "internalType": "address payable",
          "name": "",
          "type": "address"
        }
      ],
      "stateMutability": "view",
      "type": "function"
    },
    {
      "inputs": [
        {
          "internalType": "uint256",
          "name": "",
          "type": "uint256"
        }
      ],
      "name": "offerItems",
      "outputs": [
        {
          "internalType": "uint256",
          "name": "id",
          "type": "uint256"
        },
        {
          "internalType": "address",
          "name": "token",
          "type": "address"
        },
        {
          "internalType": "uint256",
          "name": "tokenId",
          "type": "uint256"
        },
        {
          "internalType": "uint256",
          "name": "price",
          "type": "uint256"
        },
        {
          "internalType": "address payable",
          "name": "sender",
          "type": "address"
        },
        {
          "internalType": "address",
          "name": "nftContract",
          "type": "address"
        },
        {
          "internalType": "uint256",
          "name": "expiresAt",
          "type": "uint256"
        },
        {
          "internalType": "uint256",
          "name": "startedAt",
          "type": "uint256"
        }
      ],
      "stateMutability": "view",
      "type": "function"
    }
  ],
  "bytecode": "0x608060405234801561001057600080fd5b506001600055600280546001600160a01b03191633179055610f33806100376000396000f3fe608060405234801561001057600080fd5b50600436106100675760003560e01c80635e385b92116100505780635e385b921461013e578063c815729d14610169578063ed73606a1461017e57600080fd5b8063328f7a641461006c57806356439ad01461011e575b600080fd5b6100ce61007a366004610ccc565b60036020819052600091825260409091208054600182015460028301549383015460048401546005850154600686015460079096015494966001600160a01b03948516969095939492831693929091169188565b604080519889526001600160a01b0397881660208a01528801959095526060870193909352908416608086015290921660a084015260c083019190915260e0820152610100015b60405180910390f35b61013161012c366004610ccc565b610191565b6040516101159190610ce5565b600254610151906001600160a01b031681565b6040516001600160a01b039091168152602001610115565b61017c610177366004610ccc565b610385565b005b61017c61018c366004610d97565b610990565b6060600061019e60015490565b905060008060005b8381116101e6576000818152600360205260409020600201548614156101d457826101d081610dff565b9350505b806101de81610dff565b9150506101a6565b5060008267ffffffffffffffff81111561020257610202610e1a565b60405190808252806020026020018201604052801561029657816020015b6102836040518061010001604052806000815260200160006001600160a01b03168152602001600081526020016000815260200160006001600160a01b0316815260200160006001600160a01b0316815260200160008152602001600081525090565b8152602001906001900390816102205790505b50905060015b8481116103715760008181526003602052604090206002015487141561035f576000818152600360208181526040928390208351610100810185528154815260018201546001600160a01b039081169382019390935260028201549481019490945291820154606084015260048201548116608084015260058201541660a0830152600681015460c08301526007015460e0820152825183908590811061034557610345610e30565b6020026020010181905250828061035b90610dff565b9350505b8061036981610dff565b91505061029c565b5061037c8151610c35565b95945050505050565b600260005414156103dd5760405162461bcd60e51b815260206004820152601f60248201527f5265656e7472616e637947756172643a207265656e7472616e742063616c6c0060448201526064015b60405180910390fd5b6002600081815582815260036020819052604090912060018101549181015460048201549382015460058301546006909301546001600160a01b03948516959294928316939192909116904211156104775760405162461bcd60e51b815260206004820152601e60248201527f4d61726b6574706c6163653a20746865206f666665722065787069726564000060448201526064016103d4565b604051636eb1769f60e11b81526001600160a01b03848116600483015230602483015285919087169063dd62ed3e9060440160206040518083038186803b1580156104c157600080fd5b505afa1580156104d5573d6000803e3d6000fd5b505050506040513d601f19601f820116820180604052508101906104f99190610e46565b146105465760405162461bcd60e51b815260206004820152601e60248201527f4d61726b6574506c6163653a20496e66666c75656e636520616d6f756e74000060448201526064016103d4565b60196103e86000816105588489610e5f565b6105629190610e7e565b6040516323b872dd60e01b81526001600160a01b038881166004830152306024830152604482018a9052919250908916906323b872dd90606401602060405180830381600087803b1580156105b657600080fd5b505af11580156105ca573d6000803e3d6000fd5b505050506040513d601f19601f820116820180604052508101906105ee9190610ea0565b506001600160a01b03881663a9059cbb33610609848b610ec9565b6040517fffffffff0000000000000000000000000000000000000000000000000000000060e085901b1681526001600160a01b0390921660048301526024820152604401602060405180830381600087803b15801561066757600080fd5b505af115801561067b573d6000803e3d6000fd5b505050506040513d601f19601f8201168201806040525081019061069f9190610ea0565b506002546040517fa9059cbb0000000000000000000000000000000000000000000000000000000081526001600160a01b039182166004820152602481018390529089169063a9059cbb90604401602060405180830381600087803b15801561070757600080fd5b505af115801561071b573d6000803e3d6000fd5b505050506040513d601f19601f8201168201806040525081019061073f9190610ea0565b506040517f081812fc0000000000000000000000000000000000000000000000000000000081526004810186905230906001600160a01b0386169063081812fc9060240160206040518083038186803b15801561079b57600080fd5b505afa1580156107af573d6000803e3d6000fd5b505050506040513d601f19601f820116820180604052508101906107d39190610ee0565b6001600160a01b03161461084f5760405162461bcd60e51b815260206004820152602b60248201527f4d61726b6574506c6163653a204e4654206d75737420626520617070726f766560448201527f6420746f206d61726b657400000000000000000000000000000000000000000060648201526084016103d4565b6040516323b872dd60e01b8152336004820152306024820152604481018690526001600160a01b038516906323b872dd90606401600060405180830381600087803b15801561089d57600080fd5b505af11580156108b1573d6000803e3d6000fd5b50506040516323b872dd60e01b81523060048201526001600160a01b03898116602483015260448201899052871692506323b872dd9150606401600060405180830381600087803b15801561090557600080fd5b505af1158015610919573d6000803e3d6000fd5b5050506000998a52505060036020819052604089208981556001808201805473ffffffffffffffffffffffffffffffffffffffff19908116909155600283018c90559282018b905560048201805484169055600582018054909316909255600681018a905560070189905590975550505050505050565b600260005414156109e35760405162461bcd60e51b815260206004820152601f60248201527f5265656e7472616e637947756172643a207265656e7472616e742063616c6c0060448201526064016103d4565b60026000556109f6600180546001019055565b6000610a0160015490565b604051636eb1769f60e11b815233600482015230602482015290915085906001600160a01b0388169063dd62ed3e9060440160206040518083038186803b158015610a4b57600080fd5b505afa158015610a5f573d6000803e3d6000fd5b505050506040513d601f19601f82011682018060405250810190610a839190610e46565b14610ad05760405162461bcd60e51b815260206004820152601d60248201527f4d61726b6574506c6163653a20696e666c75656e636520616d6f756e7400000060448201526064016103d4565b60408051610100810182528281526001600160a01b038089166020808401918252838501898152606085018b815233608087018181528b871660a0890190815260c089018c81524260e08b0181815260008e81526003998a90528d90209b518c55985160018c018054918c1673ffffffffffffffffffffffffffffffffffffffff19928316179055965160028c01559451968a01969096559051600489018054918916918616919091179055516005880180549190971693169290921790945590516006850155905160079093019290925591517fcb1d4eea428715a82791927fc1cfe1e1334ae8e5b47fb30ba2f607c9e482216592610c209285928b928a928c9290918b918b91909788526001600160a01b03968716602089015260408801959095526060870193909352908416608086015290921660a084015260c083019190915260e08201526101000190565b60405180910390a15050600160005550505050565b610ca881604051602401610c4b91815260200190565b60408051601f198184030181529190526020810180517bffffffffffffffffffffffffffffffffffffffffffffffffffffffff167ff5b1bba900000000000000000000000000000000000000000000000000000000179052610cab565b50565b80516a636f6e736f6c652e6c6f67602083016000808483855afa5050505050565b600060208284031215610cde57600080fd5b5035919050565b602080825282518282018190526000919060409081850190868401855b82811015610d7557815180518552868101516001600160a01b039081168887015286820151878701526060808301519087015260808083015182169087015260a0808301519091169086015260c0808201519086015260e090810151908501526101009093019290850190600101610d02565b5091979650505050505050565b6001600160a01b0381168114610ca857600080fd5b600080600080600060a08688031215610daf57600080fd5b8535610dba81610d82565b945060208601359350604086013592506060860135610dd881610d82565b949793965091946080013592915050565b634e487b7160e01b600052601160045260246000fd5b6000600019821415610e1357610e13610de9565b5060010190565b634e487b7160e01b600052604160045260246000fd5b634e487b7160e01b600052603260045260246000fd5b600060208284031215610e5857600080fd5b5051919050565b6000816000190483118215151615610e7957610e79610de9565b500290565b600082610e9b57634e487b7160e01b600052601260045260246000fd5b500490565b600060208284031215610eb257600080fd5b81518015158114610ec257600080fd5b9392505050565b600082821015610edb57610edb610de9565b500390565b600060208284031215610ef257600080fd5b8151610ec281610d8256fea2646970667358221220280431a849d25d0984cd4eee32d8ee614b7ebb7f1f796eb0222fdc881faa133664736f6c63430008080033",
  "linkReferences": {},
  "deployedLinkReferences": {}
}