{
  "_format": "hh-sol-artifact-1",
  "contractName": "StokeMarketplace",
  "sourceName": "contracts/StokeMarketPlace.sol",
  "abi": [
    {
      "anonymous": false,
      "inputs": [
        {
          "indexed": true,
          "internalType": "address",
          "name": "previousOwner",
          "type": "address"
        },
        {
          "indexed": true,
          "internalType": "address",
          "name": "newOwner",
          "type": "address"
        }
      ],
      "name": "OwnershipTransferred",
      "type": "event"
    },
    {
      "anonymous": false,
      "inputs": [
        {
          "indexed": false,
          "internalType": "uint256",
          "name": "id",
          "type": "uint256"
        },
        {
          "indexed": false,
          "internalType": "address",
          "name": "token",
          "type": "address"
        },
        {
          "indexed": false,
          "internalType": "uint256",
          "name": "tokenId",
          "type": "uint256"
        },
        {
          "indexed": false,
          "internalType": "uint256",
          "name": "price",
          "type": "uint256"
        },
        {
          "indexed": false,
          "internalType": "address payable",
          "name": "from",
          "type": "address"
        },
        {
          "indexed": false,
          "internalType": "uint256",
          "name": "expiresAt",
          "type": "uint256"
        },
        {
          "indexed": false,
          "internalType": "uint256",
          "name": "startedAt",
          "type": "uint256"
        }
      ],
      "name": "offerItemCreated",
      "type": "event"
    },
    {
      "inputs": [
        {
          "internalType": "uint256",
          "name": "_id",
          "type": "uint256"
        },
        {
          "internalType": "address",
          "name": "_nftContract",
          "type": "address"
        }
      ],
      "name": "acceptOffer",
      "outputs": [],
      "stateMutability": "nonpayable",
      "type": "function"
    },
    {
      "inputs": [
        {
          "internalType": "uint256",
          "name": "tokenId",
          "type": "uint256"
        }
      ],
      "name": "getOffersByTokenId",
      "outputs": [
        {
          "components": [
            {
              "internalType": "uint256",
              "name": "id",
              "type": "uint256"
            },
            {
              "internalType": "address",
              "name": "token",
              "type": "address"
            },
            {
              "internalType": "uint256",
              "name": "tokenId",
              "type": "uint256"
            },
            {
              "internalType": "uint256",
              "name": "price",
              "type": "uint256"
            },
            {
              "internalType": "address payable",
              "name": "from",
              "type": "address"
            },
            {
              "internalType": "uint256",
              "name": "expiresAt",
              "type": "uint256"
            },
            {
              "internalType": "uint256",
              "name": "startedAt",
              "type": "uint256"
            }
          ],
          "internalType": "struct StokeMarketplace.OfferItem[]",
          "name": "",
          "type": "tuple[]"
        }
      ],
      "stateMutability": "view",
      "type": "function"
    },
    {
      "inputs": [
        {
          "internalType": "address",
          "name": "_token",
          "type": "address"
        },
        {
          "internalType": "uint256",
          "name": "amount",
          "type": "uint256"
        },
        {
          "internalType": "uint256",
          "name": "_tokenId",
          "type": "uint256"
        },
        {
          "internalType": "uint256",
          "name": "_expiresAt",
          "type": "uint256"
        }
      ],
      "name": "makeOffer",
      "outputs": [],
      "stateMutability": "nonpayable",
      "type": "function"
    },
    {
      "inputs": [
        {
          "internalType": "uint256",
          "name": "",
          "type": "uint256"
        }
      ],
      "name": "offerItems",
      "outputs": [
        {
          "internalType": "uint256",
          "name": "id",
          "type": "uint256"
        },
        {
          "internalType": "address",
          "name": "token",
          "type": "address"
        },
        {
          "internalType": "uint256",
          "name": "tokenId",
          "type": "uint256"
        },
        {
          "internalType": "uint256",
          "name": "price",
          "type": "uint256"
        },
        {
          "internalType": "address payable",
          "name": "from",
          "type": "address"
        },
        {
          "internalType": "uint256",
          "name": "expiresAt",
          "type": "uint256"
        },
        {
          "internalType": "uint256",
          "name": "startedAt",
          "type": "uint256"
        }
      ],
      "stateMutability": "view",
      "type": "function"
    },
    {
      "inputs": [],
      "name": "owner",
      "outputs": [
        {
          "internalType": "address",
          "name": "",
          "type": "address"
        }
      ],
      "stateMutability": "view",
      "type": "function"
    },
    {
      "inputs": [],
      "name": "renounceOwnership",
      "outputs": [],
      "stateMutability": "nonpayable",
      "type": "function"
    },
    {
      "inputs": [
        {
          "internalType": "address",
          "name": "newOwner",
          "type": "address"
        }
      ],
      "name": "transferOwnership",
      "outputs": [],
      "stateMutability": "nonpayable",
      "type": "function"
    }
  ],
  "bytecode": "0x608060405234801561001057600080fd5b5061001a33610023565b60018055610073565b600080546001600160a01b038381166001600160a01b0319831681178455604051919092169283917f8be0079c531659141344cd1fd0a4f28419497f9722a3daafe3b4186f6b6457e09190a35050565b610cc9806100826000396000f3fe608060405234801561001057600080fd5b506004361061007d5760003560e01c80638da5cb5b1161005b5780638da5cb5b1461014b578063918d407d14610166578063eb4aa83014610179578063f2fde38b1461018c57600080fd5b8063328f7a641461008257806356439ad014610121578063715018a614610141575b600080fd5b6100da610090366004610ab7565b6003602081905260009182526040909120805460018201546002830154938301546004840154600585015460069095015493956001600160a01b0393841695909492939091169187565b604080519788526001600160a01b0396871660208901528701949094526060860192909252909216608084015260a083019190915260c082015260e0015b60405180910390f35b61013461012f366004610ab7565b61019f565b6040516101189190610ad0565b610149610375565b005b6000546040516001600160a01b039091168152602001610118565b610149610174366004610b7c565b6103e0565b610149610187366004610ba8565b6105b3565b61014961019a366004610be1565b6108e4565b606060006101ac60025490565b905060008060005b8381116101f4576000818152600360205260409020600201548614156101e257826101de81610c03565b9350505b806101ec81610c03565b9150506101b4565b5060008267ffffffffffffffff81111561021057610210610c2c565b60405190808252806020026020018201604052801561029357816020015b6102806040518060e001604052806000815260200160006001600160a01b03168152602001600081526020016000815260200160006001600160a01b0316815260200160008152602001600081525090565b81526020019060019003908161022e5790505b50905060015b8481116103615760008181526003602052604090206002015487141561034f57600081815260036020818152604092839020835160e0810185528154815260018201546001600160a01b03908116938201939093526002820154948101949094529182015460608401526004820154166080830152600581015460a08301526006015460c0820152825183908590811061033557610335610c42565b6020026020010181905250828061034b90610c03565b9350505b8061035981610c03565b915050610299565b5061036c81516109c6565b95945050505050565b6000546001600160a01b031633146103d45760405162461bcd60e51b815260206004820181905260248201527f4f776e61626c653a2063616c6c6572206973206e6f7420746865206f776e657260448201526064015b60405180910390fd5b6103de6000610a39565b565b600260015414156104335760405162461bcd60e51b815260206004820152601f60248201527f5265656e7472616e637947756172643a207265656e7472616e742063616c6c0060448201526064016103cb565b60026001908155600083815260036020819052604090912091820154908201546005909201546001600160a01b0390911691904211156104b55760405162461bcd60e51b815260206004820152601e60248201527f4d61726b6574706c6163653a20746865206f666665722065787069726564000060448201526064016103cb565b6040517fa9059cbb000000000000000000000000000000000000000000000000000000008152336004820152602481018290526001600160a01b0383169063a9059cbb90604401602060405180830381600087803b15801561051657600080fd5b505af115801561052a573d6000803e3d6000fd5b505050506040513d601f19601f8201168201806040525081019061054e9190610c58565b50505060009182525060036020819052604082208281556001808201805473ffffffffffffffffffffffffffffffffffffffff199081169091556002830185905592820184905560048201805490931690925560058101839055600601919091558055565b600260015414156106065760405162461bcd60e51b815260206004820152601f60248201527f5265656e7472616e637947756172643a207265656e7472616e742063616c6c0060448201526064016103cb565b60026001556040517fdd62ed3e00000000000000000000000000000000000000000000000000000000815233600482015230602482015283906001600160a01b0386169063dd62ed3e9060440160206040518083038186803b15801561066b57600080fd5b505afa15801561067f573d6000803e3d6000fd5b505050506040513d601f19601f820116820180604052508101906106a39190610c7a565b146106f05760405162461bcd60e51b815260206004820152601460248201527f696e73756666656369616e742062616c616e636500000000000000000000000060448201526064016103cb565b6040517f23b872dd000000000000000000000000000000000000000000000000000000008152336004820152306024820152604481018490526001600160a01b038516906323b872dd90606401602060405180830381600087803b15801561075757600080fd5b505af115801561076b573d6000803e3d6000fd5b505050506040513d601f19601f8201168201806040525081019061078f9190610c58565b5061079e600280546001019055565b60006107a960025490565b6040805160e0810182528281526001600160a01b038089166020808401918252838501898152606085018b8152336080870181815260a088018c81524260c08a0181815260008d81526003988990528c90209a518b55975160018b018054918b1673ffffffffffffffffffffffffffffffffffffffff19928316179055955160028b0155935195890195909555516004880180549190971693169290921790945590516005850155905160069093019290925591519293507ffc155f42f9e4e76cb52430bdd46e2bf2c34042244da0d4653e4d16870af868a8926108d19285928a9289928b92918a91909687526001600160a01b03958616602088015260408701949094526060860192909252909216608084015260a083019190915260c082015260e00190565b60405180910390a1505060018055505050565b6000546001600160a01b0316331461093e5760405162461bcd60e51b815260206004820181905260248201527f4f776e61626c653a2063616c6c6572206973206e6f7420746865206f776e657260448201526064016103cb565b6001600160a01b0381166109ba5760405162461bcd60e51b815260206004820152602660248201527f4f776e61626c653a206e6577206f776e657220697320746865207a65726f206160448201527f646472657373000000000000000000000000000000000000000000000000000060648201526084016103cb565b6109c381610a39565b50565b6109c3816040516024016109dc91815260200190565b60408051601f198184030181529190526020810180517bffffffffffffffffffffffffffffffffffffffffffffffffffffffff167ff5b1bba900000000000000000000000000000000000000000000000000000000179052610a96565b600080546001600160a01b0383811673ffffffffffffffffffffffffffffffffffffffff19831681178455604051919092169283917f8be0079c531659141344cd1fd0a4f28419497f9722a3daafe3b4186f6b6457e09190a35050565b80516a636f6e736f6c652e6c6f67602083016000808483855afa5050505050565b600060208284031215610ac957600080fd5b5035919050565b602080825282518282018190526000919060409081850190868401855b82811015610b5357815180518552868101516001600160a01b03908116888701528682015187870152606080830151908701526080808301519091169086015260a0808201519086015260c0908101519085015260e09093019290850190600101610aed565b5091979650505050505050565b80356001600160a01b0381168114610b7757600080fd5b919050565b60008060408385031215610b8f57600080fd5b82359150610b9f60208401610b60565b90509250929050565b60008060008060808587031215610bbe57600080fd5b610bc785610b60565b966020860135965060408601359560600135945092505050565b600060208284031215610bf357600080fd5b610bfc82610b60565b9392505050565b6000600019821415610c2557634e487b7160e01b600052601160045260246000fd5b5060010190565b634e487b7160e01b600052604160045260246000fd5b634e487b7160e01b600052603260045260246000fd5b600060208284031215610c6a57600080fd5b81518015158114610bfc57600080fd5b600060208284031215610c8c57600080fd5b505191905056fea2646970667358221220db6268eb33d381d0ab52e2d6bf4edb1a6559b7f50f18b48699bf749771dbb57764736f6c63430008080033",
  "linkReferences": {},
  "deployedLinkReferences": {}
}