{
  "_format": "hh-sol-artifact-1",
  "contractName": "StokeMarketplace",
  "sourceName": "contracts/StokeMarketPlace.sol",
  "abi": [
    {
      "inputs": [],
      "stateMutability": "nonpayable",
      "type": "constructor"
    },
    {
      "inputs": [
        {
          "components": [
            {
              "internalType": "address",
              "name": "sender",
              "type": "address"
            },
            {
              "internalType": "uint256",
              "name": "amount",
              "type": "uint256"
            },
            {
              "internalType": "uint256",
              "name": "expiresAt",
              "type": "uint256"
            }
          ],
          "internalType": "struct StokeMarketplace.Offer",
          "name": "offer",
          "type": "tuple"
        },
        {
          "internalType": "address",
          "name": "WETH",
          "type": "address"
        },
        {
          "internalType": "address",
          "name": "_nftContract",
          "type": "address"
        },
        {
          "components": [
            {
              "internalType": "uint256",
              "name": "tokenId",
              "type": "uint256"
            },
            {
              "internalType": "string",
              "name": "tokenURI",
              "type": "string"
            }
          ],
          "internalType": "struct StokeMarketplace.Token",
          "name": "token",
          "type": "tuple"
        }
      ],
      "name": "accept",
      "outputs": [],
      "stateMutability": "nonpayable",
      "type": "function"
    },
    {
      "inputs": [],
      "name": "marketowner",
      "outputs": [
        {
          "internalType": "address payable",
          "name": "",
          "type": "address"
        }
      ],
      "stateMutability": "view",
      "type": "function"
    }
  ],
  "bytecode": "0x608060405234801561001057600080fd5b506001600055600280546001600160a01b031916331790556109e7806100376000396000f3fe608060405234801561001057600080fd5b50600436106100365760003560e01c8063586351621461003b5780635e385b9214610050575b600080fd5b61004e610049366004610742565b61007f565b005b600254610063906001600160a01b031681565b6040516001600160a01b03909116815260200160405180910390f35b42846040015110156100d85760405162461bcd60e51b815260206004820152601e60248201527f4d61726b6574506c6163653a20746865206f666665722065787069726564000060448201526064015b60405180910390fd5b60208401516019906103e89060009082906100f4908590610881565b6100fe91906108a0565b87516040517f70a082310000000000000000000000000000000000000000000000000000000081526001600160a01b039182166004820152919250600091908816906370a082319060240160206040518083038186803b15801561016157600080fd5b505afa158015610175573d6000803e3d6000fd5b505050506040513d601f19601f8201168201806040525081019061019991906108c2565b905087602001518110156102155760405162461bcd60e51b815260206004820152602e60248201527f4d61726b6574506c6163653a204f666665722073656e64657220686173206e6f60448201527f20656e6f7567687420746f6b656e00000000000000000000000000000000000060648201526084016100cf565b875160208901516040516001600160a01b039283166024820152306044820152606481019190915260009189169060840160408051601f198184030181529181526020820180516001600160e01b03167f104e81ff0000000000000000000000000000000000000000000000000000000017905251610294919061090b565b6000604051808303816000865af19150503d80600081146102d1576040519150601f19603f3d011682016040523d82523d6000602084013e6102d6565b606091505b505090506102e381610615565b6000876001600160a01b031687600001518b60000151896020015160405160240161031093929190610927565b60408051601f198184030181529181526020820180516001600160e01b03167fd9b38c51000000000000000000000000000000000000000000000000000000001790525161035e919061090b565b6000604051808303816000865af19150503d806000811461039b576040519150601f19603f3d011682016040523d82523d6000602084013e6103a0565b606091505b505090506103ad81610615565b60208a01518a516040517fdd62ed3e0000000000000000000000000000000000000000000000000000000081526001600160a01b039182166004820152306024820152908b169063dd62ed3e9060440160206040518083038186803b15801561041557600080fd5b505afa158015610429573d6000803e3d6000fd5b505050506040513d601f19601f8201168201806040525081019061044d91906108c2565b1461049a5760405162461bcd60e51b815260206004820152601360248201527f696e73756666696369656e7420616d6f756e740000000000000000000000000060448201526064016100cf565b886001600160a01b03166323b872dd8b6000015133878e602001516104bf9190610971565b6040517fffffffff0000000000000000000000000000000000000000000000000000000060e086901b1681526001600160a01b0393841660048201529290911660248301526044820152606401602060405180830381600087803b15801561052657600080fd5b505af115801561053a573d6000803e3d6000fd5b505050506040513d601f19601f8201168201806040525081019061055e9190610988565b5089516002546040517f23b872dd0000000000000000000000000000000000000000000000000000000081526001600160a01b039283166004820152908216602482015260448101869052908a16906323b872dd90606401602060405180830381600087803b1580156105d057600080fd5b505af11580156105e4573d6000803e3d6000fd5b505050506040513d601f19601f820116820180604052508101906106089190610988565b5050505050505050505050565b604051811515602482015261066f9060440160408051601f198184030181529190526020810180516001600160e01b03167f32458eed00000000000000000000000000000000000000000000000000000000179052610672565b50565b80516a636f6e736f6c652e6c6f67602083016000808483855afa5050505050565b634e487b7160e01b600052604160045260246000fd5b6040516060810167ffffffffffffffff811182821017156106cc576106cc610693565b60405290565b6040805190810167ffffffffffffffff811182821017156106cc576106cc610693565b604051601f8201601f1916810167ffffffffffffffff8111828210171561071e5761071e610693565b604052919050565b80356001600160a01b038116811461073d57600080fd5b919050565b60008060008084860360c081121561075957600080fd5b606081121561076757600080fd5b506107706106a9565b61077986610726565b8152602080870135818301526040870135604083015281955061079e60608801610726565b94506107ac60808801610726565b935060a0870135915067ffffffffffffffff808311156107cb57600080fd5b918701916040838a0312156107df57600080fd5b6107e76106d2565b8335815282840135828111156107fc57600080fd5b80850194505089601f85011261081157600080fd5b83358281111561082357610823610693565b610835601f8201601f191685016106f5565b92508083528a8482870101111561084b57600080fd5b808486018585013760009083018401529182015294979396509194505050565b634e487b7160e01b600052601160045260246000fd5b600081600019048311821515161561089b5761089b61086b565b500290565b6000826108bd57634e487b7160e01b600052601260045260246000fd5b500490565b6000602082840312156108d457600080fd5b5051919050565b60005b838110156108f65781810151838201526020016108de565b83811115610905576000848401525b50505050565b6000825161091d8184602087016108db565b9190910192915050565b8381526001600160a01b0383166020820152606060408201526000825180606084015261095b8160808501602087016108db565b601f01601f191691909101608001949350505050565b6000828210156109835761098361086b565b500390565b60006020828403121561099a57600080fd5b815180151581146109aa57600080fd5b939250505056fea26469706673582212202f2bc05a1e076a97f525d6f6c48884b031644b0f2506adff2d5a1df4f7b6669964736f6c63430008080033",
  "linkReferences": {},
  "deployedLinkReferences": {}
}