{
  "_format": "hh-sol-artifact-1",
  "contractName": "StokeMarketplace",
  "sourceName": "contracts/StokeMarketPlace.sol",
  "abi": [
    {
      "inputs": [],
      "stateMutability": "nonpayable",
      "type": "constructor"
    },
    {
      "anonymous": false,
      "inputs": [
        {
          "indexed": true,
          "internalType": "address",
          "name": "previousOwner",
          "type": "address"
        },
        {
          "indexed": true,
          "internalType": "address",
          "name": "newOwner",
          "type": "address"
        }
      ],
      "name": "OwnershipTransferred",
      "type": "event"
    },
    {
      "inputs": [
        {
          "components": [
            {
              "internalType": "address",
              "name": "sender",
              "type": "address"
            },
            {
              "internalType": "uint256",
              "name": "amount",
              "type": "uint256"
            },
            {
              "internalType": "uint256",
              "name": "expiresAt",
              "type": "uint256"
            }
          ],
          "internalType": "struct StokeMarketplace.Offer",
          "name": "offer",
          "type": "tuple"
        },
        {
          "internalType": "address",
          "name": "WETH",
          "type": "address"
        },
        {
          "internalType": "address",
          "name": "_nftContract",
          "type": "address"
        },
        {
          "components": [
            {
              "internalType": "uint256",
              "name": "tokenId",
              "type": "uint256"
            },
            {
              "internalType": "string",
              "name": "tokenURI",
              "type": "string"
            }
          ],
          "internalType": "struct StokeMarketplace.Token",
          "name": "token",
          "type": "tuple"
        },
        {
          "internalType": "bytes",
          "name": "signature",
          "type": "bytes"
        }
      ],
      "name": "accept",
      "outputs": [],
      "stateMutability": "nonpayable",
      "type": "function"
    },
    {
      "inputs": [
        {
          "internalType": "uint256",
          "name": "_tokenId",
          "type": "uint256"
        }
      ],
      "name": "auctionDetail",
      "outputs": [
        {
          "internalType": "uint256",
          "name": "",
          "type": "uint256"
        },
        {
          "internalType": "address",
          "name": "",
          "type": "address"
        }
      ],
      "stateMutability": "view",
      "type": "function"
    },
    {
      "inputs": [
        {
          "internalType": "uint256",
          "name": "",
          "type": "uint256"
        }
      ],
      "name": "auctionSaleNftList",
      "outputs": [
        {
          "internalType": "uint256",
          "name": "",
          "type": "uint256"
        }
      ],
      "stateMutability": "view",
      "type": "function"
    },
    {
      "inputs": [
        {
          "internalType": "uint256",
          "name": "_tokenId",
          "type": "uint256"
        }
      ],
      "name": "buyAuction",
      "outputs": [],
      "stateMutability": "payable",
      "type": "function"
    },
    {
      "inputs": [
        {
          "internalType": "uint256",
          "name": "_tokenId",
          "type": "uint256"
        },
        {
          "internalType": "address",
          "name": "_nftContract",
          "type": "address"
        }
      ],
      "name": "buyNft",
      "outputs": [],
      "stateMutability": "payable",
      "type": "function"
    },
    {
      "inputs": [
        {
          "internalType": "address payable",
          "name": "_recipient",
          "type": "address"
        },
        {
          "internalType": "uint256",
          "name": "_tokenId",
          "type": "uint256"
        },
        {
          "internalType": "address",
          "name": "_nftContract",
          "type": "address"
        }
      ],
      "name": "buyOrder",
      "outputs": [],
      "stateMutability": "payable",
      "type": "function"
    },
    {
      "inputs": [
        {
          "internalType": "uint256",
          "name": "_tokenId",
          "type": "uint256"
        },
        {
          "internalType": "address",
          "name": "_nftContract",
          "type": "address"
        }
      ],
      "name": "cancelFixedSale",
      "outputs": [],
      "stateMutability": "nonpayable",
      "type": "function"
    },
    {
      "inputs": [
        {
          "internalType": "uint256",
          "name": "",
          "type": "uint256"
        },
        {
          "internalType": "uint256",
          "name": "",
          "type": "uint256"
        }
      ],
      "name": "collectionStored",
      "outputs": [
        {
          "internalType": "uint256",
          "name": "",
          "type": "uint256"
        }
      ],
      "stateMutability": "view",
      "type": "function"
    },
    {
      "inputs": [
        {
          "internalType": "uint256",
          "name": "",
          "type": "uint256"
        }
      ],
      "name": "fixedSaleNftList",
      "outputs": [
        {
          "internalType": "uint256",
          "name": "",
          "type": "uint256"
        }
      ],
      "stateMutability": "view",
      "type": "function"
    },
    {
      "inputs": [
        {
          "internalType": "uint256[]",
          "name": "_tokenIds",
          "type": "uint256[]"
        },
        {
          "internalType": "uint256[]",
          "name": "_prices",
          "type": "uint256[]"
        },
        {
          "internalType": "uint256[]",
          "name": "_startTimes",
          "type": "uint256[]"
        },
        {
          "internalType": "uint256[]",
          "name": "_endTimes",
          "type": "uint256[]"
        },
        {
          "internalType": "address[]",
          "name": "_nftContracts",
          "type": "address[]"
        }
      ],
      "name": "fixedSales",
      "outputs": [],
      "stateMutability": "nonpayable",
      "type": "function"
    },
    {
      "inputs": [
        {
          "internalType": "uint256",
          "name": "_tokenId",
          "type": "uint256"
        }
      ],
      "name": "listfixedSaleNfts",
      "outputs": [
        {
          "internalType": "uint256[]",
          "name": "",
          "type": "uint256[]"
        },
        {
          "internalType": "uint256[]",
          "name": "",
          "type": "uint256[]"
        },
        {
          "internalType": "uint256",
          "name": "",
          "type": "uint256"
        },
        {
          "internalType": "uint256",
          "name": "",
          "type": "uint256"
        }
      ],
      "stateMutability": "view",
      "type": "function"
    },
    {
      "inputs": [],
      "name": "marketFee",
      "outputs": [
        {
          "internalType": "uint8",
          "name": "",
          "type": "uint8"
        }
      ],
      "stateMutability": "view",
      "type": "function"
    },
    {
      "inputs": [],
      "name": "marketOwner",
      "outputs": [
        {
          "internalType": "address payable",
          "name": "",
          "type": "address"
        }
      ],
      "stateMutability": "view",
      "type": "function"
    },
    {
      "inputs": [
        {
          "internalType": "uint256",
          "name": "",
          "type": "uint256"
        }
      ],
      "name": "nftCollectionId",
      "outputs": [
        {
          "internalType": "uint256",
          "name": "",
          "type": "uint256"
        }
      ],
      "stateMutability": "view",
      "type": "function"
    },
    {
      "inputs": [
        {
          "internalType": "uint256",
          "name": "",
          "type": "uint256"
        }
      ],
      "name": "nftStakeState",
      "outputs": [
        {
          "internalType": "bool",
          "name": "",
          "type": "bool"
        }
      ],
      "stateMutability": "view",
      "type": "function"
    },
    {
      "inputs": [
        {
          "internalType": "uint256",
          "name": "",
          "type": "uint256"
        }
      ],
      "name": "originalOwner",
      "outputs": [
        {
          "internalType": "address",
          "name": "",
          "type": "address"
        }
      ],
      "stateMutability": "view",
      "type": "function"
    },
    {
      "inputs": [],
      "name": "owner",
      "outputs": [
        {
          "internalType": "address",
          "name": "",
          "type": "address"
        }
      ],
      "stateMutability": "view",
      "type": "function"
    },
    {
      "inputs": [
        {
          "internalType": "uint256",
          "name": "_tokenId",
          "type": "uint256"
        },
        {
          "internalType": "address",
          "name": "_nftContract",
          "type": "address"
        }
      ],
      "name": "removeFromAuction",
      "outputs": [],
      "stateMutability": "nonpayable",
      "type": "function"
    },
    {
      "inputs": [],
      "name": "renounceOwnership",
      "outputs": [],
      "stateMutability": "nonpayable",
      "type": "function"
    },
    {
      "inputs": [
        {
          "internalType": "uint8",
          "name": "_marketFee",
          "type": "uint8"
        }
      ],
      "name": "setMarketFee",
      "outputs": [],
      "stateMutability": "nonpayable",
      "type": "function"
    },
    {
      "inputs": [
        {
          "internalType": "uint256[]",
          "name": "_tokenIds",
          "type": "uint256[]"
        },
        {
          "internalType": "bool[]",
          "name": "_methods",
          "type": "bool[]"
        },
        {
          "internalType": "uint256[]",
          "name": "_minPrices",
          "type": "uint256[]"
        },
        {
          "internalType": "uint256[]",
          "name": "_maxPrices",
          "type": "uint256[]"
        },
        {
          "internalType": "uint256[]",
          "name": "_startTimes",
          "type": "uint256[]"
        },
        {
          "internalType": "uint256[]",
          "name": "_endTimes",
          "type": "uint256[]"
        },
        {
          "internalType": "address[]",
          "name": "_nftContracts",
          "type": "address[]"
        }
      ],
      "name": "startAuction",
      "outputs": [],
      "stateMutability": "nonpayable",
      "type": "function"
    },
    {
      "inputs": [
        {
          "internalType": "uint256",
          "name": "_tokenId",
          "type": "uint256"
        }
      ],
      "name": "timing",
      "outputs": [
        {
          "internalType": "uint256",
          "name": "",
          "type": "uint256"
        }
      ],
      "stateMutability": "view",
      "type": "function"
    },
    {
      "inputs": [],
      "name": "tokenIdMint",
      "outputs": [
        {
          "internalType": "uint256",
          "name": "",
          "type": "uint256"
        }
      ],
      "stateMutability": "view",
      "type": "function"
    },
    {
      "inputs": [
        {
          "internalType": "address",
          "name": "",
          "type": "address"
        }
      ],
      "name": "totalCollection",
      "outputs": [
        {
          "internalType": "uint256",
          "name": "",
          "type": "uint256"
        }
      ],
      "stateMutability": "view",
      "type": "function"
    },
    {
      "inputs": [
        {
          "internalType": "uint256",
          "name": "",
          "type": "uint256"
        }
      ],
      "name": "totalNft",
      "outputs": [
        {
          "internalType": "uint256",
          "name": "",
          "type": "uint256"
        }
      ],
      "stateMutability": "view",
      "type": "function"
    },
    {
      "inputs": [
        {
          "internalType": "address",
          "name": "newOwner",
          "type": "address"
        }
      ],
      "name": "transferOwnership",
      "outputs": [],
      "stateMutability": "nonpayable",
      "type": "function"
    },
    {
      "inputs": [
        {
          "internalType": "uint256",
          "name": "_tokenId",
          "type": "uint256"
        },
        {
          "internalType": "bool",
          "name": "choice",
          "type": "bool"
        }
      ],
      "name": "upgradeAuction",
      "outputs": [],
      "stateMutability": "payable",
      "type": "function"
    },
    {
      "inputs": [
        {
          "internalType": "address",
          "name": "",
          "type": "address"
        },
        {
          "internalType": "uint256",
          "name": "",
          "type": "uint256"
        }
      ],
      "name": "userInfo",
      "outputs": [
        {
          "internalType": "uint256",
          "name": "",
          "type": "uint256"
        }
      ],
      "stateMutability": "view",
      "type": "function"
    }
  ],
  "bytecode": "0x60806040526005805460ff191660fa17905534801561001d57600080fd5b50600160005561002c33610043565b600380546001600160a01b03191633179055610095565b600180546001600160a01b038381166001600160a01b0319831681179093556040519116919082907f8be0079c531659141344cd1fd0a4f28419497f9722a3daafe3b4186f6b6457e090600090a35050565b61317480620000a56000396000f3fe6080604052600436106101b75760003560e01c80637e362135116100ec578063bc3ad1451161008a578063e771e36b11610064578063e771e36b14610588578063f2fde38b146105b5578063fbb286ec146105d5578063fd8acc42146105f557600080fd5b8063bc3ad14514610525578063c2f5c0ef14610538578063d14aa3651461055857600080fd5b80638faba53e116100c65780638faba53e1461048b578063913f5fca146104b8578063ab066ed9146104e5578063b9d2ddc51461050557600080fd5b80637e362135146104265780638da5cb5b1461043c5780638f0e39cd1461045a57600080fd5b806340bb154d116101595780636b94143a116101335780636b94143a1461037857806370bf164d1461038b578063715018a6146103ab5780637d84cb99146103c057600080fd5b806340bb154d146102ca57806347d90b5c14610318578063615b397c1461033857600080fd5b80631b5777a2116101955780631b5777a21461024a5780631d85e2c21461027757806321c0320d1461029757806321ce919d146102aa57600080fd5b80630ccf2156146101bc5780630d69cb40146101ed5780631b01dcd91461020f575b600080fd5b3480156101c857600080fd5b506005546101d69060ff1681565b60405160ff90911681526020015b60405180910390f35b3480156101f957600080fd5b5061020d61020836600461298a565b610608565b005b34801561021b57600080fd5b5061023c61022a366004612a5c565b600e6020526000908152604090205481565b6040519081526020016101e4565b34801561025657600080fd5b5061023c610265366004612a5c565b600b6020526000908152604090205481565b34801561028357600080fd5b5061020d610292366004612b77565b610a9d565b61020d6102a5366004612c30565b611024565b3480156102b657600080fd5b5061023c6102c5366004612c72565b6111d7565b3480156102d657600080fd5b506103006102e5366004612a5c565b6017602052600090815260409020546001600160a01b031681565b6040516001600160a01b0390911681526020016101e4565b34801561032457600080fd5b50600354610300906001600160a01b031681565b34801561034457600080fd5b50610368610353366004612a5c565b60166020526000908152604090205460ff1681565b60405190151581526020016101e4565b61020d610386366004612cac565b611208565b34801561039757600080fd5b5061023c6103a6366004612a5c565b611610565b3480156103b757600080fd5b5061020d611658565b3480156103cc57600080fd5b506104096103db366004612a5c565b60009081526012602090815260408083206006015460159092529091205490916001600160a01b0390911690565b604080519283526001600160a01b039091166020830152016101e4565b34801561043257600080fd5b5061023c60045481565b34801561044857600080fd5b506001546001600160a01b0316610300565b34801561046657600080fd5b5061020d610475366004612cdc565b6005805460ff191660ff92909216919091179055565b34801561049757600080fd5b5061023c6104a6366004612a5c565b600f6020526000908152604090205481565b3480156104c457600080fd5b5061023c6104d3366004612a5c565b60146020526000908152604090205481565b3480156104f157600080fd5b5061020d610500366004612cff565b6116be565b34801561051157600080fd5b5061023c610520366004612d24565b6117f1565b61020d610533366004612cff565b61180d565b34801561054457600080fd5b5061020d610553366004612daa565b611bef565b34801561056457600080fd5b50610578610573366004612a5c565b612121565b6040516101e49493929190612f00565b34801561059457600080fd5b5061023c6105a3366004612f39565b600a6020526000908152604090205481565b3480156105c157600080fd5b5061020d6105d0366004612f39565b6121ff565b3480156105e157600080fd5b5061020d6105f0366004612cff565b6122e1565b61020d610603366004612a5c565b612409565b60005b85518160ff161015610a95576000868260ff168151811061062e5761062e612f56565b6020908102919091018101516000818152601290925260409091206005015490915060ff16156106975760405162461bcd60e51b815260206004820152600f60248201526e616c726561647920696e2073616c6560881b60448201526064015b60405180910390fd5b60008181526006602052604090206003015460ff16156106eb5760405162461bcd60e51b815260206004820152600f60248201526e616c726561647920696e2073616c6560881b604482015260640161068e565b336001600160a01b0316838360ff168151811061070a5761070a612f56565b60200260200101516001600160a01b0316636352211e836040518263ffffffff1660e01b815260040161073f91815260200190565b60206040518083038186803b15801561075757600080fd5b505afa15801561076b573d6000803e3d6000fd5b505050506040513d601f19601f8201168201806040525081019061078f9190612f6c565b6001600160a01b0316146107e55760405162461bcd60e51b815260206004820152601160248201527f596f7520617265206e6f74206f776e6572000000000000000000000000000000604482015260640161068e565b848260ff16815181106107fa576107fa612f56565b60200260200101516011600083815260200190815260200160002060000181905550838260ff168151811061083157610831612f56565b60200260200101516011600083815260200190815260200160002060010181905550858260ff168151811061086857610868612f56565b6020908102919091018101516000838152601190925260409091206002810191909155600301805460ff191660011790558551869060ff84169081106108b0576108b0612f56565b602090810291909101810151600083815260068352604080822060028101939093556003909201805460ff19166001908117909155600c8054600e909552928220849055830182559081527fdf6966c971051c3d54ec59162606531493a51404a002842f56009d7e5cf4a8c79091018290558351849060ff851690811061093957610939612f56565b60200260200101516001600160a01b0316636352211e836040518263ffffffff1660e01b815260040161096e91815260200190565b60206040518083038186803b15801561098657600080fd5b505afa15801561099a573d6000803e3d6000fd5b505050506040513d601f19601f820116820180604052508101906109be9190612f6c565b6000838152601760205260409020805473ffffffffffffffffffffffffffffffffffffffff19166001600160a01b0383161790558451909150849060ff8516908110610a0c57610a0c612f56565b60209081029190910101516040516323b872dd60e01b81526001600160a01b03838116600483015230602483015260448201859052909116906323b872dd90606401600060405180830381600087803b158015610a6857600080fd5b505af1158015610a7c573d6000803e3d6000fd5b5050505050508080610a8d90612f9f565b91505061060b565b505050505050565b4285604001511015610af15760405162461bcd60e51b815260206004820152601e60248201527f4d61726b6574506c6163653a20746865206f6666657220657870697265640000604482015260640161068e565b600554602086015160009161271091610b0d9160ff1690612fbf565b610b179190612fde565b86516040517f70a082310000000000000000000000000000000000000000000000000000000081526001600160a01b039182166004820152919250600091908716906370a082319060240160206040518083038186803b158015610b7a57600080fd5b505afa158015610b8e573d6000803e3d6000fd5b505050506040513d601f19601f82011682018060405250810190610bb29190613000565b90508660200151811015610c2e5760405162461bcd60e51b815260206004820152602e60248201527f4d61726b6574506c6163653a204f666665722073656e64657220686173206e6f60448201527f20656e6f7567687420746f6b656e000000000000000000000000000000000000606482015260840161068e565b865160208801516040516001600160a01b039283166024820152306044820152606481019190915260009188169060840160408051601f198184030181529181526020820180517bffffffffffffffffffffffffffffffffffffffffffffffffffffffff167f104e81ff0000000000000000000000000000000000000000000000000000000017905251610cc29190613045565b6000604051808303816000865af19150503d8060008114610cff576040519150601f19603f3d011682016040523d82523d6000602084013e610d04565b606091505b5050905080610d555760405162461bcd60e51b815260206004820152601c60248201527f5f617070726f766520656e636f6465576974685369676e617475726500000000604482015260640161068e565b875185516040808b015190517f24744d540000000000000000000000000000000000000000000000000000000081526001600160a01b038a16936324744d5493610da59333938b90600401613061565b600060405180830381600087803b158015610dbf57600080fd5b505af1158015610dd3573d6000803e3d6000fd5b50505050602088015188516040517fdd62ed3e0000000000000000000000000000000000000000000000000000000081526001600160a01b0391821660048201523060248201529089169063dd62ed3e9060440160206040518083038186803b158015610e3f57600080fd5b505afa158015610e53573d6000803e3d6000fd5b505050506040513d601f19601f82011682018060405250810190610e779190613000565b14610ec45760405162461bcd60e51b815260206004820152601360248201527f696e73756666696369656e7420616d6f756e7400000000000000000000000000604482015260640161068e565b866001600160a01b03166323b872dd896000015133868c60200151610ee991906130cf565b6040517fffffffff0000000000000000000000000000000000000000000000000000000060e086901b1681526001600160a01b0393841660048201529290911660248301526044820152606401602060405180830381600087803b158015610f5057600080fd5b505af1158015610f64573d6000803e3d6000fd5b505050506040513d601f19601f82011682018060405250810190610f8891906130e6565b5087516003546040516323b872dd60e01b81526001600160a01b039283166004820152908216602482015260448101859052908816906323b872dd90606401602060405180830381600087803b158015610fe157600080fd5b505af1158015610ff5573d6000803e3d6000fd5b505050506040513d601f19601f8201168201806040525081019061101991906130e6565b505050505050505050565b6040517f081812fc0000000000000000000000000000000000000000000000000000000081526004810183905230906001600160a01b0383169063081812fc9060240160206040518083038186803b15801561107f57600080fd5b505afa158015611093573d6000803e3d6000fd5b505050506040513d601f19601f820116820180604052508101906110b79190612f6c565b6001600160a01b0316146111335760405162461bcd60e51b815260206004820152603660248201527f4d61726b6574506c6163653a2054686520746f6b656e206d757374206265206160448201527f7070726f76656420746f206d61726b6574706c61636500000000000000000000606482015260840161068e565b6040516323b872dd60e01b81526001600160a01b038481166004830152336024830152604482018490528216906323b872dd90606401600060405180830381600087803b15801561118357600080fd5b505af1158015611197573d6000803e3d6000fd5b50506040516001600160a01b03861692503480156108fc029250906000818181858888f193505050501580156111d1573d6000803e3d6000fd5b50505050565b600960205281600052604060002081815481106111f357600080fd5b90600052602060002001600091509150505481565b600082815260126020526040902060010154421080159061123a57506000828152601260205260409020600201544211155b6112ac5760405162461bcd60e51b815260206004820152602160248201527f61756374696f6e2073616c65206e6f742073746172746564206f7220656e646560448201527f6400000000000000000000000000000000000000000000000000000000000000606482015260840161068e565b6005546000906112c19060ff16612710613103565b905081156113f0576000838152601360209081526040808320338452909152812080543492906112f2908490613126565b9091555050600083815260126020908152604080832060060154601383528184203385529092529091205411156113eb5760008381526012602090815260408083203460069091018190556015909252808320805473ffffffffffffffffffffffffffffffffffffffff19163317905551909190309083908381818185875af1925050503d80600081146113a2576040519150601f19603f3d011682016040523d82523d6000602084013e6113a7565b606091505b50509050806113e85760405162461bcd60e51b815260206004820152600d60248201526c1c99599d5b990819985a5b1959609a1b604482015260640161068e565b50505b505050565b6000838152601560205260409020546001600160a01b031633146113eb5760008381526013602090815260408083203384529091529020546114745760405162461bcd60e51b815260206004820152600e60248201527f596f7520646f6e7420616c6c6f77000000000000000000000000000000000000604482015260640161068e565b6000838152601360209081526040808320338452909152812054906127106114a061ffff851684612fbf565b6114aa9190612fde565b600554909150600090612710906114c49060ff1685612fbf565b6114ce9190612fde565b604051909150600090339084908381818185875af1925050503d8060008114611513576040519150601f19603f3d011682016040523d82523d6000602084013e611518565b606091505b50509050806115595760405162461bcd60e51b815260206004820152600d60248201526c1c99599d5b990819985a5b1959609a1b604482015260640161068e565b6003546040516000916001600160a01b03169084908381818185875af1925050503d80600081146115a6576040519150601f19603f3d011682016040523d82523d6000602084013e6115ab565b606091505b50509050806115ec5760405162461bcd60e51b815260206004820152600d60248201526c1c99599d5b990819985a5b1959609a1b604482015260640161068e565b50505060008581526013602090815260408083203384529091528120555050505050565b600081815260126020526040812060020154421161164b576000828152601260205260409020600201546116459042906130cf565b92915050565b506000919050565b919050565b6001546001600160a01b031633146116b25760405162461bcd60e51b815260206004820181905260248201527f4f776e61626c653a2063616c6c6572206973206e6f7420746865206f776e6572604482015260640161068e565b6116bc60006127a8565b565b6000828152601760205260409020546001600160a01b031633146117245760405162461bcd60e51b815260206004820152601960248201527f596f7520617265206e6f74206f726967696e616c4f776e657200000000000000604482015260640161068e565b600082815260126020526040808220600381018390556006810183905560058101805460ff191690556001810183905560020191909155516323b872dd60e01b8152306004820152336024820152604481018390526001600160a01b038216906323b872dd90606401600060405180830381600087803b1580156117a757600080fd5b505af11580156117bb573d6000803e3d6000fd5b5050506000838152600f6020526040902054600d805490925081106117e2576117e2612f56565b60009182526020822001555050565b600760205281600052604060002081815481106111f357600080fd5b60008281526011602052604090206003015460ff1661186e5760405162461bcd60e51b815260206004820152601360248201527f696e707574206475726174696f6e2074696d6500000000000000000000000000604482015260640161068e565b60008281526006602052604090206003015460ff166118cf5760405162461bcd60e51b815260206004820152600f60248201527f6e6674206e6f7420696e2073616c650000000000000000000000000000000000604482015260640161068e565b60008281526011602052604090205442101561192d5760405162461bcd60e51b815260206004820152601660248201527f66697865642073616c65206e6f74207374617274656400000000000000000000604482015260640161068e565b60008281526011602052604090206001015442111561198e5760405162461bcd60e51b815260206004820152601060248201527f66697865642073616c6520656e64656400000000000000000000000000000000604482015260640161068e565b6005546000906119a39060ff16612710613103565b6000848152600660205260409020600201549091503490811015611a095760405162461bcd60e51b815260206004820152601760248201527f70726963652073686f756c642062652067726561746572000000000000000000604482015260640161068e565b6000612710611a1c61ffff851684612fbf565b611a269190612fde565b60055490915060009061271090611a409060ff1685612fbf565b611a4a9190612fde565b6000878152601760205260408082205490519293506001600160a01b031691829085908381818185875af1925050503d8060008114611aa5576040519150601f19603f3d011682016040523d82523d6000602084013e611aaa565b606091505b5050905080611aeb5760405162461bcd60e51b815260206004820152600d60248201526c1c99599d5b990819985a5b1959609a1b604482015260640161068e565b6003546040516000916001600160a01b03169085908381818185875af1925050503d8060008114611b38576040519150601f19603f3d011682016040523d82523d6000602084013e611b3d565b606091505b5050905080611b7e5760405162461bcd60e51b815260206004820152600d60248201526c1c99599d5b990819985a5b1959609a1b604482015260640161068e565b6040516323b872dd60e01b8152306004820152336024820152604481018a90526001600160a01b038916906323b872dd90606401600060405180830381600087803b158015611bcc57600080fd5b505af1158015611be0573d6000803e3d6000fd5b50505050505050505050505050565b60005b87518160ff161015612117576000888260ff1681518110611c1557611c15612f56565b6020908102919091018101516000818152601690925260409091205490915060ff1615611c845760405162461bcd60e51b815260206004820152600c60248201527f6e6674206973207374616b650000000000000000000000000000000000000000604482015260640161068e565b60008181526012602052604090206005015460ff1615611cd85760405162461bcd60e51b815260206004820152600f60248201526e616c726561647920696e2073616c6560881b604482015260640161068e565b60008181526006602052604090206003015460ff1615611d2c5760405162461bcd60e51b815260206004820152600f60248201526e616c726561647920696e2073616c6560881b604482015260640161068e565b336001600160a01b0316838360ff1681518110611d4b57611d4b612f56565b60200260200101516001600160a01b0316636352211e836040518263ffffffff1660e01b8152600401611d8091815260200190565b60206040518083038186803b158015611d9857600080fd5b505afa158015611dac573d6000803e3d6000fd5b505050506040513d601f19601f82011682018060405250810190611dd09190612f6c565b6001600160a01b031614611e265760405162461bcd60e51b815260206004820152601160248201527f596f7520617265206e6f74206f776e6572000000000000000000000000000000604482015260640161068e565b878260ff1681518110611e3b57611e3b612f56565b602090810291909101810151600083815260129092526040909120805460ff19169115159190911790558451859060ff8416908110611e7c57611e7c612f56565b60200260200101516012600083815260200190815260200160002060010181905550838260ff1681518110611eb357611eb3612f56565b602090810291909101810151600083815260128084526040808320600281019490945560058401805460ff19166001908117909155600d8054600f885292852083905590820190557fd7b6990105719101dabeb77144f2a3385c8033acd3af97e9423a695e81ad1eb501859055908490529091525460ff1615611f6c57868260ff1681518110611f4557611f45612f56565b60200260200101516012600083815260200190815260200160002060030181905550611fdb565b858260ff1681518110611f8157611f81612f56565b60200260200101516012600083815260200190815260200160002060040181905550868260ff1681518110611fb857611fb8612f56565b602002602001015160126000838152602001908152602001600020600301819055505b6000838360ff1681518110611ff257611ff2612f56565b60200260200101516001600160a01b0316636352211e836040518263ffffffff1660e01b815260040161202791815260200190565b60206040518083038186803b15801561203f57600080fd5b505afa158015612053573d6000803e3d6000fd5b505050506040513d601f19601f820116820180604052508101906120779190612f6c565b9050838360ff168151811061208e5761208e612f56565b60209081029190910101516040516323b872dd60e01b81526001600160a01b03838116600483015230602483015260448201859052909116906323b872dd90606401600060405180830381600087803b1580156120ea57600080fd5b505af11580156120fe573d6000803e3d6000fd5b505050505050808061210f90612f9f565b915050611bf2565b5050505050505050565b6000818152601260209081526040808320600301546006835281842060020154600c80548451818702810187019095528085526060968796909586959394600d9493909286919083018282801561219757602002820191906000526020600020905b815481526020019060010190808311612183575b50505050509350828054806020026020016040519081016040528092919081815260200182805480156121e957602002820191906000526020600020905b8154815260200190600101908083116121d5575b5050505050925093509350935093509193509193565b6001546001600160a01b031633146122595760405162461bcd60e51b815260206004820181905260248201527f4f776e61626c653a2063616c6c6572206973206e6f7420746865206f776e6572604482015260640161068e565b6001600160a01b0381166122d55760405162461bcd60e51b815260206004820152602660248201527f4f776e61626c653a206e6577206f776e657220697320746865207a65726f206160448201527f6464726573730000000000000000000000000000000000000000000000000000606482015260840161068e565b6122de816127a8565b50565b6000828152601760205260409020546001600160a01b031633146123475760405162461bcd60e51b815260206004820152601a60248201527f796f7520617265206e6f74206f726967696e616c206f776e6572000000000000604482015260640161068e565b6000828152600660209081526040808320600281018490556003908101805460ff1990811690915560119093529281902090920180549091169055516323b872dd60e01b8152306004820152336024820152604481018390526001600160a01b038216906323b872dd90606401600060405180830381600087803b1580156123ce57600080fd5b505af11580156123e2573d6000803e3d6000fd5b5050506000838152600e6020526040902054600c805490925081106117e2576117e2612f56565b60008181526012602052604090206005015460ff1661246a5760405162461bcd60e51b815260206004820152600f60248201527f6e6674206e6f7420696e2073616c650000000000000000000000000000000000604482015260640161068e565b6000818152601260205260409020600101544210156124cb5760405162461bcd60e51b815260206004820152601860248201527f61756374696f6e2073616c65206e6f7420737461727465640000000000000000604482015260640161068e565b60008181526012602052604090206002015442111561252c5760405162461bcd60e51b815260206004820152601660248201527f61756374696f6e2073616c65206e6f7420656e64656400000000000000000000604482015260640161068e565b60008181526012602052604090206003015434101561258d5760405162461bcd60e51b815260206004820152601860248201527f616d6f756e742073686f756c6420626520677265617465720000000000000000604482015260640161068e565b60008181526012602052604090205460ff16156126095760008181526012602052604090206006015434116126045760405162461bcd60e51b815260206004820152601760248201527f70726576696f75732062696464696e6720616d6f756e74000000000000000000604482015260640161068e565b6126ca565b60008181526012602052604090206004015434111561266a5760405162461bcd60e51b815260206004820152601560248201527f616d6f756e742073686f756c64206265206c6573730000000000000000000000604482015260640161068e565b60008181526012602052604090206006015434106126ca5760405162461bcd60e51b815260206004820152601760248201527f70726576696f75732062696464696e6720616d6f756e74000000000000000000604482015260640161068e565b600081815260126020908152604080832034600690910181905560138352818420338086529084528285208290558585526015909352818420805473ffffffffffffffffffffffffffffffffffffffff191690931790925551909190309083908381818185875af1925050503d8060008114612762576040519150601f19603f3d011682016040523d82523d6000602084013e612767565b606091505b50509050806113eb5760405162461bcd60e51b815260206004820152600d60248201526c1c99599d5b990819985a5b1959609a1b604482015260640161068e565b600180546001600160a01b0383811673ffffffffffffffffffffffffffffffffffffffff19831681179093556040519116919082907f8be0079c531659141344cd1fd0a4f28419497f9722a3daafe3b4186f6b6457e090600090a35050565b634e487b7160e01b600052604160045260246000fd5b6040516060810167ffffffffffffffff8111828210171561284057612840612807565b60405290565b604051601f8201601f1916810167ffffffffffffffff8111828210171561286f5761286f612807565b604052919050565b600067ffffffffffffffff82111561289157612891612807565b5060051b60200190565b600082601f8301126128ac57600080fd5b813560206128c16128bc83612877565b612846565b82815260059290921b840181019181810190868411156128e057600080fd5b8286015b848110156128fb57803583529183019183016128e4565b509695505050505050565b6001600160a01b03811681146122de57600080fd5b803561165381612906565b600082601f83011261293757600080fd5b813560206129476128bc83612877565b82815260059290921b8401810191818101908684111561296657600080fd5b8286015b848110156128fb57803561297d81612906565b835291830191830161296a565b600080600080600060a086880312156129a257600080fd5b853567ffffffffffffffff808211156129ba57600080fd5b6129c689838a0161289b565b965060208801359150808211156129dc57600080fd5b6129e889838a0161289b565b955060408801359150808211156129fe57600080fd5b612a0a89838a0161289b565b94506060880135915080821115612a2057600080fd5b612a2c89838a0161289b565b93506080880135915080821115612a4257600080fd5b50612a4f88828901612926565b9150509295509295909350565b600060208284031215612a6e57600080fd5b5035919050565b600067ffffffffffffffff831115612a8f57612a8f612807565b612aa2601f8401601f1916602001612846565b9050828152838383011115612ab657600080fd5b828260208301376000602084830101529392505050565b600060408284031215612adf57600080fd5b6040516040810167ffffffffffffffff8282108183111715612b0357612b03612807565b81604052829350843583526020850135915080821115612b2257600080fd5b508301601f81018513612b3457600080fd5b612b4385823560208401612a75565b6020830152505092915050565b600082601f830112612b6157600080fd5b612b7083833560208501612a75565b9392505050565b600080600080600085870360e0811215612b9057600080fd5b6060811215612b9e57600080fd5b50612ba761281d565b8635612bb281612906565b815260208781013590820152604080880135908201529450612bd66060870161291b565b9350612be46080870161291b565b925060a086013567ffffffffffffffff80821115612c0157600080fd5b612c0d89838a01612acd565b935060c0880135915080821115612c2357600080fd5b50612a4f88828901612b50565b600080600060608486031215612c4557600080fd5b8335612c5081612906565b9250602084013591506040840135612c6781612906565b809150509250925092565b60008060408385031215612c8557600080fd5b8235612c9081612906565b946020939093013593505050565b80151581146122de57600080fd5b60008060408385031215612cbf57600080fd5b823591506020830135612cd181612c9e565b809150509250929050565b600060208284031215612cee57600080fd5b813560ff81168114612b7057600080fd5b60008060408385031215612d1257600080fd5b823591506020830135612cd181612906565b60008060408385031215612d3757600080fd5b50508035926020909101359150565b600082601f830112612d5757600080fd5b81356020612d676128bc83612877565b82815260059290921b84018101918181019086841115612d8657600080fd5b8286015b848110156128fb578035612d9d81612c9e565b8352918301918301612d8a565b600080600080600080600060e0888a031215612dc557600080fd5b873567ffffffffffffffff80821115612ddd57600080fd5b612de98b838c0161289b565b985060208a0135915080821115612dff57600080fd5b612e0b8b838c01612d46565b975060408a0135915080821115612e2157600080fd5b612e2d8b838c0161289b565b965060608a0135915080821115612e4357600080fd5b612e4f8b838c0161289b565b955060808a0135915080821115612e6557600080fd5b612e718b838c0161289b565b945060a08a0135915080821115612e8757600080fd5b612e938b838c0161289b565b935060c08a0135915080821115612ea957600080fd5b50612eb68a828b01612926565b91505092959891949750929550565b600081518084526020808501945080840160005b83811015612ef557815187529582019590820190600101612ed9565b509495945050505050565b608081526000612f136080830187612ec5565b8281036020840152612f258187612ec5565b604084019590955250506060015292915050565b600060208284031215612f4b57600080fd5b8135612b7081612906565b634e487b7160e01b600052603260045260246000fd5b600060208284031215612f7e57600080fd5b8151612b7081612906565b634e487b7160e01b600052601160045260246000fd5b600060ff821660ff811415612fb657612fb6612f89565b60010192915050565b6000816000190483118215151615612fd957612fd9612f89565b500290565b600082612ffb57634e487b7160e01b600052601260045260246000fd5b500490565b60006020828403121561301257600080fd5b5051919050565b60005b8381101561303457818101518382015260200161301c565b838111156111d15750506000910152565b60008251613057818460208701613019565b9190910192915050565b60006001600160a01b03808816835280871660208401525084604083015260c06060830152600060c083015283608083015260e060a083015282518060e08401526101006130b58282860160208801613019565b80601f19601f840116850101925050509695505050505050565b6000828210156130e1576130e1612f89565b500390565b6000602082840312156130f857600080fd5b8151612b7081612c9e565b600061ffff8381169083168181101561311e5761311e612f89565b039392505050565b6000821982111561313957613139612f89565b50019056fea2646970667358221220f61e0e5ed1856c60b35d1f9b129a5e6271b006c1f38a5a1c40375511669f819d64736f6c63430008080033",
  "linkReferences": {},
  "deployedLinkReferences": {}
}