{
  "_format": "hh-sol-artifact-1",
  "contractName": "StokeMarketplace",
  "sourceName": "contracts/StokeMarketPlace.sol",
  "abi": [
    {
      "inputs": [],
      "stateMutability": "nonpayable",
      "type": "constructor"
    },
    {
      "anonymous": false,
      "inputs": [
        {
          "indexed": true,
          "internalType": "address",
          "name": "previousOwner",
          "type": "address"
        },
        {
          "indexed": true,
          "internalType": "address",
          "name": "newOwner",
          "type": "address"
        }
      ],
      "name": "OwnershipTransferred",
      "type": "event"
    },
    {
      "inputs": [
        {
          "components": [
            {
              "internalType": "address",
              "name": "sender",
              "type": "address"
            },
            {
              "internalType": "uint256",
              "name": "amount",
              "type": "uint256"
            },
            {
              "internalType": "uint256",
              "name": "expiresAt",
              "type": "uint256"
            }
          ],
          "internalType": "struct StokeMarketplace.Offer",
          "name": "offer",
          "type": "tuple"
        },
        {
          "internalType": "address",
          "name": "WETH",
          "type": "address"
        },
        {
          "internalType": "address",
          "name": "_nftContract",
          "type": "address"
        },
        {
          "components": [
            {
              "internalType": "uint256",
              "name": "tokenId",
              "type": "uint256"
            },
            {
              "internalType": "string",
              "name": "tokenURI",
              "type": "string"
            }
          ],
          "internalType": "struct StokeMarketplace.Token",
          "name": "token",
          "type": "tuple"
        }
      ],
      "name": "accept",
      "outputs": [],
      "stateMutability": "nonpayable",
      "type": "function"
    },
    {
      "inputs": [
        {
          "internalType": "uint256",
          "name": "_tokenId",
          "type": "uint256"
        }
      ],
      "name": "auctionDetail",
      "outputs": [
        {
          "internalType": "uint256",
          "name": "",
          "type": "uint256"
        },
        {
          "internalType": "address",
          "name": "",
          "type": "address"
        }
      ],
      "stateMutability": "view",
      "type": "function"
    },
    {
      "inputs": [
        {
          "internalType": "uint256",
          "name": "",
          "type": "uint256"
        }
      ],
      "name": "auctionSaleNftList",
      "outputs": [
        {
          "internalType": "uint256",
          "name": "",
          "type": "uint256"
        }
      ],
      "stateMutability": "view",
      "type": "function"
    },
    {
      "inputs": [
        {
          "internalType": "uint256",
          "name": "_tokenId",
          "type": "uint256"
        }
      ],
      "name": "buyAuction",
      "outputs": [],
      "stateMutability": "payable",
      "type": "function"
    },
    {
      "inputs": [
        {
          "internalType": "uint256",
          "name": "_tokenId",
          "type": "uint256"
        },
        {
          "internalType": "address",
          "name": "_nftContract",
          "type": "address"
        }
      ],
      "name": "buyNft",
      "outputs": [],
      "stateMutability": "payable",
      "type": "function"
    },
    {
      "inputs": [
        {
          "internalType": "address payable",
          "name": "_recipient",
          "type": "address"
        },
        {
          "internalType": "uint256",
          "name": "_tokenId",
          "type": "uint256"
        },
        {
          "internalType": "address",
          "name": "_nftContract",
          "type": "address"
        }
      ],
      "name": "buyOrder",
      "outputs": [],
      "stateMutability": "payable",
      "type": "function"
    },
    {
      "inputs": [
        {
          "internalType": "uint256",
          "name": "_tokenId",
          "type": "uint256"
        },
        {
          "internalType": "address",
          "name": "_nftContract",
          "type": "address"
        }
      ],
      "name": "cancelFixedSale",
      "outputs": [],
      "stateMutability": "nonpayable",
      "type": "function"
    },
    {
      "inputs": [
        {
          "internalType": "uint256",
          "name": "",
          "type": "uint256"
        },
        {
          "internalType": "uint256",
          "name": "",
          "type": "uint256"
        }
      ],
      "name": "collectionStored",
      "outputs": [
        {
          "internalType": "uint256",
          "name": "",
          "type": "uint256"
        }
      ],
      "stateMutability": "view",
      "type": "function"
    },
    {
      "inputs": [
        {
          "internalType": "uint256",
          "name": "",
          "type": "uint256"
        }
      ],
      "name": "fixedSaleNftList",
      "outputs": [
        {
          "internalType": "uint256",
          "name": "",
          "type": "uint256"
        }
      ],
      "stateMutability": "view",
      "type": "function"
    },
    {
      "inputs": [
        {
          "internalType": "uint256[]",
          "name": "_tokenIds",
          "type": "uint256[]"
        },
        {
          "internalType": "uint256[]",
          "name": "_prices",
          "type": "uint256[]"
        },
        {
          "internalType": "uint256[]",
          "name": "_startTimes",
          "type": "uint256[]"
        },
        {
          "internalType": "uint256[]",
          "name": "_endTimes",
          "type": "uint256[]"
        },
        {
          "internalType": "address[]",
          "name": "_nftContracts",
          "type": "address[]"
        }
      ],
      "name": "fixedSales",
      "outputs": [],
      "stateMutability": "nonpayable",
      "type": "function"
    },
    {
      "inputs": [
        {
          "internalType": "uint256",
          "name": "_tokenId",
          "type": "uint256"
        }
      ],
      "name": "listfixedSaleNfts",
      "outputs": [
        {
          "internalType": "uint256[]",
          "name": "",
          "type": "uint256[]"
        },
        {
          "internalType": "uint256[]",
          "name": "",
          "type": "uint256[]"
        },
        {
          "internalType": "uint256",
          "name": "",
          "type": "uint256"
        },
        {
          "internalType": "uint256",
          "name": "",
          "type": "uint256"
        }
      ],
      "stateMutability": "view",
      "type": "function"
    },
    {
      "inputs": [],
      "name": "marketFee",
      "outputs": [
        {
          "internalType": "uint8",
          "name": "",
          "type": "uint8"
        }
      ],
      "stateMutability": "view",
      "type": "function"
    },
    {
      "inputs": [],
      "name": "marketOwner",
      "outputs": [
        {
          "internalType": "address payable",
          "name": "",
          "type": "address"
        }
      ],
      "stateMutability": "view",
      "type": "function"
    },
    {
      "inputs": [
        {
          "internalType": "uint256",
          "name": "",
          "type": "uint256"
        }
      ],
      "name": "nftCollectionId",
      "outputs": [
        {
          "internalType": "uint256",
          "name": "",
          "type": "uint256"
        }
      ],
      "stateMutability": "view",
      "type": "function"
    },
    {
      "inputs": [
        {
          "internalType": "uint256",
          "name": "",
          "type": "uint256"
        }
      ],
      "name": "nftStakeState",
      "outputs": [
        {
          "internalType": "bool",
          "name": "",
          "type": "bool"
        }
      ],
      "stateMutability": "view",
      "type": "function"
    },
    {
      "inputs": [
        {
          "internalType": "uint256",
          "name": "",
          "type": "uint256"
        }
      ],
      "name": "originalOwner",
      "outputs": [
        {
          "internalType": "address",
          "name": "",
          "type": "address"
        }
      ],
      "stateMutability": "view",
      "type": "function"
    },
    {
      "inputs": [],
      "name": "owner",
      "outputs": [
        {
          "internalType": "address",
          "name": "",
          "type": "address"
        }
      ],
      "stateMutability": "view",
      "type": "function"
    },
    {
      "inputs": [
        {
          "internalType": "uint256",
          "name": "_tokenId",
          "type": "uint256"
        },
        {
          "internalType": "address",
          "name": "_nftContract",
          "type": "address"
        }
      ],
      "name": "removeFromAuction",
      "outputs": [],
      "stateMutability": "nonpayable",
      "type": "function"
    },
    {
      "inputs": [],
      "name": "renounceOwnership",
      "outputs": [],
      "stateMutability": "nonpayable",
      "type": "function"
    },
    {
      "inputs": [
        {
          "internalType": "uint8",
          "name": "_marketFee",
          "type": "uint8"
        }
      ],
      "name": "setMarketFee",
      "outputs": [],
      "stateMutability": "nonpayable",
      "type": "function"
    },
    {
      "inputs": [
        {
          "internalType": "uint256[]",
          "name": "_tokenIds",
          "type": "uint256[]"
        },
        {
          "internalType": "bool[]",
          "name": "_methods",
          "type": "bool[]"
        },
        {
          "internalType": "uint256[]",
          "name": "_minPrices",
          "type": "uint256[]"
        },
        {
          "internalType": "uint256[]",
          "name": "_maxPrices",
          "type": "uint256[]"
        },
        {
          "internalType": "uint256[]",
          "name": "_startTimes",
          "type": "uint256[]"
        },
        {
          "internalType": "uint256[]",
          "name": "_endTimes",
          "type": "uint256[]"
        },
        {
          "internalType": "address[]",
          "name": "_nftContracts",
          "type": "address[]"
        }
      ],
      "name": "startAuction",
      "outputs": [],
      "stateMutability": "nonpayable",
      "type": "function"
    },
    {
      "inputs": [
        {
          "internalType": "uint256",
          "name": "_tokenId",
          "type": "uint256"
        }
      ],
      "name": "timing",
      "outputs": [
        {
          "internalType": "uint256",
          "name": "",
          "type": "uint256"
        }
      ],
      "stateMutability": "view",
      "type": "function"
    },
    {
      "inputs": [],
      "name": "tokenIdMint",
      "outputs": [
        {
          "internalType": "uint256",
          "name": "",
          "type": "uint256"
        }
      ],
      "stateMutability": "view",
      "type": "function"
    },
    {
      "inputs": [
        {
          "internalType": "address",
          "name": "",
          "type": "address"
        }
      ],
      "name": "totalCollection",
      "outputs": [
        {
          "internalType": "uint256",
          "name": "",
          "type": "uint256"
        }
      ],
      "stateMutability": "view",
      "type": "function"
    },
    {
      "inputs": [
        {
          "internalType": "uint256",
          "name": "",
          "type": "uint256"
        }
      ],
      "name": "totalNft",
      "outputs": [
        {
          "internalType": "uint256",
          "name": "",
          "type": "uint256"
        }
      ],
      "stateMutability": "view",
      "type": "function"
    },
    {
      "inputs": [
        {
          "internalType": "address",
          "name": "newOwner",
          "type": "address"
        }
      ],
      "name": "transferOwnership",
      "outputs": [],
      "stateMutability": "nonpayable",
      "type": "function"
    },
    {
      "inputs": [
        {
          "internalType": "uint256",
          "name": "_tokenId",
          "type": "uint256"
        },
        {
          "internalType": "bool",
          "name": "choice",
          "type": "bool"
        }
      ],
      "name": "upgradeAuction",
      "outputs": [],
      "stateMutability": "payable",
      "type": "function"
    },
    {
      "inputs": [
        {
          "internalType": "address",
          "name": "",
          "type": "address"
        },
        {
          "internalType": "uint256",
          "name": "",
          "type": "uint256"
        }
      ],
      "name": "userInfo",
      "outputs": [
        {
          "internalType": "uint256",
          "name": "",
          "type": "uint256"
        }
      ],
      "stateMutability": "view",
      "type": "function"
    }
  ],
  "bytecode": "0x60806040526005805460ff191660fa17905534801561001d57600080fd5b50600160005561002c33610043565b600380546001600160a01b03191633179055610095565b600180546001600160a01b038381166001600160a01b0319831681179093556040519116919082907f8be0079c531659141344cd1fd0a4f28419497f9722a3daafe3b4186f6b6457e090600090a35050565b61319c80620000a56000396000f3fe6080604052600436106101b75760003560e01c80637e362135116100ec578063bc3ad1451161008a578063e771e36b11610064578063e771e36b14610588578063f2fde38b146105b5578063fbb286ec146105d5578063fd8acc42146105f557600080fd5b8063bc3ad14514610525578063c2f5c0ef14610538578063d14aa3651461055857600080fd5b80638faba53e116100c65780638faba53e1461048b578063913f5fca146104b8578063ab066ed9146104e5578063b9d2ddc51461050557600080fd5b80637e362135146104265780638da5cb5b1461043c5780638f0e39cd1461045a57600080fd5b806347d90b5c116101595780636b94143a116101335780636b94143a1461037857806370bf164d1461038b578063715018a6146103ab5780637d84cb99146103c057600080fd5b806347d90b5c146102f85780635863516214610318578063615b397c1461033857600080fd5b80631b5777a2116101955780631b5777a21461024a57806321c0320d1461027757806321ce919d1461028a57806340bb154d146102aa57600080fd5b80630ccf2156146101bc5780630d69cb40146101ed5780631b01dcd91461020f575b600080fd5b3480156101c857600080fd5b506005546101d69060ff1681565b60405160ff90911681526020015b60405180910390f35b3480156101f957600080fd5b5061020d610208366004612a1b565b610608565b005b34801561021b57600080fd5b5061023c61022a366004612aed565b600e6020526000908152604090205481565b6040519081526020016101e4565b34801561025657600080fd5b5061023c610265366004612aed565b600b6020526000908152604090205481565b61020d610285366004612b06565b610a9d565b34801561029657600080fd5b5061023c6102a5366004612b48565b610c50565b3480156102b657600080fd5b506102e06102c5366004612aed565b6017602052600090815260409020546001600160a01b031681565b6040516001600160a01b0390911681526020016101e4565b34801561030457600080fd5b506003546102e0906001600160a01b031681565b34801561032457600080fd5b5061020d610333366004612c1c565b610c81565b34801561034457600080fd5b50610368610353366004612aed565b60166020526000908152604090205460ff1681565b60405190151581526020016101e4565b61020d610386366004612cf1565b6112a9565b34801561039757600080fd5b5061023c6103a6366004612aed565b6116b1565b3480156103b757600080fd5b5061020d6116f4565b3480156103cc57600080fd5b506104096103db366004612aed565b60009081526012602090815260408083206006015460159092529091205490916001600160a01b0390911690565b604080519283526001600160a01b039091166020830152016101e4565b34801561043257600080fd5b5061023c60045481565b34801561044857600080fd5b506001546001600160a01b03166102e0565b34801561046657600080fd5b5061020d610475366004612d21565b6005805460ff191660ff92909216919091179055565b34801561049757600080fd5b5061023c6104a6366004612aed565b600f6020526000908152604090205481565b3480156104c457600080fd5b5061023c6104d3366004612aed565b60146020526000908152604090205481565b3480156104f157600080fd5b5061020d610500366004612d4b565b61175a565b34801561051157600080fd5b5061023c610520366004612d70565b61188d565b61020d610533366004612d4b565b6118a9565b34801561054457600080fd5b5061020d610553366004612df6565b611c8b565b34801561056457600080fd5b50610578610573366004612aed565b6121bd565b6040516101e49493929190612f4c565b34801561059457600080fd5b5061023c6105a3366004612f85565b600a6020526000908152604090205481565b3480156105c157600080fd5b5061020d6105d0366004612f85565b61229b565b3480156105e157600080fd5b5061020d6105f0366004612d4b565b61237d565b61020d610603366004612aed565b6124a5565b60005b85518160ff161015610a95576000868260ff168151811061062e5761062e612fa2565b6020908102919091018101516000818152601290925260409091206005015490915060ff16156106975760405162461bcd60e51b815260206004820152600f60248201526e616c726561647920696e2073616c6560881b60448201526064015b60405180910390fd5b60008181526006602052604090206003015460ff16156106eb5760405162461bcd60e51b815260206004820152600f60248201526e616c726561647920696e2073616c6560881b604482015260640161068e565b336001600160a01b0316838360ff168151811061070a5761070a612fa2565b60200260200101516001600160a01b0316636352211e836040518263ffffffff1660e01b815260040161073f91815260200190565b60206040518083038186803b15801561075757600080fd5b505afa15801561076b573d6000803e3d6000fd5b505050506040513d601f19601f8201168201806040525081019061078f9190612fb8565b6001600160a01b0316146107e55760405162461bcd60e51b815260206004820152601160248201527f596f7520617265206e6f74206f776e6572000000000000000000000000000000604482015260640161068e565b848260ff16815181106107fa576107fa612fa2565b60200260200101516011600083815260200190815260200160002060000181905550838260ff168151811061083157610831612fa2565b60200260200101516011600083815260200190815260200160002060010181905550858260ff168151811061086857610868612fa2565b6020908102919091018101516000838152601190925260409091206002810191909155600301805460ff191660011790558551869060ff84169081106108b0576108b0612fa2565b602090810291909101810151600083815260068352604080822060028101939093556003909201805460ff19166001908117909155600c8054600e909552928220849055830182559081527fdf6966c971051c3d54ec59162606531493a51404a002842f56009d7e5cf4a8c79091018290558351849060ff851690811061093957610939612fa2565b60200260200101516001600160a01b0316636352211e836040518263ffffffff1660e01b815260040161096e91815260200190565b60206040518083038186803b15801561098657600080fd5b505afa15801561099a573d6000803e3d6000fd5b505050506040513d601f19601f820116820180604052508101906109be9190612fb8565b6000838152601760205260409020805473ffffffffffffffffffffffffffffffffffffffff19166001600160a01b0383161790558451909150849060ff8516908110610a0c57610a0c612fa2565b60209081029190910101516040516323b872dd60e01b81526001600160a01b03838116600483015230602483015260448201859052909116906323b872dd90606401600060405180830381600087803b158015610a6857600080fd5b505af1158015610a7c573d6000803e3d6000fd5b5050505050508080610a8d90612feb565b91505061060b565b505050505050565b6040517f081812fc0000000000000000000000000000000000000000000000000000000081526004810183905230906001600160a01b0383169063081812fc9060240160206040518083038186803b158015610af857600080fd5b505afa158015610b0c573d6000803e3d6000fd5b505050506040513d601f19601f82011682018060405250810190610b309190612fb8565b6001600160a01b031614610bac5760405162461bcd60e51b815260206004820152603660248201527f4d61726b6574506c6163653a2054686520746f6b656e206d757374206265206160448201527f7070726f76656420746f206d61726b6574706c61636500000000000000000000606482015260840161068e565b6040516323b872dd60e01b81526001600160a01b038481166004830152336024830152604482018490528216906323b872dd90606401600060405180830381600087803b158015610bfc57600080fd5b505af1158015610c10573d6000803e3d6000fd5b50506040516001600160a01b03861692503480156108fc029250906000818181858888f19350505050158015610c4a573d6000803e3d6000fd5b50505050565b60096020528160005260406000208181548110610c6c57600080fd5b90600052602060002001600091509150505481565b4284604001511015610cd55760405162461bcd60e51b815260206004820152601e60248201527f4d61726b6574506c6163653a20746865206f6666657220657870697265640000604482015260640161068e565b600554602085015160009161271091610cf19160ff169061300b565b610cfb919061302a565b85516040517f70a082310000000000000000000000000000000000000000000000000000000081526001600160a01b039182166004820152919250600091908616906370a082319060240160206040518083038186803b158015610d5e57600080fd5b505afa158015610d72573d6000803e3d6000fd5b505050506040513d601f19601f82011682018060405250810190610d96919061304c565b90508560200151811015610e125760405162461bcd60e51b815260206004820152602e60248201527f4d61726b6574506c6163653a204f666665722073656e64657220686173206e6f60448201527f20656e6f7567687420746f6b656e000000000000000000000000000000000000606482015260840161068e565b855160208701516040516001600160a01b039283166024820152306044820152606481019190915260009187169060840160408051601f198184030181529181526020820180517bffffffffffffffffffffffffffffffffffffffffffffffffffffffff167f104e81ff0000000000000000000000000000000000000000000000000000000017905251610ea69190613091565b6000604051808303816000865af19150503d8060008114610ee3576040519150601f19603f3d011682016040523d82523d6000602084013e610ee8565b606091505b5050905080610f395760405162461bcd60e51b815260206004820152601c60248201527f5f617070726f766520656e636f6465576974685369676e617475726500000000604482015260640161068e565b6000856001600160a01b0316856000015189600001518760200151604051602401610f66939291906130ad565b60408051601f198184030181529181526020820180517bffffffffffffffffffffffffffffffffffffffffffffffffffffffff167fd9b38c510000000000000000000000000000000000000000000000000000000017905251610fc99190613091565b6000604051808303816000865af19150503d8060008114611006576040519150601f19603f3d011682016040523d82523d6000602084013e61100b565b606091505b505090508061105c5760405162461bcd60e51b815260206004820152601660248201527f7375636365737320746f6b656e207472616e7366657200000000000000000000604482015260640161068e565b602088015188516040517fdd62ed3e0000000000000000000000000000000000000000000000000000000081526001600160a01b0391821660048201523060248201529089169063dd62ed3e9060440160206040518083038186803b1580156110c457600080fd5b505afa1580156110d8573d6000803e3d6000fd5b505050506040513d601f19601f820116820180604052508101906110fc919061304c565b146111495760405162461bcd60e51b815260206004820152601360248201527f696e73756666696369656e7420616d6f756e7400000000000000000000000000604482015260640161068e565b866001600160a01b03166323b872dd896000015133878c6020015161116e91906130f7565b6040517fffffffff0000000000000000000000000000000000000000000000000000000060e086901b1681526001600160a01b0393841660048201529290911660248301526044820152606401602060405180830381600087803b1580156111d557600080fd5b505af11580156111e9573d6000803e3d6000fd5b505050506040513d601f19601f8201168201806040525081019061120d919061310e565b5087516003546040516323b872dd60e01b81526001600160a01b039283166004820152908216602482015260448101869052908816906323b872dd90606401602060405180830381600087803b15801561126657600080fd5b505af115801561127a573d6000803e3d6000fd5b505050506040513d601f19601f8201168201806040525081019061129e919061310e565b505050505050505050565b60008281526012602052604090206001015442108015906112db57506000828152601260205260409020600201544211155b61134d5760405162461bcd60e51b815260206004820152602160248201527f61756374696f6e2073616c65206e6f742073746172746564206f7220656e646560448201527f6400000000000000000000000000000000000000000000000000000000000000606482015260840161068e565b6005546000906113629060ff1661271061312b565b905081156114915760008381526013602090815260408083203384529091528120805434929061139390849061314e565b90915550506000838152601260209081526040808320600601546013835281842033855290925290912054111561148c5760008381526012602090815260408083203460069091018190556015909252808320805473ffffffffffffffffffffffffffffffffffffffff19163317905551909190309083908381818185875af1925050503d8060008114611443576040519150601f19603f3d011682016040523d82523d6000602084013e611448565b606091505b50509050806114895760405162461bcd60e51b815260206004820152600d60248201526c1c99599d5b990819985a5b1959609a1b604482015260640161068e565b50505b505050565b6000838152601560205260409020546001600160a01b0316331461148c5760008381526013602090815260408083203384529091529020546115155760405162461bcd60e51b815260206004820152600e60248201527f596f7520646f6e7420616c6c6f77000000000000000000000000000000000000604482015260640161068e565b60008381526013602090815260408083203384529091528120549061271061154161ffff85168461300b565b61154b919061302a565b600554909150600090612710906115659060ff168561300b565b61156f919061302a565b604051909150600090339084908381818185875af1925050503d80600081146115b4576040519150601f19603f3d011682016040523d82523d6000602084013e6115b9565b606091505b50509050806115fa5760405162461bcd60e51b815260206004820152600d60248201526c1c99599d5b990819985a5b1959609a1b604482015260640161068e565b6003546040516000916001600160a01b03169084908381818185875af1925050503d8060008114611647576040519150601f19603f3d011682016040523d82523d6000602084013e61164c565b606091505b505090508061168d5760405162461bcd60e51b815260206004820152600d60248201526c1c99599d5b990819985a5b1959609a1b604482015260640161068e565b50505060008581526013602090815260408083203384529091528120555050505050565b60008181526012602052604081206002015442116116ec576000828152601260205260409020600201546116e69042906130f7565b92915050565b506000919050565b6001546001600160a01b0316331461174e5760405162461bcd60e51b815260206004820181905260248201527f4f776e61626c653a2063616c6c6572206973206e6f7420746865206f776e6572604482015260640161068e565b6117586000612844565b565b6000828152601760205260409020546001600160a01b031633146117c05760405162461bcd60e51b815260206004820152601960248201527f596f7520617265206e6f74206f726967696e616c4f776e657200000000000000604482015260640161068e565b600082815260126020526040808220600381018390556006810183905560058101805460ff191690556001810183905560020191909155516323b872dd60e01b8152306004820152336024820152604481018390526001600160a01b038216906323b872dd90606401600060405180830381600087803b15801561184357600080fd5b505af1158015611857573d6000803e3d6000fd5b5050506000838152600f6020526040902054600d8054909250811061187e5761187e612fa2565b60009182526020822001555050565b60076020528160005260406000208181548110610c6c57600080fd5b60008281526011602052604090206003015460ff1661190a5760405162461bcd60e51b815260206004820152601360248201527f696e707574206475726174696f6e2074696d6500000000000000000000000000604482015260640161068e565b60008281526006602052604090206003015460ff1661196b5760405162461bcd60e51b815260206004820152600f60248201527f6e6674206e6f7420696e2073616c650000000000000000000000000000000000604482015260640161068e565b6000828152601160205260409020544210156119c95760405162461bcd60e51b815260206004820152601660248201527f66697865642073616c65206e6f74207374617274656400000000000000000000604482015260640161068e565b600082815260116020526040902060010154421115611a2a5760405162461bcd60e51b815260206004820152601060248201527f66697865642073616c6520656e64656400000000000000000000000000000000604482015260640161068e565b600554600090611a3f9060ff1661271061312b565b6000848152600660205260409020600201549091503490811015611aa55760405162461bcd60e51b815260206004820152601760248201527f70726963652073686f756c642062652067726561746572000000000000000000604482015260640161068e565b6000612710611ab861ffff85168461300b565b611ac2919061302a565b60055490915060009061271090611adc9060ff168561300b565b611ae6919061302a565b6000878152601760205260408082205490519293506001600160a01b031691829085908381818185875af1925050503d8060008114611b41576040519150601f19603f3d011682016040523d82523d6000602084013e611b46565b606091505b5050905080611b875760405162461bcd60e51b815260206004820152600d60248201526c1c99599d5b990819985a5b1959609a1b604482015260640161068e565b6003546040516000916001600160a01b03169085908381818185875af1925050503d8060008114611bd4576040519150601f19603f3d011682016040523d82523d6000602084013e611bd9565b606091505b5050905080611c1a5760405162461bcd60e51b815260206004820152600d60248201526c1c99599d5b990819985a5b1959609a1b604482015260640161068e565b6040516323b872dd60e01b8152306004820152336024820152604481018a90526001600160a01b038916906323b872dd90606401600060405180830381600087803b158015611c6857600080fd5b505af1158015611c7c573d6000803e3d6000fd5b50505050505050505050505050565b60005b87518160ff1610156121b3576000888260ff1681518110611cb157611cb1612fa2565b6020908102919091018101516000818152601690925260409091205490915060ff1615611d205760405162461bcd60e51b815260206004820152600c60248201527f6e6674206973207374616b650000000000000000000000000000000000000000604482015260640161068e565b60008181526012602052604090206005015460ff1615611d745760405162461bcd60e51b815260206004820152600f60248201526e616c726561647920696e2073616c6560881b604482015260640161068e565b60008181526006602052604090206003015460ff1615611dc85760405162461bcd60e51b815260206004820152600f60248201526e616c726561647920696e2073616c6560881b604482015260640161068e565b336001600160a01b0316838360ff1681518110611de757611de7612fa2565b60200260200101516001600160a01b0316636352211e836040518263ffffffff1660e01b8152600401611e1c91815260200190565b60206040518083038186803b158015611e3457600080fd5b505afa158015611e48573d6000803e3d6000fd5b505050506040513d601f19601f82011682018060405250810190611e6c9190612fb8565b6001600160a01b031614611ec25760405162461bcd60e51b815260206004820152601160248201527f596f7520617265206e6f74206f776e6572000000000000000000000000000000604482015260640161068e565b878260ff1681518110611ed757611ed7612fa2565b602090810291909101810151600083815260129092526040909120805460ff19169115159190911790558451859060ff8416908110611f1857611f18612fa2565b60200260200101516012600083815260200190815260200160002060010181905550838260ff1681518110611f4f57611f4f612fa2565b602090810291909101810151600083815260128084526040808320600281019490945560058401805460ff19166001908117909155600d8054600f885292852083905590820190557fd7b6990105719101dabeb77144f2a3385c8033acd3af97e9423a695e81ad1eb501859055908490529091525460ff161561200857868260ff1681518110611fe157611fe1612fa2565b60200260200101516012600083815260200190815260200160002060030181905550612077565b858260ff168151811061201d5761201d612fa2565b60200260200101516012600083815260200190815260200160002060040181905550868260ff168151811061205457612054612fa2565b602002602001015160126000838152602001908152602001600020600301819055505b6000838360ff168151811061208e5761208e612fa2565b60200260200101516001600160a01b0316636352211e836040518263ffffffff1660e01b81526004016120c391815260200190565b60206040518083038186803b1580156120db57600080fd5b505afa1580156120ef573d6000803e3d6000fd5b505050506040513d601f19601f820116820180604052508101906121139190612fb8565b9050838360ff168151811061212a5761212a612fa2565b60209081029190910101516040516323b872dd60e01b81526001600160a01b03838116600483015230602483015260448201859052909116906323b872dd90606401600060405180830381600087803b15801561218657600080fd5b505af115801561219a573d6000803e3d6000fd5b50505050505080806121ab90612feb565b915050611c8e565b5050505050505050565b6000818152601260209081526040808320600301546006835281842060020154600c80548451818702810187019095528085526060968796909586959394600d9493909286919083018282801561223357602002820191906000526020600020905b81548152602001906001019080831161221f575b505050505093508280548060200260200160405190810160405280929190818152602001828054801561228557602002820191906000526020600020905b815481526020019060010190808311612271575b5050505050925093509350935093509193509193565b6001546001600160a01b031633146122f55760405162461bcd60e51b815260206004820181905260248201527f4f776e61626c653a2063616c6c6572206973206e6f7420746865206f776e6572604482015260640161068e565b6001600160a01b0381166123715760405162461bcd60e51b815260206004820152602660248201527f4f776e61626c653a206e6577206f776e657220697320746865207a65726f206160448201527f6464726573730000000000000000000000000000000000000000000000000000606482015260840161068e565b61237a81612844565b50565b6000828152601760205260409020546001600160a01b031633146123e35760405162461bcd60e51b815260206004820152601a60248201527f796f7520617265206e6f74206f726967696e616c206f776e6572000000000000604482015260640161068e565b6000828152600660209081526040808320600281018490556003908101805460ff1990811690915560119093529281902090920180549091169055516323b872dd60e01b8152306004820152336024820152604481018390526001600160a01b038216906323b872dd90606401600060405180830381600087803b15801561246a57600080fd5b505af115801561247e573d6000803e3d6000fd5b5050506000838152600e6020526040902054600c8054909250811061187e5761187e612fa2565b60008181526012602052604090206005015460ff166125065760405162461bcd60e51b815260206004820152600f60248201527f6e6674206e6f7420696e2073616c650000000000000000000000000000000000604482015260640161068e565b6000818152601260205260409020600101544210156125675760405162461bcd60e51b815260206004820152601860248201527f61756374696f6e2073616c65206e6f7420737461727465640000000000000000604482015260640161068e565b6000818152601260205260409020600201544211156125c85760405162461bcd60e51b815260206004820152601660248201527f61756374696f6e2073616c65206e6f7420656e64656400000000000000000000604482015260640161068e565b6000818152601260205260409020600301543410156126295760405162461bcd60e51b815260206004820152601860248201527f616d6f756e742073686f756c6420626520677265617465720000000000000000604482015260640161068e565b60008181526012602052604090205460ff16156126a55760008181526012602052604090206006015434116126a05760405162461bcd60e51b815260206004820152601760248201527f70726576696f75732062696464696e6720616d6f756e74000000000000000000604482015260640161068e565b612766565b6000818152601260205260409020600401543411156127065760405162461bcd60e51b815260206004820152601560248201527f616d6f756e742073686f756c64206265206c6573730000000000000000000000604482015260640161068e565b60008181526012602052604090206006015434106127665760405162461bcd60e51b815260206004820152601760248201527f70726576696f75732062696464696e6720616d6f756e74000000000000000000604482015260640161068e565b600081815260126020908152604080832034600690910181905560138352818420338086529084528285208290558585526015909352818420805473ffffffffffffffffffffffffffffffffffffffff191690931790925551909190309083908381818185875af1925050503d80600081146127fe576040519150601f19603f3d011682016040523d82523d6000602084013e612803565b606091505b505090508061148c5760405162461bcd60e51b815260206004820152600d60248201526c1c99599d5b990819985a5b1959609a1b604482015260640161068e565b600180546001600160a01b0383811673ffffffffffffffffffffffffffffffffffffffff19831681179093556040519116919082907f8be0079c531659141344cd1fd0a4f28419497f9722a3daafe3b4186f6b6457e090600090a35050565b634e487b7160e01b600052604160045260246000fd5b6040805190810167ffffffffffffffff811182821017156128dc576128dc6128a3565b60405290565b604051601f8201601f1916810167ffffffffffffffff8111828210171561290b5761290b6128a3565b604052919050565b600067ffffffffffffffff82111561292d5761292d6128a3565b5060051b60200190565b600082601f83011261294857600080fd5b8135602061295d61295883612913565b6128e2565b82815260059290921b8401810191818101908684111561297c57600080fd5b8286015b848110156129975780358352918301918301612980565b509695505050505050565b6001600160a01b038116811461237a57600080fd5b600082601f8301126129c857600080fd5b813560206129d861295883612913565b82815260059290921b840181019181810190868411156129f757600080fd5b8286015b84811015612997578035612a0e816129a2565b83529183019183016129fb565b600080600080600060a08688031215612a3357600080fd5b853567ffffffffffffffff80821115612a4b57600080fd5b612a5789838a01612937565b96506020880135915080821115612a6d57600080fd5b612a7989838a01612937565b95506040880135915080821115612a8f57600080fd5b612a9b89838a01612937565b94506060880135915080821115612ab157600080fd5b612abd89838a01612937565b93506080880135915080821115612ad357600080fd5b50612ae0888289016129b7565b9150509295509295909350565b600060208284031215612aff57600080fd5b5035919050565b600080600060608486031215612b1b57600080fd5b8335612b26816129a2565b9250602084013591506040840135612b3d816129a2565b809150509250925092565b60008060408385031215612b5b57600080fd5b8235612b66816129a2565b946020939093013593505050565b600060408284031215612b8657600080fd5b612b8e6128b9565b90508135815260208083013567ffffffffffffffff80821115612bb057600080fd5b818501915085601f830112612bc457600080fd5b813581811115612bd657612bd66128a3565b612be8601f8201601f191685016128e2565b91508082528684828501011115612bfe57600080fd5b80848401858401376000908201840152918301919091525092915050565b60008060008084860360c0811215612c3357600080fd5b6060811215612c4157600080fd5b506040516060810167ffffffffffffffff8282108183111715612c6657612c666128a3565b8160405287359150612c77826129a2565b818352602088013560208401526040880135604084015282965060608801359250612ca1836129a2565b919450608087013591612cb3836129a2565b91935060a08701359180831115612cc957600080fd5b5050612cd787828801612b74565b91505092959194509250565b801515811461237a57600080fd5b60008060408385031215612d0457600080fd5b823591506020830135612d1681612ce3565b809150509250929050565b600060208284031215612d3357600080fd5b813560ff81168114612d4457600080fd5b9392505050565b60008060408385031215612d5e57600080fd5b823591506020830135612d16816129a2565b60008060408385031215612d8357600080fd5b50508035926020909101359150565b600082601f830112612da357600080fd5b81356020612db361295883612913565b82815260059290921b84018101918181019086841115612dd257600080fd5b8286015b84811015612997578035612de981612ce3565b8352918301918301612dd6565b600080600080600080600060e0888a031215612e1157600080fd5b873567ffffffffffffffff80821115612e2957600080fd5b612e358b838c01612937565b985060208a0135915080821115612e4b57600080fd5b612e578b838c01612d92565b975060408a0135915080821115612e6d57600080fd5b612e798b838c01612937565b965060608a0135915080821115612e8f57600080fd5b612e9b8b838c01612937565b955060808a0135915080821115612eb157600080fd5b612ebd8b838c01612937565b945060a08a0135915080821115612ed357600080fd5b612edf8b838c01612937565b935060c08a0135915080821115612ef557600080fd5b50612f028a828b016129b7565b91505092959891949750929550565b600081518084526020808501945080840160005b83811015612f4157815187529582019590820190600101612f25565b509495945050505050565b608081526000612f5f6080830187612f11565b8281036020840152612f718187612f11565b604084019590955250506060015292915050565b600060208284031215612f9757600080fd5b8135612d44816129a2565b634e487b7160e01b600052603260045260246000fd5b600060208284031215612fca57600080fd5b8151612d44816129a2565b634e487b7160e01b600052601160045260246000fd5b600060ff821660ff81141561300257613002612fd5565b60010192915050565b600081600019048311821515161561302557613025612fd5565b500290565b60008261304757634e487b7160e01b600052601260045260246000fd5b500490565b60006020828403121561305e57600080fd5b5051919050565b60005b83811015613080578181015183820152602001613068565b83811115610c4a5750506000910152565b600082516130a3818460208701613065565b9190910192915050565b8381526001600160a01b038316602082015260606040820152600082518060608401526130e1816080850160208701613065565b601f01601f191691909101608001949350505050565b60008282101561310957613109612fd5565b500390565b60006020828403121561312057600080fd5b8151612d4481612ce3565b600061ffff8381169083168181101561314657613146612fd5565b039392505050565b6000821982111561316157613161612fd5565b50019056fea2646970667358221220b0c42895aaddf34c6f72939384826004f0522292fc6e69f25355e6b3b9b77f8764736f6c63430008080033",
  "linkReferences": {},
  "deployedLinkReferences": {}
}