{
  "_format": "hh-sol-artifact-1",
  "contractName": "LazyNFT",
  "sourceName": "contracts/LazyMint.sol",
  "abi": [
    {
      "inputs": [],
      "stateMutability": "nonpayable",
      "type": "constructor"
    },
    {
      "anonymous": false,
      "inputs": [
        {
          "indexed": true,
          "internalType": "address",
          "name": "owner",
          "type": "address"
        },
        {
          "indexed": true,
          "internalType": "address",
          "name": "approved",
          "type": "address"
        },
        {
          "indexed": true,
          "internalType": "uint256",
          "name": "tokenId",
          "type": "uint256"
        }
      ],
      "name": "Approval",
      "type": "event"
    },
    {
      "anonymous": false,
      "inputs": [
        {
          "indexed": true,
          "internalType": "address",
          "name": "owner",
          "type": "address"
        },
        {
          "indexed": true,
          "internalType": "address",
          "name": "operator",
          "type": "address"
        },
        {
          "indexed": false,
          "internalType": "bool",
          "name": "approved",
          "type": "bool"
        }
      ],
      "name": "ApprovalForAll",
      "type": "event"
    },
    {
      "anonymous": false,
      "inputs": [
        {
          "indexed": true,
          "internalType": "bytes32",
          "name": "role",
          "type": "bytes32"
        },
        {
          "indexed": true,
          "internalType": "bytes32",
          "name": "previousAdminRole",
          "type": "bytes32"
        },
        {
          "indexed": true,
          "internalType": "bytes32",
          "name": "newAdminRole",
          "type": "bytes32"
        }
      ],
      "name": "RoleAdminChanged",
      "type": "event"
    },
    {
      "anonymous": false,
      "inputs": [
        {
          "indexed": true,
          "internalType": "bytes32",
          "name": "role",
          "type": "bytes32"
        },
        {
          "indexed": true,
          "internalType": "address",
          "name": "account",
          "type": "address"
        },
        {
          "indexed": true,
          "internalType": "address",
          "name": "sender",
          "type": "address"
        }
      ],
      "name": "RoleGranted",
      "type": "event"
    },
    {
      "anonymous": false,
      "inputs": [
        {
          "indexed": true,
          "internalType": "bytes32",
          "name": "role",
          "type": "bytes32"
        },
        {
          "indexed": true,
          "internalType": "address",
          "name": "account",
          "type": "address"
        },
        {
          "indexed": true,
          "internalType": "address",
          "name": "sender",
          "type": "address"
        }
      ],
      "name": "RoleRevoked",
      "type": "event"
    },
    {
      "anonymous": false,
      "inputs": [
        {
          "indexed": true,
          "internalType": "address",
          "name": "from",
          "type": "address"
        },
        {
          "indexed": true,
          "internalType": "address",
          "name": "to",
          "type": "address"
        },
        {
          "indexed": true,
          "internalType": "uint256",
          "name": "tokenId",
          "type": "uint256"
        }
      ],
      "name": "Transfer",
      "type": "event"
    },
    {
      "inputs": [],
      "name": "DEFAULT_ADMIN_ROLE",
      "outputs": [
        {
          "internalType": "bytes32",
          "name": "",
          "type": "bytes32"
        }
      ],
      "stateMutability": "view",
      "type": "function"
    },
    {
      "inputs": [],
      "name": "MINTER_ROLE",
      "outputs": [
        {
          "internalType": "bytes32",
          "name": "",
          "type": "bytes32"
        }
      ],
      "stateMutability": "view",
      "type": "function"
    },
    {
      "inputs": [
        {
          "internalType": "address",
          "name": "to",
          "type": "address"
        },
        {
          "internalType": "uint256",
          "name": "tokenId",
          "type": "uint256"
        }
      ],
      "name": "approve",
      "outputs": [],
      "stateMutability": "nonpayable",
      "type": "function"
    },
    {
      "inputs": [
        {
          "internalType": "address",
          "name": "owner",
          "type": "address"
        }
      ],
      "name": "balanceOf",
      "outputs": [
        {
          "internalType": "uint256",
          "name": "",
          "type": "uint256"
        }
      ],
      "stateMutability": "view",
      "type": "function"
    },
    {
      "inputs": [
        {
          "internalType": "uint256",
          "name": "tokenId",
          "type": "uint256"
        }
      ],
      "name": "getApproved",
      "outputs": [
        {
          "internalType": "address",
          "name": "",
          "type": "address"
        }
      ],
      "stateMutability": "view",
      "type": "function"
    },
    {
      "inputs": [
        {
          "internalType": "bytes32",
          "name": "role",
          "type": "bytes32"
        }
      ],
      "name": "getRoleAdmin",
      "outputs": [
        {
          "internalType": "bytes32",
          "name": "",
          "type": "bytes32"
        }
      ],
      "stateMutability": "view",
      "type": "function"
    },
    {
      "inputs": [
        {
          "internalType": "bytes32",
          "name": "role",
          "type": "bytes32"
        },
        {
          "internalType": "address",
          "name": "account",
          "type": "address"
        }
      ],
      "name": "grantRole",
      "outputs": [],
      "stateMutability": "nonpayable",
      "type": "function"
    },
    {
      "inputs": [
        {
          "internalType": "bytes32",
          "name": "role",
          "type": "bytes32"
        },
        {
          "internalType": "address",
          "name": "account",
          "type": "address"
        }
      ],
      "name": "hasRole",
      "outputs": [
        {
          "internalType": "bool",
          "name": "",
          "type": "bool"
        }
      ],
      "stateMutability": "view",
      "type": "function"
    },
    {
      "inputs": [
        {
          "internalType": "address",
          "name": "owner",
          "type": "address"
        },
        {
          "internalType": "address",
          "name": "operator",
          "type": "address"
        }
      ],
      "name": "isApprovedForAll",
      "outputs": [
        {
          "internalType": "bool",
          "name": "",
          "type": "bool"
        }
      ],
      "stateMutability": "view",
      "type": "function"
    },
    {
      "inputs": [],
      "name": "name",
      "outputs": [
        {
          "internalType": "string",
          "name": "",
          "type": "string"
        }
      ],
      "stateMutability": "view",
      "type": "function"
    },
    {
      "inputs": [
        {
          "internalType": "uint256",
          "name": "tokenId",
          "type": "uint256"
        }
      ],
      "name": "ownerOf",
      "outputs": [
        {
          "internalType": "address",
          "name": "",
          "type": "address"
        }
      ],
      "stateMutability": "view",
      "type": "function"
    },
    {
      "inputs": [
        {
          "internalType": "address",
          "name": "redeemer",
          "type": "address"
        },
        {
          "components": [
            {
              "internalType": "uint256",
              "name": "tokenId",
              "type": "uint256"
            },
            {
              "internalType": "uint256",
              "name": "minPrice",
              "type": "uint256"
            },
            {
              "internalType": "string",
              "name": "uri",
              "type": "string"
            }
          ],
          "internalType": "struct LazyNFT.NFTVoucher",
          "name": "voucher",
          "type": "tuple"
        },
        {
          "internalType": "bytes",
          "name": "signature",
          "type": "bytes"
        }
      ],
      "name": "redeem",
      "outputs": [
        {
          "internalType": "uint256",
          "name": "",
          "type": "uint256"
        }
      ],
      "stateMutability": "payable",
      "type": "function"
    },
    {
      "inputs": [
        {
          "internalType": "bytes32",
          "name": "role",
          "type": "bytes32"
        },
        {
          "internalType": "address",
          "name": "account",
          "type": "address"
        }
      ],
      "name": "renounceRole",
      "outputs": [],
      "stateMutability": "nonpayable",
      "type": "function"
    },
    {
      "inputs": [
        {
          "internalType": "bytes32",
          "name": "role",
          "type": "bytes32"
        },
        {
          "internalType": "address",
          "name": "account",
          "type": "address"
        }
      ],
      "name": "revokeRole",
      "outputs": [],
      "stateMutability": "nonpayable",
      "type": "function"
    },
    {
      "inputs": [
        {
          "internalType": "address",
          "name": "from",
          "type": "address"
        },
        {
          "internalType": "address",
          "name": "to",
          "type": "address"
        },
        {
          "internalType": "uint256",
          "name": "tokenId",
          "type": "uint256"
        }
      ],
      "name": "safeTransferFrom",
      "outputs": [],
      "stateMutability": "nonpayable",
      "type": "function"
    },
    {
      "inputs": [
        {
          "internalType": "address",
          "name": "from",
          "type": "address"
        },
        {
          "internalType": "address",
          "name": "to",
          "type": "address"
        },
        {
          "internalType": "uint256",
          "name": "tokenId",
          "type": "uint256"
        },
        {
          "internalType": "bytes",
          "name": "_data",
          "type": "bytes"
        }
      ],
      "name": "safeTransferFrom",
      "outputs": [],
      "stateMutability": "nonpayable",
      "type": "function"
    },
    {
      "inputs": [
        {
          "internalType": "address",
          "name": "operator",
          "type": "address"
        },
        {
          "internalType": "bool",
          "name": "approved",
          "type": "bool"
        }
      ],
      "name": "setApprovalForAll",
      "outputs": [],
      "stateMutability": "nonpayable",
      "type": "function"
    },
    {
      "inputs": [
        {
          "internalType": "bytes4",
          "name": "interfaceId",
          "type": "bytes4"
        }
      ],
      "name": "supportsInterface",
      "outputs": [
        {
          "internalType": "bool",
          "name": "",
          "type": "bool"
        }
      ],
      "stateMutability": "view",
      "type": "function"
    },
    {
      "inputs": [],
      "name": "symbol",
      "outputs": [
        {
          "internalType": "string",
          "name": "",
          "type": "string"
        }
      ],
      "stateMutability": "view",
      "type": "function"
    },
    {
      "inputs": [
        {
          "internalType": "uint256",
          "name": "tokenId",
          "type": "uint256"
        }
      ],
      "name": "tokenURI",
      "outputs": [
        {
          "internalType": "string",
          "name": "",
          "type": "string"
        }
      ],
      "stateMutability": "view",
      "type": "function"
    },
    {
      "inputs": [
        {
          "internalType": "address",
          "name": "redeemer",
          "type": "address"
        },
        {
          "components": [
            {
              "internalType": "uint256",
              "name": "tokenId",
              "type": "uint256"
            },
            {
              "internalType": "uint256",
              "name": "minPrice",
              "type": "uint256"
            },
            {
              "internalType": "string",
              "name": "uri",
              "type": "string"
            }
          ],
          "internalType": "struct LazyNFT.NFTVoucher",
          "name": "voucher",
          "type": "tuple"
        },
        {
          "internalType": "bytes",
          "name": "signature",
          "type": "bytes"
        }
      ],
      "name": "tranfer",
      "outputs": [],
      "stateMutability": "nonpayable",
      "type": "function"
    },
    {
      "inputs": [
        {
          "internalType": "address",
          "name": "from",
          "type": "address"
        },
        {
          "internalType": "address",
          "name": "to",
          "type": "address"
        },
        {
          "internalType": "uint256",
          "name": "tokenId",
          "type": "uint256"
        }
      ],
      "name": "transferFrom",
      "outputs": [],
      "stateMutability": "nonpayable",
      "type": "function"
    }
  ],
  "bytecode": "0x6101406040523480156200001257600080fd5b506040518060400160405280600f81526020016e2630bd3ca7232a16ab37bab1b432b960891b815250604051806040016040528060018152602001603160f81b8152506040518060400160405280600781526020016613185e9e53919560ca1b815250604051806040016040528060038152602001622620ad60e91b8152508160009080519060200190620000a99291906200023f565b508051620000bf9060019060208401906200023f565b5050825160208085019190912083518483012060e08290526101008190524660a0818152604080517f8b73c3c69bb8fe3d512ecc4cf759cc79239f7b179b0ffacaa9a75d522b39400f81880181905281830187905260608201869052608082019490945230818401528151808203909301835260c0019052805194019390932091935091906080523060601b60c05261012052506200018592507f9f2df0fed2c77648de5860a4cc508cd0818c85b8b8a1ab4ceeef8d981c8956a691503390506200018b565b62000322565b6200019782826200019b565b5050565b60008281526007602090815260408083206001600160a01b038516845290915290205460ff16620001975760008281526007602090815260408083206001600160a01b03851684529091529020805460ff19166001179055620001fb3390565b6001600160a01b0316816001600160a01b0316837f2f8788117e7eff1d82e926ec794901d17c78024a50270940304540a733656f0d60405160405180910390a45050565b8280546200024d90620002e5565b90600052602060002090601f016020900481019282620002715760008555620002bc565b82601f106200028c57805160ff1916838001178555620002bc565b82800160010185558215620002bc579182015b82811115620002bc5782518255916020019190600101906200029f565b50620002ca929150620002ce565b5090565b5b80821115620002ca5760008155600101620002cf565b600181811c90821680620002fa57607f821691505b602082108114156200031c57634e487b7160e01b600052602260045260246000fd5b50919050565b60805160a05160c05160601c60e0516101005161012051612749620003756000396000611f2f01526000611f7e01526000611f5901526000611eb201526000611edc01526000611f0601526127496000f3fe6080604052600436106101755760003560e01c80636352211e116100cb578063a22cb4651161007f578063d539139311610059578063d53913931461042c578063d547741f14610460578063e985e9c51461048057600080fd5b8063a22cb465146103cc578063b88d4fde146103ec578063c87b56dd1461040c57600080fd5b806391d14854116100b057806391d148541461035c57806395d89b41146103a2578063a217fddf146103b757600080fd5b80636352211e1461031c57806370a082311461033c57600080fd5b80631c098e901161012d5780632f2ff15d116101075780632f2ff15d146102bc57806336568abe146102dc57806342842e0e146102fc57600080fd5b80631c098e901461024b57806323b872dd1461026c578063248a9ca31461028c57600080fd5b8063081812fc1161015e578063081812fc146101d1578063095ea7b314610209578063198c3e8f1461022b57600080fd5b806301ffc9a71461017a57806306fdde03146101af575b600080fd5b34801561018657600080fd5b5061019a610195366004612121565b6104c9565b60405190151581526020015b60405180910390f35b3480156101bb57600080fd5b506101c46104e9565b6040516101a69190612196565b3480156101dd57600080fd5b506101f16101ec3660046121a9565b61057b565b6040516001600160a01b0390911681526020016101a6565b34801561021557600080fd5b506102296102243660046121de565b610615565b005b34801561023757600080fd5b506102296102463660046122ab565b610747565b61025e6102593660046122ab565b610767565b6040519081526020016101a6565b34801561027857600080fd5b50610229610287366004612327565b61088d565b34801561029857600080fd5b5061025e6102a73660046121a9565b60009081526007602052604090206001015490565b3480156102c857600080fd5b506102296102d7366004612363565b610914565b3480156102e857600080fd5b506102296102f7366004612363565b61093a565b34801561030857600080fd5b50610229610317366004612327565b6109c6565b34801561032857600080fd5b506101f16103373660046121a9565b6109e1565b34801561034857600080fd5b5061025e61035736600461238f565b610a6c565b34801561036857600080fd5b5061019a610377366004612363565b60009182526007602090815260408084206001600160a01b0393909316845291905290205460ff1690565b3480156103ae57600080fd5b506101c4610b06565b3480156103c357600080fd5b5061025e600081565b3480156103d857600080fd5b506102296103e73660046123aa565b610b15565b3480156103f857600080fd5b506102296104073660046123e6565b610b20565b34801561041857600080fd5b506101c46104273660046121a9565b610ba8565b34801561043857600080fd5b5061025e7f9f2df0fed2c77648de5860a4cc508cd0818c85b8b8a1ab4ceeef8d981c8956a681565b34801561046c57600080fd5b5061022961047b366004612363565b610d3b565b34801561048c57600080fd5b5061019a61049b36600461244e565b6001600160a01b03918216600090815260056020908152604080832093909416825291909152205460ff1690565b60006104d482610d61565b806104e357506104e382610dfc565b92915050565b6060600080546104f890612478565b80601f016020809104026020016040519081016040528092919081815260200182805461052490612478565b80156105715780601f1061054657610100808354040283529160200191610571565b820191906000526020600020905b81548152906001019060200180831161055457829003601f168201915b5050505050905090565b6000818152600260205260408120546001600160a01b03166105f95760405162461bcd60e51b815260206004820152602c60248201527f4552433732313a20617070726f76656420717565727920666f72206e6f6e657860448201526b34b9ba32b73a103a37b5b2b760a11b60648201526084015b60405180910390fd5b506000908152600460205260409020546001600160a01b031690565b6000610620826109e1565b9050806001600160a01b0316836001600160a01b031614156106aa5760405162461bcd60e51b815260206004820152602160248201527f4552433732313a20617070726f76616c20746f2063757272656e74206f776e6560448201527f720000000000000000000000000000000000000000000000000000000000000060648201526084016105f0565b336001600160a01b03821614806106c657506106c6813361049b565b6107385760405162461bcd60e51b815260206004820152603860248201527f4552433732313a20617070726f76652063616c6c6572206973206e6f74206f7760448201527f6e6572206e6f7220617070726f76656420666f7220616c6c000000000000000060648201526084016105f0565b6107428383610e3a565b505050565b60006107538383610eb5565b905061076181858535610f24565b50505050565b6000806107748484610eb5565b6001600160a01b03811660009081527fa4bfd7afe708e2e87e7f0e2ad9b4d545417e0f795f57b5c5ab5d799c565a04f4602052604090205490915060ff166108245760405162461bcd60e51b815260206004820152602160248201527f5369676e617475726520696e76616c6964206f7220756e617574686f72697a6560448201527f640000000000000000000000000000000000000000000000000000000000000060648201526084016105f0565b83602001353410156108785760405162461bcd60e51b815260206004820152601c60248201527f496e73756666696369656e742066756e647320746f2072656465656d0000000060448201526064016105f0565b6108838185356110fe565b5050903592915050565b610897338261124d565b6109095760405162461bcd60e51b815260206004820152603160248201527f4552433732313a207472616e736665722063616c6c6572206973206e6f74206f60448201527f776e6572206e6f7220617070726f76656400000000000000000000000000000060648201526084016105f0565b610742838383610f24565b6000828152600760205260409020600101546109308133611340565b61074283836113c0565b6001600160a01b03811633146109b85760405162461bcd60e51b815260206004820152602f60248201527f416363657373436f6e74726f6c3a2063616e206f6e6c792072656e6f756e636560448201527f20726f6c657320666f722073656c66000000000000000000000000000000000060648201526084016105f0565b6109c28282611462565b5050565b61074283838360405180602001604052806000815250610b20565b6000818152600260205260408120546001600160a01b0316806104e35760405162461bcd60e51b815260206004820152602960248201527f4552433732313a206f776e657220717565727920666f72206e6f6e657869737460448201527f656e7420746f6b656e000000000000000000000000000000000000000000000060648201526084016105f0565b60006001600160a01b038216610aea5760405162461bcd60e51b815260206004820152602a60248201527f4552433732313a2062616c616e636520717565727920666f7220746865207a6560448201527f726f20616464726573730000000000000000000000000000000000000000000060648201526084016105f0565b506001600160a01b031660009081526003602052604090205490565b6060600180546104f890612478565b6109c23383836114e5565b610b2a338361124d565b610b9c5760405162461bcd60e51b815260206004820152603160248201527f4552433732313a207472616e736665722063616c6c6572206973206e6f74206f60448201527f776e6572206e6f7220617070726f76656400000000000000000000000000000060648201526084016105f0565b610761848484846115b4565b6000818152600260205260409020546060906001600160a01b0316610c355760405162461bcd60e51b815260206004820152603160248201527f45524337323155524953746f726167653a2055524920717565727920666f722060448201527f6e6f6e6578697374656e7420746f6b656e00000000000000000000000000000060648201526084016105f0565b60008281526006602052604081208054610c4e90612478565b80601f0160208091040260200160405190810160405280929190818152602001828054610c7a90612478565b8015610cc75780601f10610c9c57610100808354040283529160200191610cc7565b820191906000526020600020905b815481529060010190602001808311610caa57829003601f168201915b505050505090506000610ce560408051602081019091526000815290565b9050805160001415610cf8575092915050565b815115610d2a578082604051602001610d129291906124b3565b60405160208183030381529060405292505050919050565b610d338461163d565b949350505050565b600082815260076020526040902060010154610d578133611340565b6107428383611462565b60006001600160e01b031982167f80ac58cd000000000000000000000000000000000000000000000000000000001480610dc457506001600160e01b031982167f5b5e139f00000000000000000000000000000000000000000000000000000000145b806104e357507f01ffc9a7000000000000000000000000000000000000000000000000000000006001600160e01b03198316146104e3565b60006001600160e01b031982167f7965db0b0000000000000000000000000000000000000000000000000000000014806104e357506104e382610d61565b6000818152600460205260409020805473ffffffffffffffffffffffffffffffffffffffff19166001600160a01b0384169081179091558190610e7c826109e1565b6001600160a01b03167f8c5be1e5ebec7d5bd14f71427d1e84f3dd0314c0f7b2291e5b200ac8c7c3b92560405160405180910390a45050565b600080610ec184611733565b9050610d3383610f1e836040517f19457468657265756d205369676e6564204d6573736167653a0a3332000000006020820152603c8101829052600090605c01604051602081830303815290604052805190602001209050919050565b906117c4565b826001600160a01b0316610f37826109e1565b6001600160a01b031614610fb35760405162461bcd60e51b815260206004820152602560248201527f4552433732313a207472616e736665722066726f6d20696e636f72726563742060448201527f6f776e657200000000000000000000000000000000000000000000000000000060648201526084016105f0565b6001600160a01b03821661102e5760405162461bcd60e51b8152602060048201526024808201527f4552433732313a207472616e7366657220746f20746865207a65726f2061646460448201527f726573730000000000000000000000000000000000000000000000000000000060648201526084016105f0565b611039600082610e3a565b6001600160a01b03831660009081526003602052604081208054600192906110629084906124f8565b90915550506001600160a01b038216600090815260036020526040812080546001929061109090849061250f565b9091555050600081815260026020526040808220805473ffffffffffffffffffffffffffffffffffffffff19166001600160a01b0386811691821790925591518493918716917fddf252ad1be2c89b69c2b068fc378daa952ba7f163c4a11628f55a4df523b3ef91a4505050565b6001600160a01b0382166111545760405162461bcd60e51b815260206004820181905260248201527f4552433732313a206d696e7420746f20746865207a65726f206164647265737360448201526064016105f0565b6000818152600260205260409020546001600160a01b0316156111b95760405162461bcd60e51b815260206004820152601c60248201527f4552433732313a20746f6b656e20616c7265616479206d696e7465640000000060448201526064016105f0565b6001600160a01b03821660009081526003602052604081208054600192906111e290849061250f565b9091555050600081815260026020526040808220805473ffffffffffffffffffffffffffffffffffffffff19166001600160a01b03861690811790915590518392907fddf252ad1be2c89b69c2b068fc378daa952ba7f163c4a11628f55a4df523b3ef908290a45050565b6000818152600260205260408120546001600160a01b03166112c65760405162461bcd60e51b815260206004820152602c60248201527f4552433732313a206f70657261746f7220717565727920666f72206e6f6e657860448201526b34b9ba32b73a103a37b5b2b760a11b60648201526084016105f0565b60006112d1836109e1565b9050806001600160a01b0316846001600160a01b0316148061130c5750836001600160a01b03166113018461057b565b6001600160a01b0316145b80610d3357506001600160a01b0380821660009081526005602090815260408083209388168352929052205460ff16610d33565b60008281526007602090815260408083206001600160a01b038516845290915290205460ff166109c25761137e816001600160a01b031660146117e8565b6113898360206117e8565b60405160200161139a929190612527565b60408051601f198184030181529082905262461bcd60e51b82526105f091600401612196565b60008281526007602090815260408083206001600160a01b038516845290915290205460ff166109c25760008281526007602090815260408083206001600160a01b03851684529091529020805460ff1916600117905561141e3390565b6001600160a01b0316816001600160a01b0316837f2f8788117e7eff1d82e926ec794901d17c78024a50270940304540a733656f0d60405160405180910390a45050565b60008281526007602090815260408083206001600160a01b038516845290915290205460ff16156109c25760008281526007602090815260408083206001600160a01b0385168085529252808320805460ff1916905551339285917ff6391f5c32d9c69d2a47ea670b442974b53935d1edc7fd64eb21e047a839171b9190a45050565b816001600160a01b0316836001600160a01b031614156115475760405162461bcd60e51b815260206004820152601960248201527f4552433732313a20617070726f766520746f2063616c6c65720000000000000060448201526064016105f0565b6001600160a01b03838116600081815260056020908152604080832094871680845294825291829020805460ff191686151590811790915591519182527f17307eab39ab6107e8899845ad3d59bd9653f200f220920489ca2b5937696c31910160405180910390a3505050565b6115bf848484610f24565b6115cb848484846119ad565b6107615760405162461bcd60e51b815260206004820152603260248201527f4552433732313a207472616e7366657220746f206e6f6e20455243373231526560448201527f63656976657220696d706c656d656e746572000000000000000000000000000060648201526084016105f0565b6000818152600260205260409020546060906001600160a01b03166116ca5760405162461bcd60e51b815260206004820152602f60248201527f4552433732314d657461646174613a2055524920717565727920666f72206e6f60448201527f6e6578697374656e7420746f6b656e000000000000000000000000000000000060648201526084016105f0565b60006116e160408051602081019091526000815290565b90506000815111611701576040518060200160405280600081525061172c565b8061170b84611b10565b60405160200161171c9291906124b3565b6040516020818303038152906040525b9392505050565b60006104e37f6316f9ddd4d59a364f3b95c26bab9d392c3380ace0fff15e91ed76f0d8bcd15a8335602085013561176d60408701876125a8565b60405161177b9291906125ef565b6040519081900381206117a99493929160200193845260208401929092526040830152606082015260800190565b60405160208183030381529060405280519060200120611c0e565b60008060006117d38585611c77565b915091506117e081611ce7565b509392505050565b606060006117f78360026125ff565b61180290600261250f565b67ffffffffffffffff81111561181a5761181a612208565b6040519080825280601f01601f191660200182016040528015611844576020820181803683370190505b509050600360fc1b8160008151811061185f5761185f61261e565b60200101906001600160f81b031916908160001a9053507f7800000000000000000000000000000000000000000000000000000000000000816001815181106118aa576118aa61261e565b60200101906001600160f81b031916908160001a90535060006118ce8460026125ff565b6118d990600161250f565b90505b600181111561195e577f303132333435363738396162636465660000000000000000000000000000000085600f166010811061191a5761191a61261e565b1a60f81b8282815181106119305761193061261e565b60200101906001600160f81b031916908160001a90535060049490941c9361195781612634565b90506118dc565b50831561172c5760405162461bcd60e51b815260206004820181905260248201527f537472696e67733a20686578206c656e67746820696e73756666696369656e7460448201526064016105f0565b60006001600160a01b0384163b15611b0557604051630a85bd0160e11b81526001600160a01b0385169063150b7a02906119f190339089908890889060040161264b565b602060405180830381600087803b158015611a0b57600080fd5b505af1925050508015611a3b575060408051601f3d908101601f19168201909252611a3891810190612687565b60015b611aeb573d808015611a69576040519150601f19603f3d011682016040523d82523d6000602084013e611a6e565b606091505b508051611ae35760405162461bcd60e51b815260206004820152603260248201527f4552433732313a207472616e7366657220746f206e6f6e20455243373231526560448201527f63656976657220696d706c656d656e746572000000000000000000000000000060648201526084016105f0565b805181602001fd5b6001600160e01b031916630a85bd0160e11b149050610d33565b506001949350505050565b606081611b345750506040805180820190915260018152600360fc1b602082015290565b8160005b8115611b5e5780611b48816126a4565b9150611b579050600a836126d5565b9150611b38565b60008167ffffffffffffffff811115611b7957611b79612208565b6040519080825280601f01601f191660200182016040528015611ba3576020820181803683370190505b5090505b8415610d3357611bb86001836124f8565b9150611bc5600a866126e9565b611bd090603061250f565b60f81b818381518110611be557611be561261e565b60200101906001600160f81b031916908160001a905350611c07600a866126d5565b9450611ba7565b60006104e3611c1b611ea5565b836040517f19010000000000000000000000000000000000000000000000000000000000006020820152602281018390526042810182905260009060620160405160208183030381529060405280519060200120905092915050565b600080825160411415611cae5760208301516040840151606085015160001a611ca287828585611fcc565b94509450505050611ce0565b825160401415611cd85760208301516040840151611ccd8683836120b9565b935093505050611ce0565b506000905060025b9250929050565b6000816004811115611cfb57611cfb6126fd565b1415611d045750565b6001816004811115611d1857611d186126fd565b1415611d665760405162461bcd60e51b815260206004820152601860248201527f45434453413a20696e76616c6964207369676e6174757265000000000000000060448201526064016105f0565b6002816004811115611d7a57611d7a6126fd565b1415611dc85760405162461bcd60e51b815260206004820152601f60248201527f45434453413a20696e76616c6964207369676e6174757265206c656e6774680060448201526064016105f0565b6003816004811115611ddc57611ddc6126fd565b1415611e355760405162461bcd60e51b815260206004820152602260248201527f45434453413a20696e76616c6964207369676e6174757265202773272076616c604482015261756560f01b60648201526084016105f0565b6004816004811115611e4957611e496126fd565b1415611ea25760405162461bcd60e51b815260206004820152602260248201527f45434453413a20696e76616c6964207369676e6174757265202776272076616c604482015261756560f01b60648201526084016105f0565b50565b6000306001600160a01b037f000000000000000000000000000000000000000000000000000000000000000016148015611efe57507f000000000000000000000000000000000000000000000000000000000000000046145b15611f2857507f000000000000000000000000000000000000000000000000000000000000000090565b50604080517f00000000000000000000000000000000000000000000000000000000000000006020808301919091527f0000000000000000000000000000000000000000000000000000000000000000828401527f000000000000000000000000000000000000000000000000000000000000000060608301524660808301523060a0808401919091528351808403909101815260c0909201909252805191012090565b6000807f7fffffffffffffffffffffffffffffff5d576e7357a4501ddfe92f46681b20a083111561200357506000905060036120b0565b8460ff16601b1415801561201b57508460ff16601c14155b1561202c57506000905060046120b0565b6040805160008082526020820180845289905260ff881692820192909252606081018690526080810185905260019060a0016020604051602081039080840390855afa158015612080573d6000803e3d6000fd5b5050604051601f1901519150506001600160a01b0381166120a9576000600192509250506120b0565b9150600090505b94509492505050565b6000807f7fffffffffffffffffffffffffffffffffffffffffffffffffffffffffffffff8316816120ef60ff86901c601b61250f565b90506120fd87828885611fcc565b935093505050935093915050565b6001600160e01b031981168114611ea257600080fd5b60006020828403121561213357600080fd5b813561172c8161210b565b60005b83811015612159578181015183820152602001612141565b838111156107615750506000910152565b6000815180845261218281602086016020860161213e565b601f01601f19169290920160200192915050565b60208152600061172c602083018461216a565b6000602082840312156121bb57600080fd5b5035919050565b80356001600160a01b03811681146121d957600080fd5b919050565b600080604083850312156121f157600080fd5b6121fa836121c2565b946020939093013593505050565b634e487b7160e01b600052604160045260246000fd5b600082601f83011261222f57600080fd5b813567ffffffffffffffff8082111561224a5761224a612208565b604051601f8301601f19908116603f0116810190828211818310171561227257612272612208565b8160405283815286602085880101111561228b57600080fd5b836020870160208301376000602085830101528094505050505092915050565b6000806000606084860312156122c057600080fd5b6122c9846121c2565b9250602084013567ffffffffffffffff808211156122e657600080fd5b90850190606082880312156122fa57600080fd5b9092506040850135908082111561231057600080fd5b5061231d8682870161221e565b9150509250925092565b60008060006060848603121561233c57600080fd5b612345846121c2565b9250612353602085016121c2565b9150604084013590509250925092565b6000806040838503121561237657600080fd5b82359150612386602084016121c2565b90509250929050565b6000602082840312156123a157600080fd5b61172c826121c2565b600080604083850312156123bd57600080fd5b6123c6836121c2565b9150602083013580151581146123db57600080fd5b809150509250929050565b600080600080608085870312156123fc57600080fd5b612405856121c2565b9350612413602086016121c2565b925060408501359150606085013567ffffffffffffffff81111561243657600080fd5b6124428782880161221e565b91505092959194509250565b6000806040838503121561246157600080fd5b61246a836121c2565b9150612386602084016121c2565b600181811c9082168061248c57607f821691505b602082108114156124ad57634e487b7160e01b600052602260045260246000fd5b50919050565b600083516124c581846020880161213e565b8351908301906124d981836020880161213e565b01949350505050565b634e487b7160e01b600052601160045260246000fd5b60008282101561250a5761250a6124e2565b500390565b60008219821115612522576125226124e2565b500190565b7f416363657373436f6e74726f6c3a206163636f756e742000000000000000000081526000835161255f81601785016020880161213e565b7f206973206d697373696e6720726f6c6520000000000000000000000000000000601791840191820152835161259c81602884016020880161213e565b01602801949350505050565b6000808335601e198436030181126125bf57600080fd5b83018035915067ffffffffffffffff8211156125da57600080fd5b602001915036819003821315611ce057600080fd5b8183823760009101908152919050565b6000816000190483118215151615612619576126196124e2565b500290565b634e487b7160e01b600052603260045260246000fd5b600081612643576126436124e2565b506000190190565b60006001600160a01b0380871683528086166020840152508360408301526080606083015261267d608083018461216a565b9695505050505050565b60006020828403121561269957600080fd5b815161172c8161210b565b60006000198214156126b8576126b86124e2565b5060010190565b634e487b7160e01b600052601260045260246000fd5b6000826126e4576126e46126bf565b500490565b6000826126f8576126f86126bf565b500690565b634e487b7160e01b600052602160045260246000fdfea264697066735822122032565fba15525ddd2501bf7c6ac631ab85687cfe421753e9b6be961bc30279c164736f6c63430008080033",
  "linkReferences": {},
  "deployedLinkReferences": {}
}