{
  "_format": "hh-sol-artifact-1",
  "contractName": "StokeNFT",
  "sourceName": "contracts/StokeNFT.sol",
  "abi": [
    {
      "inputs": [],
      "stateMutability": "nonpayable",
      "type": "constructor"
    },
    {
      "anonymous": false,
      "inputs": [
        {
          "indexed": true,
          "internalType": "address",
          "name": "owner",
          "type": "address"
        },
        {
          "indexed": true,
          "internalType": "address",
          "name": "approved",
          "type": "address"
        },
        {
          "indexed": true,
          "internalType": "uint256",
          "name": "tokenId",
          "type": "uint256"
        }
      ],
      "name": "Approval",
      "type": "event"
    },
    {
      "anonymous": false,
      "inputs": [
        {
          "indexed": true,
          "internalType": "address",
          "name": "owner",
          "type": "address"
        },
        {
          "indexed": true,
          "internalType": "address",
          "name": "operator",
          "type": "address"
        },
        {
          "indexed": false,
          "internalType": "bool",
          "name": "approved",
          "type": "bool"
        }
      ],
      "name": "ApprovalForAll",
      "type": "event"
    },
    {
      "anonymous": false,
      "inputs": [
        {
          "indexed": true,
          "internalType": "address",
          "name": "from",
          "type": "address"
        },
        {
          "indexed": true,
          "internalType": "address",
          "name": "to",
          "type": "address"
        },
        {
          "indexed": true,
          "internalType": "uint256",
          "name": "tokenId",
          "type": "uint256"
        }
      ],
      "name": "Transfer",
      "type": "event"
    },
    {
      "inputs": [
        {
          "internalType": "uint256",
          "name": "_tokenId",
          "type": "uint256"
        }
      ],
      "name": "IsExistToken",
      "outputs": [
        {
          "internalType": "bool",
          "name": "",
          "type": "bool"
        }
      ],
      "stateMutability": "view",
      "type": "function"
    },
    {
      "inputs": [
        {
          "internalType": "address",
          "name": "to",
          "type": "address"
        },
        {
          "internalType": "uint256",
          "name": "tokenId",
          "type": "uint256"
        }
      ],
      "name": "approve",
      "outputs": [],
      "stateMutability": "nonpayable",
      "type": "function"
    },
    {
      "inputs": [
        {
          "internalType": "address",
          "name": "owner",
          "type": "address"
        }
      ],
      "name": "balanceOf",
      "outputs": [
        {
          "internalType": "uint256",
          "name": "",
          "type": "uint256"
        }
      ],
      "stateMutability": "view",
      "type": "function"
    },
    {
      "inputs": [
        {
          "internalType": "string",
          "name": "_tokenURI",
          "type": "string"
        },
        {
          "internalType": "uint256",
          "name": "_tokenId",
          "type": "uint256"
        },
        {
          "internalType": "address",
          "name": "marketContract",
          "type": "address"
        }
      ],
      "name": "createOrder",
      "outputs": [],
      "stateMutability": "nonpayable",
      "type": "function"
    },
    {
      "inputs": [
        {
          "internalType": "uint256",
          "name": "_tokenId",
          "type": "uint256"
        },
        {
          "internalType": "address",
          "name": "recipient",
          "type": "address"
        },
        {
          "internalType": "string",
          "name": "tokenURI",
          "type": "string"
        }
      ],
      "name": "createToken",
      "outputs": [
        {
          "internalType": "uint256",
          "name": "",
          "type": "uint256"
        }
      ],
      "stateMutability": "nonpayable",
      "type": "function"
    },
    {
      "inputs": [
        {
          "internalType": "uint256",
          "name": "tokenId",
          "type": "uint256"
        }
      ],
      "name": "getApproved",
      "outputs": [
        {
          "internalType": "address",
          "name": "",
          "type": "address"
        }
      ],
      "stateMutability": "view",
      "type": "function"
    },
    {
      "inputs": [
        {
          "internalType": "address",
          "name": "owner",
          "type": "address"
        },
        {
          "internalType": "address",
          "name": "operator",
          "type": "address"
        }
      ],
      "name": "isApprovedForAll",
      "outputs": [
        {
          "internalType": "bool",
          "name": "",
          "type": "bool"
        }
      ],
      "stateMutability": "view",
      "type": "function"
    },
    {
      "inputs": [],
      "name": "name",
      "outputs": [
        {
          "internalType": "string",
          "name": "",
          "type": "string"
        }
      ],
      "stateMutability": "view",
      "type": "function"
    },
    {
      "inputs": [
        {
          "internalType": "uint256",
          "name": "tokenId",
          "type": "uint256"
        }
      ],
      "name": "ownerOf",
      "outputs": [
        {
          "internalType": "address",
          "name": "",
          "type": "address"
        }
      ],
      "stateMutability": "view",
      "type": "function"
    },
    {
      "inputs": [
        {
          "internalType": "address",
          "name": "from",
          "type": "address"
        },
        {
          "internalType": "address",
          "name": "to",
          "type": "address"
        },
        {
          "internalType": "uint256",
          "name": "tokenId",
          "type": "uint256"
        }
      ],
      "name": "safeTransferFrom",
      "outputs": [],
      "stateMutability": "nonpayable",
      "type": "function"
    },
    {
      "inputs": [
        {
          "internalType": "address",
          "name": "from",
          "type": "address"
        },
        {
          "internalType": "address",
          "name": "to",
          "type": "address"
        },
        {
          "internalType": "uint256",
          "name": "tokenId",
          "type": "uint256"
        },
        {
          "internalType": "bytes",
          "name": "_data",
          "type": "bytes"
        }
      ],
      "name": "safeTransferFrom",
      "outputs": [],
      "stateMutability": "nonpayable",
      "type": "function"
    },
    {
      "inputs": [
        {
          "internalType": "address",
          "name": "operator",
          "type": "address"
        },
        {
          "internalType": "bool",
          "name": "approved",
          "type": "bool"
        }
      ],
      "name": "setApprovalForAll",
      "outputs": [],
      "stateMutability": "nonpayable",
      "type": "function"
    },
    {
      "inputs": [
        {
          "internalType": "bytes4",
          "name": "interfaceId",
          "type": "bytes4"
        }
      ],
      "name": "supportsInterface",
      "outputs": [
        {
          "internalType": "bool",
          "name": "",
          "type": "bool"
        }
      ],
      "stateMutability": "view",
      "type": "function"
    },
    {
      "inputs": [],
      "name": "symbol",
      "outputs": [
        {
          "internalType": "string",
          "name": "",
          "type": "string"
        }
      ],
      "stateMutability": "view",
      "type": "function"
    },
    {
      "inputs": [
        {
          "internalType": "uint256",
          "name": "tokenId",
          "type": "uint256"
        }
      ],
      "name": "tokenURI",
      "outputs": [
        {
          "internalType": "string",
          "name": "",
          "type": "string"
        }
      ],
      "stateMutability": "view",
      "type": "function"
    },
    {
      "inputs": [
        {
          "internalType": "uint256",
          "name": "",
          "type": "uint256"
        }
      ],
      "name": "tokens",
      "outputs": [
        {
          "internalType": "uint256",
          "name": "tokenId",
          "type": "uint256"
        }
      ],
      "stateMutability": "view",
      "type": "function"
    },
    {
      "inputs": [],
      "name": "totalSupply",
      "outputs": [
        {
          "internalType": "uint256",
          "name": "",
          "type": "uint256"
        }
      ],
      "stateMutability": "view",
      "type": "function"
    },
    {
      "inputs": [
        {
          "internalType": "address",
          "name": "from",
          "type": "address"
        },
        {
          "internalType": "address",
          "name": "to",
          "type": "address"
        },
        {
          "internalType": "uint256",
          "name": "tokenId",
          "type": "uint256"
        }
      ],
      "name": "transferFrom",
      "outputs": [],
      "stateMutability": "nonpayable",
      "type": "function"
    }
  ],
  "bytecode": "0x60806040523480156200001157600080fd5b50604080518082018252600881526714dd1bdad953919560c21b60208083019182528351808501909452600384526213919560ea1b9084015281519192916200005d916000916200007c565b508051620000739060019060208401906200007c565b5050506200015f565b8280546200008a9062000122565b90600052602060002090601f016020900481019282620000ae5760008555620000f9565b82601f10620000c957805160ff1916838001178555620000f9565b82800160010185558215620000f9579182015b82811115620000f9578251825591602001919060010190620000dc565b50620001079291506200010b565b5090565b5b808211156200010757600081556001016200010c565b600181811c908216806200013757607f821691505b602082108114156200015957634e487b7160e01b600052602260045260246000fd5b50919050565b611b9f806200016f6000396000f3fe608060405234801561001057600080fd5b50600436106101365760003560e01c80636352211e116100b2578063a22cb46511610081578063c87b56dd11610066578063c87b56dd1461028e578063d9b38c51146102a1578063e985e9c5146102b457600080fd5b8063a22cb46514610268578063b88d4fde1461027b57600080fd5b80636352211e1461022757806370a082311461023a578063954396521461024d57806395d89b411461026057600080fd5b806310f2f61d1161010957806323b872dd116100ee57806323b872dd146101e157806342842e0e146101f45780634f64b2be1461020757600080fd5b806310f2f61d146101b857806318160ddd146101cb57600080fd5b806301ffc9a71461013b57806306fdde0314610163578063081812fc14610178578063095ea7b3146101a3575b600080fd5b61014e61014936600461166f565b6102f0565b60405190151581526020015b60405180910390f35b61016b61038d565b60405161015a91906116e4565b61018b6101863660046116f7565b61041f565b6040516001600160a01b03909116815260200161015a565b6101b66101b136600461172c565b6104b9565b005b6101b66101c6366004611802565b6105eb565b6101d361064a565b60405190815260200161015a565b6101b66101ef366004611859565b61065a565b6101b6610202366004611859565b6106e1565b6101d36102153660046116f7565b60086020526000908152604090205481565b61018b6102353660046116f7565b6106fc565b6101d3610248366004611895565b610787565b61014e61025b3660046116f7565b610821565b61016b610845565b6101b66102763660046118b0565b610854565b6101b66102893660046118ec565b610863565b61016b61029c3660046116f7565b6108eb565b6101d36102af366004611968565b610a7e565b61014e6102c23660046119bf565b6001600160a01b03918216600090815260056020908152604080832093909416825291909152205460ff1690565b60006001600160e01b031982167f80ac58cd00000000000000000000000000000000000000000000000000000000148061035357506001600160e01b031982167f5b5e139f00000000000000000000000000000000000000000000000000000000145b8061038757507f01ffc9a7000000000000000000000000000000000000000000000000000000006001600160e01b03198316145b92915050565b60606000805461039c906119f2565b80601f01602080910402602001604051908101604052809291908181526020018280546103c8906119f2565b80156104155780601f106103ea57610100808354040283529160200191610415565b820191906000526020600020905b8154815290600101906020018083116103f857829003601f168201915b5050505050905090565b6000818152600260205260408120546001600160a01b031661049d5760405162461bcd60e51b815260206004820152602c60248201527f4552433732313a20617070726f76656420717565727920666f72206e6f6e657860448201526b34b9ba32b73a103a37b5b2b760a11b60648201526084015b60405180910390fd5b506000908152600460205260409020546001600160a01b031690565b60006104c4826106fc565b9050806001600160a01b0316836001600160a01b0316141561054e5760405162461bcd60e51b815260206004820152602160248201527f4552433732313a20617070726f76616c20746f2063757272656e74206f776e6560448201527f72000000000000000000000000000000000000000000000000000000000000006064820152608401610494565b336001600160a01b038216148061056a575061056a81336102c2565b6105dc5760405162461bcd60e51b815260206004820152603860248201527f4552433732313a20617070726f76652063616c6c6572206973206e6f74206f7760448201527f6e6572206e6f7220617070726f76656420666f7220616c6c00000000000000006064820152608401610494565b6105e68383610b19565b505050565b6105f9600780546001019055565b600061060460075490565b90506106103384610b94565b61061a8385610bae565b60408051602080820183528582526000848152600890915291909120905190556106448284610b19565b50505050565b600061065560075490565b905090565b6106643382610c57565b6106d65760405162461bcd60e51b815260206004820152603160248201527f4552433732313a207472616e736665722063616c6c6572206973206e6f74206f60448201527f776e6572206e6f7220617070726f7665640000000000000000000000000000006064820152608401610494565b6105e6838383610d4a565b6105e683838360405180602001604052806000815250610863565b6000818152600260205260408120546001600160a01b0316806103875760405162461bcd60e51b815260206004820152602960248201527f4552433732313a206f776e657220717565727920666f72206e6f6e657869737460448201527f656e7420746f6b656e00000000000000000000000000000000000000000000006064820152608401610494565b60006001600160a01b0382166108055760405162461bcd60e51b815260206004820152602a60248201527f4552433732313a2062616c616e636520717565727920666f7220746865207a6560448201527f726f2061646472657373000000000000000000000000000000000000000000006064820152608401610494565b506001600160a01b031660009081526003602052604090205490565b60008181526002602052604081205481906001600160a01b031615155b9392505050565b60606001805461039c906119f2565b61085f338383610f24565b5050565b61086d3383610c57565b6108df5760405162461bcd60e51b815260206004820152603160248201527f4552433732313a207472616e736665722063616c6c6572206973206e6f74206f60448201527f776e6572206e6f7220617070726f7665640000000000000000000000000000006064820152608401610494565b61064484848484610ff3565b6000818152600260205260409020546060906001600160a01b03166109785760405162461bcd60e51b815260206004820152603160248201527f45524337323155524953746f726167653a2055524920717565727920666f722060448201527f6e6f6e6578697374656e7420746f6b656e0000000000000000000000000000006064820152608401610494565b60008281526006602052604081208054610991906119f2565b80601f01602080910402602001604051908101604052809291908181526020018280546109bd906119f2565b8015610a0a5780601f106109df57610100808354040283529160200191610a0a565b820191906000526020600020905b8154815290600101906020018083116109ed57829003601f168201915b505050505090506000610a2860408051602081019091526000815290565b9050805160001415610a3b575092915050565b815115610a6d578082604051602001610a55929190611a2d565b60405160208183030381529060405292505050919050565b610a7684611071565b949350505050565b6000610a8e600780546001019055565b6000610a9960075490565b6000868152600260205260409020549091506001600160a01b031615801590610ada576000610ac7876106fc565b9050610ad4818789610d4a565b50610b0f565b610ae48587610b94565b610aee8685610bae565b60408051602080820183528882526000858152600890915291909120905190555b5093949350505050565b6000818152600460205260409020805473ffffffffffffffffffffffffffffffffffffffff19166001600160a01b0384169081179091558190610b5b826106fc565b6001600160a01b03167f8c5be1e5ebec7d5bd14f71427d1e84f3dd0314c0f7b2291e5b200ac8c7c3b92560405160405180910390a45050565b61085f828260405180602001604052806000815250611166565b6000828152600260205260409020546001600160a01b0316610c385760405162461bcd60e51b815260206004820152602e60248201527f45524337323155524953746f726167653a2055524920736574206f66206e6f6e60448201527f6578697374656e7420746f6b656e0000000000000000000000000000000000006064820152608401610494565b600082815260066020908152604090912082516105e6928401906115bd565b6000818152600260205260408120546001600160a01b0316610cd05760405162461bcd60e51b815260206004820152602c60248201527f4552433732313a206f70657261746f7220717565727920666f72206e6f6e657860448201526b34b9ba32b73a103a37b5b2b760a11b6064820152608401610494565b6000610cdb836106fc565b9050806001600160a01b0316846001600160a01b03161480610d165750836001600160a01b0316610d0b8461041f565b6001600160a01b0316145b80610a7657506001600160a01b0380821660009081526005602090815260408083209388168352929052205460ff16610a76565b826001600160a01b0316610d5d826106fc565b6001600160a01b031614610dd95760405162461bcd60e51b815260206004820152602560248201527f4552433732313a207472616e736665722066726f6d20696e636f72726563742060448201527f6f776e65720000000000000000000000000000000000000000000000000000006064820152608401610494565b6001600160a01b038216610e545760405162461bcd60e51b8152602060048201526024808201527f4552433732313a207472616e7366657220746f20746865207a65726f2061646460448201527f72657373000000000000000000000000000000000000000000000000000000006064820152608401610494565b610e5f600082610b19565b6001600160a01b0383166000908152600360205260408120805460019290610e88908490611a72565b90915550506001600160a01b0382166000908152600360205260408120805460019290610eb6908490611a89565b9091555050600081815260026020526040808220805473ffffffffffffffffffffffffffffffffffffffff19166001600160a01b0386811691821790925591518493918716917fddf252ad1be2c89b69c2b068fc378daa952ba7f163c4a11628f55a4df523b3ef91a4505050565b816001600160a01b0316836001600160a01b03161415610f865760405162461bcd60e51b815260206004820152601960248201527f4552433732313a20617070726f766520746f2063616c6c6572000000000000006044820152606401610494565b6001600160a01b03838116600081815260056020908152604080832094871680845294825291829020805460ff191686151590811790915591519182527f17307eab39ab6107e8899845ad3d59bd9653f200f220920489ca2b5937696c31910160405180910390a3505050565b610ffe848484610d4a565b61100a848484846111e4565b6106445760405162461bcd60e51b815260206004820152603260248201527f4552433732313a207472616e7366657220746f206e6f6e20455243373231526560448201527131b2b4bb32b91034b6b83632b6b2b73a32b960711b6064820152608401610494565b6000818152600260205260409020546060906001600160a01b03166110fe5760405162461bcd60e51b815260206004820152602f60248201527f4552433732314d657461646174613a2055524920717565727920666f72206e6f60448201527f6e6578697374656e7420746f6b656e00000000000000000000000000000000006064820152608401610494565b600061111560408051602081019091526000815290565b90506000815111611135576040518060200160405280600081525061083e565b8061113f8461133c565b604051602001611150929190611a2d565b6040516020818303038152906040529392505050565b611170838361146e565b61117d60008484846111e4565b6105e65760405162461bcd60e51b815260206004820152603260248201527f4552433732313a207472616e7366657220746f206e6f6e20455243373231526560448201527131b2b4bb32b91034b6b83632b6b2b73a32b960711b6064820152608401610494565b60006001600160a01b0384163b1561133157604051630a85bd0160e11b81526001600160a01b0385169063150b7a0290611228903390899088908890600401611aa1565b602060405180830381600087803b15801561124257600080fd5b505af1925050508015611272575060408051601f3d908101601f1916820190925261126f91810190611add565b60015b611317573d8080156112a0576040519150601f19603f3d011682016040523d82523d6000602084013e6112a5565b606091505b50805161130f5760405162461bcd60e51b815260206004820152603260248201527f4552433732313a207472616e7366657220746f206e6f6e20455243373231526560448201527131b2b4bb32b91034b6b83632b6b2b73a32b960711b6064820152608401610494565b805181602001fd5b6001600160e01b031916630a85bd0160e11b149050610a76565b506001949350505050565b60608161137c57505060408051808201909152600181527f3000000000000000000000000000000000000000000000000000000000000000602082015290565b8160005b81156113a6578061139081611afa565b915061139f9050600a83611b2b565b9150611380565b60008167ffffffffffffffff8111156113c1576113c1611756565b6040519080825280601f01601f1916602001820160405280156113eb576020820181803683370190505b5090505b8415610a7657611400600183611a72565b915061140d600a86611b3f565b611418906030611a89565b60f81b81838151811061142d5761142d611b53565b60200101907effffffffffffffffffffffffffffffffffffffffffffffffffffffffffffff1916908160001a905350611467600a86611b2b565b94506113ef565b6001600160a01b0382166114c45760405162461bcd60e51b815260206004820181905260248201527f4552433732313a206d696e7420746f20746865207a65726f20616464726573736044820152606401610494565b6000818152600260205260409020546001600160a01b0316156115295760405162461bcd60e51b815260206004820152601c60248201527f4552433732313a20746f6b656e20616c7265616479206d696e746564000000006044820152606401610494565b6001600160a01b0382166000908152600360205260408120805460019290611552908490611a89565b9091555050600081815260026020526040808220805473ffffffffffffffffffffffffffffffffffffffff19166001600160a01b03861690811790915590518392907fddf252ad1be2c89b69c2b068fc378daa952ba7f163c4a11628f55a4df523b3ef908290a45050565b8280546115c9906119f2565b90600052602060002090601f0160209004810192826115eb5760008555611631565b82601f1061160457805160ff1916838001178555611631565b82800160010185558215611631579182015b82811115611631578251825591602001919060010190611616565b5061163d929150611641565b5090565b5b8082111561163d5760008155600101611642565b6001600160e01b03198116811461166c57600080fd5b50565b60006020828403121561168157600080fd5b813561083e81611656565b60005b838110156116a757818101518382015260200161168f565b838111156106445750506000910152565b600081518084526116d081602086016020860161168c565b601f01601f19169290920160200192915050565b60208152600061083e60208301846116b8565b60006020828403121561170957600080fd5b5035919050565b80356001600160a01b038116811461172757600080fd5b919050565b6000806040838503121561173f57600080fd5b61174883611710565b946020939093013593505050565b634e487b7160e01b600052604160045260246000fd5b600067ffffffffffffffff8084111561178757611787611756565b604051601f8501601f19908116603f011681019082821181831017156117af576117af611756565b816040528093508581528686860111156117c857600080fd5b858560208301376000602087830101525050509392505050565b600082601f8301126117f357600080fd5b61083e8383356020850161176c565b60008060006060848603121561181757600080fd5b833567ffffffffffffffff81111561182e57600080fd5b61183a868287016117e2565b9350506020840135915061185060408501611710565b90509250925092565b60008060006060848603121561186e57600080fd5b61187784611710565b925061188560208501611710565b9150604084013590509250925092565b6000602082840312156118a757600080fd5b61083e82611710565b600080604083850312156118c357600080fd5b6118cc83611710565b9150602083013580151581146118e157600080fd5b809150509250929050565b6000806000806080858703121561190257600080fd5b61190b85611710565b935061191960208601611710565b925060408501359150606085013567ffffffffffffffff81111561193c57600080fd5b8501601f8101871361194d57600080fd5b61195c8782356020840161176c565b91505092959194509250565b60008060006060848603121561197d57600080fd5b8335925061198d60208501611710565b9150604084013567ffffffffffffffff8111156119a957600080fd5b6119b5868287016117e2565b9150509250925092565b600080604083850312156119d257600080fd5b6119db83611710565b91506119e960208401611710565b90509250929050565b600181811c90821680611a0657607f821691505b60208210811415611a2757634e487b7160e01b600052602260045260246000fd5b50919050565b60008351611a3f81846020880161168c565b835190830190611a5381836020880161168c565b01949350505050565b634e487b7160e01b600052601160045260246000fd5b600082821015611a8457611a84611a5c565b500390565b60008219821115611a9c57611a9c611a5c565b500190565b60006001600160a01b03808716835280861660208401525083604083015260806060830152611ad360808301846116b8565b9695505050505050565b600060208284031215611aef57600080fd5b815161083e81611656565b6000600019821415611b0e57611b0e611a5c565b5060010190565b634e487b7160e01b600052601260045260246000fd5b600082611b3a57611b3a611b15565b500490565b600082611b4e57611b4e611b15565b500690565b634e487b7160e01b600052603260045260246000fdfea26469706673582212203e9300071008887a0aaf742a7167d4f1462c0466d6796c5e33aafe82ef4601df64736f6c63430008080033",
  "linkReferences": {},
  "deployedLinkReferences": {}
}