{
  "_format": "hh-sol-artifact-1",
  "contractName": "StokeNFT",
  "sourceName": "contracts/StokeNFT.sol",
  "abi": [
    {
      "inputs": [],
      "stateMutability": "nonpayable",
      "type": "constructor"
    },
    {
      "anonymous": false,
      "inputs": [
        {
          "indexed": true,
          "internalType": "address",
          "name": "owner",
          "type": "address"
        },
        {
          "indexed": true,
          "internalType": "address",
          "name": "approved",
          "type": "address"
        },
        {
          "indexed": true,
          "internalType": "uint256",
          "name": "tokenId",
          "type": "uint256"
        }
      ],
      "name": "Approval",
      "type": "event"
    },
    {
      "anonymous": false,
      "inputs": [
        {
          "indexed": true,
          "internalType": "address",
          "name": "owner",
          "type": "address"
        },
        {
          "indexed": true,
          "internalType": "address",
          "name": "operator",
          "type": "address"
        },
        {
          "indexed": false,
          "internalType": "bool",
          "name": "approved",
          "type": "bool"
        }
      ],
      "name": "ApprovalForAll",
      "type": "event"
    },
    {
      "anonymous": false,
      "inputs": [
        {
          "indexed": true,
          "internalType": "address",
          "name": "from",
          "type": "address"
        },
        {
          "indexed": true,
          "internalType": "address",
          "name": "to",
          "type": "address"
        },
        {
          "indexed": true,
          "internalType": "uint256",
          "name": "tokenId",
          "type": "uint256"
        }
      ],
      "name": "Transfer",
      "type": "event"
    },
    {
      "inputs": [
        {
          "internalType": "address",
          "name": "to",
          "type": "address"
        },
        {
          "internalType": "uint256",
          "name": "tokenId",
          "type": "uint256"
        }
      ],
      "name": "approve",
      "outputs": [],
      "stateMutability": "nonpayable",
      "type": "function"
    },
    {
      "inputs": [
        {
          "internalType": "address",
          "name": "owner",
          "type": "address"
        }
      ],
      "name": "balanceOf",
      "outputs": [
        {
          "internalType": "uint256",
          "name": "",
          "type": "uint256"
        }
      ],
      "stateMutability": "view",
      "type": "function"
    },
    {
      "inputs": [
        {
          "internalType": "uint256",
          "name": "tokenId",
          "type": "uint256"
        },
        {
          "internalType": "address",
          "name": "recipient",
          "type": "address"
        },
        {
          "internalType": "string",
          "name": "tokenURI",
          "type": "string"
        }
      ],
      "name": "createToken",
      "outputs": [
        {
          "internalType": "uint256",
          "name": "",
          "type": "uint256"
        }
      ],
      "stateMutability": "nonpayable",
      "type": "function"
    },
    {
      "inputs": [
        {
          "internalType": "uint256",
          "name": "tokenId",
          "type": "uint256"
        }
      ],
      "name": "getApproved",
      "outputs": [
        {
          "internalType": "address",
          "name": "",
          "type": "address"
        }
      ],
      "stateMutability": "view",
      "type": "function"
    },
    {
      "inputs": [
        {
          "internalType": "address",
          "name": "owner",
          "type": "address"
        },
        {
          "internalType": "address",
          "name": "operator",
          "type": "address"
        }
      ],
      "name": "isApprovedForAll",
      "outputs": [
        {
          "internalType": "bool",
          "name": "",
          "type": "bool"
        }
      ],
      "stateMutability": "view",
      "type": "function"
    },
    {
      "inputs": [],
      "name": "name",
      "outputs": [
        {
          "internalType": "string",
          "name": "",
          "type": "string"
        }
      ],
      "stateMutability": "view",
      "type": "function"
    },
    {
      "inputs": [
        {
          "internalType": "uint256",
          "name": "tokenId",
          "type": "uint256"
        }
      ],
      "name": "ownerOf",
      "outputs": [
        {
          "internalType": "address",
          "name": "",
          "type": "address"
        }
      ],
      "stateMutability": "view",
      "type": "function"
    },
    {
      "inputs": [
        {
          "internalType": "address",
          "name": "from",
          "type": "address"
        },
        {
          "internalType": "address",
          "name": "to",
          "type": "address"
        },
        {
          "internalType": "uint256",
          "name": "tokenId",
          "type": "uint256"
        }
      ],
      "name": "safeTransferFrom",
      "outputs": [],
      "stateMutability": "nonpayable",
      "type": "function"
    },
    {
      "inputs": [
        {
          "internalType": "address",
          "name": "from",
          "type": "address"
        },
        {
          "internalType": "address",
          "name": "to",
          "type": "address"
        },
        {
          "internalType": "uint256",
          "name": "tokenId",
          "type": "uint256"
        },
        {
          "internalType": "bytes",
          "name": "_data",
          "type": "bytes"
        }
      ],
      "name": "safeTransferFrom",
      "outputs": [],
      "stateMutability": "nonpayable",
      "type": "function"
    },
    {
      "inputs": [
        {
          "internalType": "address",
          "name": "operator",
          "type": "address"
        },
        {
          "internalType": "bool",
          "name": "approved",
          "type": "bool"
        }
      ],
      "name": "setApprovalForAll",
      "outputs": [],
      "stateMutability": "nonpayable",
      "type": "function"
    },
    {
      "inputs": [
        {
          "internalType": "bytes4",
          "name": "interfaceId",
          "type": "bytes4"
        }
      ],
      "name": "supportsInterface",
      "outputs": [
        {
          "internalType": "bool",
          "name": "",
          "type": "bool"
        }
      ],
      "stateMutability": "view",
      "type": "function"
    },
    {
      "inputs": [],
      "name": "symbol",
      "outputs": [
        {
          "internalType": "string",
          "name": "",
          "type": "string"
        }
      ],
      "stateMutability": "view",
      "type": "function"
    },
    {
      "inputs": [
        {
          "internalType": "uint256",
          "name": "tokenId",
          "type": "uint256"
        }
      ],
      "name": "tokenURI",
      "outputs": [
        {
          "internalType": "string",
          "name": "",
          "type": "string"
        }
      ],
      "stateMutability": "view",
      "type": "function"
    },
    {
      "inputs": [],
      "name": "totalSupply",
      "outputs": [
        {
          "internalType": "uint256",
          "name": "",
          "type": "uint256"
        }
      ],
      "stateMutability": "view",
      "type": "function"
    },
    {
      "inputs": [
        {
          "internalType": "address",
          "name": "from",
          "type": "address"
        },
        {
          "internalType": "address",
          "name": "to",
          "type": "address"
        },
        {
          "internalType": "uint256",
          "name": "tokenId",
          "type": "uint256"
        }
      ],
      "name": "transferFrom",
      "outputs": [],
      "stateMutability": "nonpayable",
      "type": "function"
    }
  ],
  "bytecode": "0x60806040523480156200001157600080fd5b50604080518082018252600881526714dd1bdad953919560c21b60208083019182528351808501909452600384526213919560ea1b9084015281519192916200005d916000916200007c565b508051620000739060019060208401906200007c565b5050506200015f565b8280546200008a9062000122565b90600052602060002090601f016020900481019282620000ae5760008555620000f9565b82601f10620000c957805160ff1916838001178555620000f9565b82800160010185558215620000f9579182015b82811115620000f9578251825591602001919060010190620000dc565b50620001079291506200010b565b5090565b5b808211156200010757600081556001016200010c565b600181811c908216806200013757607f821691505b602082108114156200015957634e487b7160e01b600052602260045260246000fd5b50919050565b6119bc806200016f6000396000f3fe608060405234801561001057600080fd5b50600436106100f55760003560e01c80636352211e11610097578063b88d4fde11610066578063b88d4fde146101f4578063c87b56dd14610207578063d9b38c511461021a578063e985e9c51461022d57600080fd5b80636352211e146101b357806370a08231146101c657806395d89b41146101d9578063a22cb465146101e157600080fd5b8063095ea7b3116100d3578063095ea7b31461016257806318160ddd1461017757806323b872dd1461018d57806342842e0e146101a057600080fd5b806301ffc9a7146100fa57806306fdde0314610122578063081812fc14610137575b600080fd5b61010d6101083660046114ef565b610269565b60405190151581526020015b60405180910390f35b61012a610306565b6040516101199190611564565b61014a610145366004611577565b610398565b6040516001600160a01b039091168152602001610119565b6101756101703660046115ac565b610432565b005b61017f610564565b604051908152602001610119565b61017561019b3660046115d6565b610574565b6101756101ae3660046115d6565b6105fb565b61014a6101c1366004611577565b610616565b61017f6101d4366004611612565b6106a1565b61012a61073b565b6101756101ef36600461162d565b61074a565b6101756102023660046116f5565b610759565b61012a610215366004611577565b6107e7565b61017f610228366004611771565b61097a565b61010d61023b3660046117dc565b6001600160a01b03918216600090815260056020908152604080832093909416825291909152205460ff1690565b60006001600160e01b031982167f80ac58cd0000000000000000000000000000000000000000000000000000000014806102cc57506001600160e01b031982167f5b5e139f00000000000000000000000000000000000000000000000000000000145b8061030057507f01ffc9a7000000000000000000000000000000000000000000000000000000006001600160e01b03198316145b92915050565b6060600080546103159061180f565b80601f01602080910402602001604051908101604052809291908181526020018280546103419061180f565b801561038e5780601f106103635761010080835404028352916020019161038e565b820191906000526020600020905b81548152906001019060200180831161037157829003601f168201915b5050505050905090565b6000818152600260205260408120546001600160a01b03166104165760405162461bcd60e51b815260206004820152602c60248201527f4552433732313a20617070726f76656420717565727920666f72206e6f6e657860448201526b34b9ba32b73a103a37b5b2b760a11b60648201526084015b60405180910390fd5b506000908152600460205260409020546001600160a01b031690565b600061043d82610616565b9050806001600160a01b0316836001600160a01b031614156104c75760405162461bcd60e51b815260206004820152602160248201527f4552433732313a20617070726f76616c20746f2063757272656e74206f776e6560448201527f7200000000000000000000000000000000000000000000000000000000000000606482015260840161040d565b336001600160a01b03821614806104e357506104e3813361023b565b6105555760405162461bcd60e51b815260206004820152603860248201527f4552433732313a20617070726f76652063616c6c6572206973206e6f74206f7760448201527f6e6572206e6f7220617070726f76656420666f7220616c6c0000000000000000606482015260840161040d565b61055f8383610998565b505050565b600061056f60075490565b905090565b61057e3382610a13565b6105f05760405162461bcd60e51b815260206004820152603160248201527f4552433732313a207472616e736665722063616c6c6572206973206e6f74206f60448201527f776e6572206e6f7220617070726f766564000000000000000000000000000000606482015260840161040d565b61055f838383610b06565b61055f83838360405180602001604052806000815250610759565b6000818152600260205260408120546001600160a01b0316806103005760405162461bcd60e51b815260206004820152602960248201527f4552433732313a206f776e657220717565727920666f72206e6f6e657869737460448201527f656e7420746f6b656e0000000000000000000000000000000000000000000000606482015260840161040d565b60006001600160a01b03821661071f5760405162461bcd60e51b815260206004820152602a60248201527f4552433732313a2062616c616e636520717565727920666f7220746865207a6560448201527f726f206164647265737300000000000000000000000000000000000000000000606482015260840161040d565b506001600160a01b031660009081526003602052604090205490565b6060600180546103159061180f565b610755338383610ce0565b5050565b6107633383610a13565b6107d55760405162461bcd60e51b815260206004820152603160248201527f4552433732313a207472616e736665722063616c6c6572206973206e6f74206f60448201527f776e6572206e6f7220617070726f766564000000000000000000000000000000606482015260840161040d565b6107e184848484610daf565b50505050565b6000818152600260205260409020546060906001600160a01b03166108745760405162461bcd60e51b815260206004820152603160248201527f45524337323155524953746f726167653a2055524920717565727920666f722060448201527f6e6f6e6578697374656e7420746f6b656e000000000000000000000000000000606482015260840161040d565b6000828152600660205260408120805461088d9061180f565b80601f01602080910402602001604051908101604052809291908181526020018280546108b99061180f565b80156109065780601f106108db57610100808354040283529160200191610906565b820191906000526020600020905b8154815290600101906020018083116108e957829003601f168201915b50505050509050600061092460408051602081019091526000815290565b9050805160001415610937575092915050565b81511561096957808260405160200161095192919061184a565b60405160208183030381529060405292505050919050565b61097284610e2d565b949350505050565b60006109868385610f23565b6109908483610f3d565b509192915050565b6000818152600460205260409020805473ffffffffffffffffffffffffffffffffffffffff19166001600160a01b03841690811790915581906109da82610616565b6001600160a01b03167f8c5be1e5ebec7d5bd14f71427d1e84f3dd0314c0f7b2291e5b200ac8c7c3b92560405160405180910390a45050565b6000818152600260205260408120546001600160a01b0316610a8c5760405162461bcd60e51b815260206004820152602c60248201527f4552433732313a206f70657261746f7220717565727920666f72206e6f6e657860448201526b34b9ba32b73a103a37b5b2b760a11b606482015260840161040d565b6000610a9783610616565b9050806001600160a01b0316846001600160a01b03161480610ad25750836001600160a01b0316610ac784610398565b6001600160a01b0316145b8061097257506001600160a01b0380821660009081526005602090815260408083209388168352929052205460ff16610972565b826001600160a01b0316610b1982610616565b6001600160a01b031614610b955760405162461bcd60e51b815260206004820152602560248201527f4552433732313a207472616e736665722066726f6d20696e636f72726563742060448201527f6f776e6572000000000000000000000000000000000000000000000000000000606482015260840161040d565b6001600160a01b038216610c105760405162461bcd60e51b8152602060048201526024808201527f4552433732313a207472616e7366657220746f20746865207a65726f2061646460448201527f7265737300000000000000000000000000000000000000000000000000000000606482015260840161040d565b610c1b600082610998565b6001600160a01b0383166000908152600360205260408120805460019290610c4490849061188f565b90915550506001600160a01b0382166000908152600360205260408120805460019290610c729084906118a6565b9091555050600081815260026020526040808220805473ffffffffffffffffffffffffffffffffffffffff19166001600160a01b0386811691821790925591518493918716917fddf252ad1be2c89b69c2b068fc378daa952ba7f163c4a11628f55a4df523b3ef91a4505050565b816001600160a01b0316836001600160a01b03161415610d425760405162461bcd60e51b815260206004820152601960248201527f4552433732313a20617070726f766520746f2063616c6c657200000000000000604482015260640161040d565b6001600160a01b03838116600081815260056020908152604080832094871680845294825291829020805460ff191686151590811790915591519182527f17307eab39ab6107e8899845ad3d59bd9653f200f220920489ca2b5937696c31910160405180910390a3505050565b610dba848484610b06565b610dc684848484610fe6565b6107e15760405162461bcd60e51b815260206004820152603260248201527f4552433732313a207472616e7366657220746f206e6f6e20455243373231526560448201527131b2b4bb32b91034b6b83632b6b2b73a32b960711b606482015260840161040d565b6000818152600260205260409020546060906001600160a01b0316610eba5760405162461bcd60e51b815260206004820152602f60248201527f4552433732314d657461646174613a2055524920717565727920666f72206e6f60448201527f6e6578697374656e7420746f6b656e0000000000000000000000000000000000606482015260840161040d565b6000610ed160408051602081019091526000815290565b90506000815111610ef15760405180602001604052806000815250610f1c565b80610efb8461113e565b604051602001610f0c92919061184a565b6040516020818303038152906040525b9392505050565b610755828260405180602001604052806000815250611270565b6000828152600260205260409020546001600160a01b0316610fc75760405162461bcd60e51b815260206004820152602e60248201527f45524337323155524953746f726167653a2055524920736574206f66206e6f6e60448201527f6578697374656e7420746f6b656e000000000000000000000000000000000000606482015260840161040d565b6000828152600660209081526040909120825161055f9284019061143d565b60006001600160a01b0384163b1561113357604051630a85bd0160e11b81526001600160a01b0385169063150b7a029061102a9033908990889088906004016118be565b602060405180830381600087803b15801561104457600080fd5b505af1925050508015611074575060408051601f3d908101601f19168201909252611071918101906118fa565b60015b611119573d8080156110a2576040519150601f19603f3d011682016040523d82523d6000602084013e6110a7565b606091505b5080516111115760405162461bcd60e51b815260206004820152603260248201527f4552433732313a207472616e7366657220746f206e6f6e20455243373231526560448201527131b2b4bb32b91034b6b83632b6b2b73a32b960711b606482015260840161040d565b805181602001fd5b6001600160e01b031916630a85bd0160e11b149050610972565b506001949350505050565b60608161117e57505060408051808201909152600181527f3000000000000000000000000000000000000000000000000000000000000000602082015290565b8160005b81156111a8578061119281611917565b91506111a19050600a83611948565b9150611182565b60008167ffffffffffffffff8111156111c3576111c3611669565b6040519080825280601f01601f1916602001820160405280156111ed576020820181803683370190505b5090505b84156109725761120260018361188f565b915061120f600a8661195c565b61121a9060306118a6565b60f81b81838151811061122f5761122f611970565b60200101907effffffffffffffffffffffffffffffffffffffffffffffffffffffffffffff1916908160001a905350611269600a86611948565b94506111f1565b61127a83836112ee565b6112876000848484610fe6565b61055f5760405162461bcd60e51b815260206004820152603260248201527f4552433732313a207472616e7366657220746f206e6f6e20455243373231526560448201527131b2b4bb32b91034b6b83632b6b2b73a32b960711b606482015260840161040d565b6001600160a01b0382166113445760405162461bcd60e51b815260206004820181905260248201527f4552433732313a206d696e7420746f20746865207a65726f2061646472657373604482015260640161040d565b6000818152600260205260409020546001600160a01b0316156113a95760405162461bcd60e51b815260206004820152601c60248201527f4552433732313a20746f6b656e20616c7265616479206d696e74656400000000604482015260640161040d565b6001600160a01b03821660009081526003602052604081208054600192906113d29084906118a6565b9091555050600081815260026020526040808220805473ffffffffffffffffffffffffffffffffffffffff19166001600160a01b03861690811790915590518392907fddf252ad1be2c89b69c2b068fc378daa952ba7f163c4a11628f55a4df523b3ef908290a45050565b8280546114499061180f565b90600052602060002090601f01602090048101928261146b57600085556114b1565b82601f1061148457805160ff19168380011785556114b1565b828001600101855582156114b1579182015b828111156114b1578251825591602001919060010190611496565b506114bd9291506114c1565b5090565b5b808211156114bd57600081556001016114c2565b6001600160e01b0319811681146114ec57600080fd5b50565b60006020828403121561150157600080fd5b8135610f1c816114d6565b60005b8381101561152757818101518382015260200161150f565b838111156107e15750506000910152565b6000815180845261155081602086016020860161150c565b601f01601f19169290920160200192915050565b602081526000610f1c6020830184611538565b60006020828403121561158957600080fd5b5035919050565b80356001600160a01b03811681146115a757600080fd5b919050565b600080604083850312156115bf57600080fd5b6115c883611590565b946020939093013593505050565b6000806000606084860312156115eb57600080fd5b6115f484611590565b925061160260208501611590565b9150604084013590509250925092565b60006020828403121561162457600080fd5b610f1c82611590565b6000806040838503121561164057600080fd5b61164983611590565b91506020830135801515811461165e57600080fd5b809150509250929050565b634e487b7160e01b600052604160045260246000fd5b600067ffffffffffffffff8084111561169a5761169a611669565b604051601f8501601f19908116603f011681019082821181831017156116c2576116c2611669565b816040528093508581528686860111156116db57600080fd5b858560208301376000602087830101525050509392505050565b6000806000806080858703121561170b57600080fd5b61171485611590565b935061172260208601611590565b925060408501359150606085013567ffffffffffffffff81111561174557600080fd5b8501601f8101871361175657600080fd5b6117658782356020840161167f565b91505092959194509250565b60008060006060848603121561178657600080fd5b8335925061179660208501611590565b9150604084013567ffffffffffffffff8111156117b257600080fd5b8401601f810186136117c357600080fd5b6117d28682356020840161167f565b9150509250925092565b600080604083850312156117ef57600080fd5b6117f883611590565b915061180660208401611590565b90509250929050565b600181811c9082168061182357607f821691505b6020821081141561184457634e487b7160e01b600052602260045260246000fd5b50919050565b6000835161185c81846020880161150c565b83519083019061187081836020880161150c565b01949350505050565b634e487b7160e01b600052601160045260246000fd5b6000828210156118a1576118a1611879565b500390565b600082198211156118b9576118b9611879565b500190565b60006001600160a01b038087168352808616602084015250836040830152608060608301526118f06080830184611538565b9695505050505050565b60006020828403121561190c57600080fd5b8151610f1c816114d6565b600060001982141561192b5761192b611879565b5060010190565b634e487b7160e01b600052601260045260246000fd5b60008261195757611957611932565b500490565b60008261196b5761196b611932565b500690565b634e487b7160e01b600052603260045260246000fdfea2646970667358221220edc6aa70cfc9bd6b5c3737749d6ff9b512a6a3bbb6ea64d2c17cb41f8a52729b64736f6c63430008080033",
  "linkReferences": {},
  "deployedLinkReferences": {}
}